{
  "_format": "hh-sol-artifact-1",
  "contractName": "MultiSigWallet",
  "sourceName": "contracts/MultiSigWallet.sol",
  "abi": [
    {
      "inputs": [
        {
          "internalType": "address[2]",
          "name": "_owners",
          "type": "address[2]"
        }
      ],
      "stateMutability": "payable",
      "type": "constructor"
    },
    {
      "inputs": [],
      "name": "ECDSAInvalidSignature",
      "type": "error"
    },
    {
      "inputs": [
        {
          "internalType": "uint256",
          "name": "length",
          "type": "uint256"
        }
      ],
      "name": "ECDSAInvalidSignatureLength",
      "type": "error"
    },
    {
      "inputs": [
        {
          "internalType": "bytes32",
          "name": "s",
          "type": "bytes32"
        }
      ],
      "name": "ECDSAInvalidSignatureS",
      "type": "error"
    },
    {
      "inputs": [],
      "name": "deposit",
      "outputs": [],
      "stateMutability": "payable",
      "type": "function"
    },
    {
      "inputs": [
        {
          "internalType": "bytes32",
          "name": "",
          "type": "bytes32"
        }
      ],
      "name": "executed",
      "outputs": [
        {
          "internalType": "bool",
          "name": "",
          "type": "bool"
        }
      ],
      "stateMutability": "view",
      "type": "function"
    },
    {
      "inputs": [
        {
          "internalType": "address",
          "name": "_to",
          "type": "address"
        },
        {
          "internalType": "uint256",
          "name": "_amount",
          "type": "uint256"
        },
        {
          "internalType": "uint256",
          "name": "_nonce",
          "type": "uint256"
        }
      ],
      "name": "getTxHash",
      "outputs": [
        {
          "internalType": "bytes32",
          "name": "",
          "type": "bytes32"
        }
      ],
      "stateMutability": "view",
      "type": "function"
    },
    {
      "inputs": [
        {
          "internalType": "uint256",
          "name": "",
          "type": "uint256"
        }
      ],
      "name": "owners",
      "outputs": [
        {
          "internalType": "address",
          "name": "",
          "type": "address"
        }
      ],
      "stateMutability": "view",
      "type": "function"
    },
    {
      "inputs": [
        {
          "internalType": "address",
          "name": "_to",
          "type": "address"
        },
        {
          "internalType": "uint256",
          "name": "_amount",
          "type": "uint256"
        },
        {
          "internalType": "uint256",
          "name": "_nonce",
          "type": "uint256"
        },
        {
          "internalType": "bytes[2]",
          "name": "_sigs",
          "type": "bytes[2]"
        }
      ],
      "name": "transfer",
      "outputs": [],
      "stateMutability": "nonpayable",
      "type": "function"
    },
    {
      "stateMutability": "payable",
      "type": "receive"
    }
  ],
  "bytecode": "0x608060405260405162001281380380620012818339818101604052810190620000299190620002bc565b8060009060026200003c92919062000044565b5050620002ee565b8260028101928215620000b3579160200282015b82811115620000b25782518260006101000a81548173ffffffffffffffffffffffffffffffffffffffff021916908373ffffffffffffffffffffffffffffffffffffffff1602179055509160200191906001019062000058565b5b509050620000c29190620000c6565b5090565b5b80821115620000e1576000816000905550600101620000c7565b5090565b6000604051905090565b600080fd5b600080fd5b6000601f19601f8301169050919050565b7f4e487b7100000000000000000000000000000000000000000000000000000000600052604160045260246000fd5b6200014482620000f9565b810181811067ffffffffffffffff821117156200016657620001656200010a565b5b80604052505050565b60006200017b620000e5565b905062000189828262000139565b919050565b600067ffffffffffffffff821115620001ac57620001ab6200010a565b5b602082029050919050565b600080fd5b600073ffffffffffffffffffffffffffffffffffffffff82169050919050565b6000620001e982620001bc565b9050919050565b620001fb81620001dc565b81146200020757600080fd5b50565b6000815190506200021b81620001f0565b92915050565b60006200023862000232846200018e565b6200016f565b90508060208402830185811115620002555762000254620001b7565b5b835b818110156200028257806200026d88826200020a565b84526020840193505060208101905062000257565b5050509392505050565b600082601f830112620002a457620002a3620000f4565b5b6002620002b384828562000221565b91505092915050565b600060408284031215620002d557620002d4620000ef565b5b6000620002e5848285016200028c565b91505092915050565b610f8380620002fe6000396000f3fe60806040526004361061004e5760003560e01c8063025e7c271461005a578063207fa7831461009757806378f16129146100d4578063a9fcfb33146100fd578063d0e30db01461013a57610055565b3661005557005b600080fd5b34801561006657600080fd5b50610081600480360381019061007c91906107aa565b610144565b60405161008e9190610818565b60405180910390f35b3480156100a357600080fd5b506100be60048036038101906100b9919061085f565b61017a565b6040516100cb91906108cb565b60405180910390f35b3480156100e057600080fd5b506100fb60048036038101906100f69190610b00565b6101b2565b005b34801561010957600080fd5b50610124600480360381019061011f9190610baf565b61034b565b6040516101319190610bf7565b60405180910390f35b61014261036b565b005b6000816002811061015457600080fd5b016000915054906101000a900473ffffffffffffffffffffffffffffffffffffffff1681565b6000308484846040516020016101939493929190610c7b565b6040516020818303038152906040528051906020012090509392505050565b60006101bf85858561017a565b90506002600082815260200190815260200160002060009054906101000a900460ff1615610222576040517f08c379a000000000000000000000000000000000000000000000000000000000815260040161021990610d26565b60405180910390fd5b61022c828261036d565b61026b576040517f08c379a000000000000000000000000000000000000000000000000000000000815260040161026290610d92565b60405180910390fd5b60016002600083815260200190815260200160002060006101000a81548160ff02191690831515021790555060008573ffffffffffffffffffffffffffffffffffffffff16856040516102bd90610de3565b60006040518083038185875af1925050503d80600081146102fa576040519150601f19603f3d011682016040523d82523d6000602084013e6102ff565b606091505b5050905080610343576040517f08c379a000000000000000000000000000000000000000000000000000000000815260040161033a90610e44565b60405180910390fd5b505050505050565b60026020528060005260406000206000915054906101000a900460ff1681565b565b6000806103798361044a565b905060005b600281101561043d5760006103b386836002811061039f5761039e610e64565b5b60200201518461048090919063ffffffff16565b905060008083600281106103ca576103c9610e64565b5b0160009054906101000a900473ffffffffffffffffffffffffffffffffffffffff1673ffffffffffffffffffffffffffffffffffffffff168273ffffffffffffffffffffffffffffffffffffffff161490508061042e576000945050505050610444565b5050808060010191505061037e565b5060019150505b92915050565b60007f19457468657265756d205369676e6564204d6573736167653a0a33320000000060005281601c52603c6000209050919050565b60008060008061049086866104ac565b9250925092506104a08282610508565b82935050505092915050565b600080600060418451036104f15760008060006020870151925060408701519150606087015160001a90506104e38882858561066c565b955095509550505050610501565b60006002855160001b9250925092505b9250925092565b6000600381111561051c5761051b610e93565b5b82600381111561052f5761052e610e93565b5b0315610668576001600381111561054957610548610e93565b5b82600381111561055c5761055b610e93565b5b03610593576040517ff645eedf00000000000000000000000000000000000000000000000000000000815260040160405180910390fd5b600260038111156105a7576105a6610e93565b5b8260038111156105ba576105b9610e93565b5b036105ff578060001c6040517ffce698f70000000000000000000000000000000000000000000000000000000081526004016105f69190610ed1565b60405180910390fd5b60038081111561061257610611610e93565b5b82600381111561062557610624610e93565b5b0361066757806040517fd78bce0c00000000000000000000000000000000000000000000000000000000815260040161065e91906108cb565b60405180910390fd5b5b5050565b60008060007f7fffffffffffffffffffffffffffffff5d576e7357a4501ddfe92f46681b20a08460001c11156106ac576000600385925092509250610756565b6000600188888888604051600081526020016040526040516106d19493929190610f08565b6020604051602081039080840390855afa1580156106f3573d6000803e3d6000fd5b505050602060405103519050600073ffffffffffffffffffffffffffffffffffffffff168173ffffffffffffffffffffffffffffffffffffffff160361074757600060016000801b93509350935050610756565b8060008060001b935093509350505b9450945094915050565b6000604051905090565b600080fd5b600080fd5b6000819050919050565b61078781610774565b811461079257600080fd5b50565b6000813590506107a48161077e565b92915050565b6000602082840312156107c0576107bf61076a565b5b60006107ce84828501610795565b91505092915050565b600073ffffffffffffffffffffffffffffffffffffffff82169050919050565b6000610802826107d7565b9050919050565b610812816107f7565b82525050565b600060208201905061082d6000830184610809565b92915050565b61083c816107f7565b811461084757600080fd5b50565b60008135905061085981610833565b92915050565b6000806000606084860312156108785761087761076a565b5b60006108868682870161084a565b935050602061089786828701610795565b92505060406108a886828701610795565b9150509250925092565b6000819050919050565b6108c5816108b2565b82525050565b60006020820190506108e060008301846108bc565b92915050565b600080fd5b6000601f19601f8301169050919050565b7f4e487b7100000000000000000000000000000000000000000000000000000000600052604160045260246000fd5b610934826108eb565b810181811067ffffffffffffffff82111715610953576109526108fc565b5b80604052505050565b6000610966610760565b9050610972828261092b565b919050565b600067ffffffffffffffff821115610992576109916108fc565b5b602082029050919050565b600080fd5b600080fd5b600067ffffffffffffffff8211156109c2576109c16108fc565b5b6109cb826108eb565b9050602081019050919050565b82818337600083830152505050565b60006109fa6109f5846109a7565b61095c565b905082815260208101848484011115610a1657610a156109a2565b5b610a218482856109d8565b509392505050565b600082601f830112610a3e57610a3d6108e6565b5b8135610a4e8482602086016109e7565b91505092915050565b6000610a6a610a6584610977565b61095c565b90508060208402830185811115610a8457610a8361099d565b5b835b81811015610acb57803567ffffffffffffffff811115610aa957610aa86108e6565b5b808601610ab68982610a29565b85526020850194505050602081019050610a86565b5050509392505050565b600082601f830112610aea57610ae96108e6565b5b6002610af7848285610a57565b91505092915050565b60008060008060808587031215610b1a57610b1961076a565b5b6000610b288782880161084a565b9450506020610b3987828801610795565b9350506040610b4a87828801610795565b925050606085013567ffffffffffffffff811115610b6b57610b6a61076f565b5b610b7787828801610ad5565b91505092959194509250565b610b8c816108b2565b8114610b9757600080fd5b50565b600081359050610ba981610b83565b92915050565b600060208284031215610bc557610bc461076a565b5b6000610bd384828501610b9a565b91505092915050565b60008115159050919050565b610bf181610bdc565b82525050565b6000602082019050610c0c6000830184610be8565b92915050565b60008160601b9050919050565b6000610c2a82610c12565b9050919050565b6000610c3c82610c1f565b9050919050565b610c54610c4f826107f7565b610c31565b82525050565b6000819050919050565b610c75610c7082610774565b610c5a565b82525050565b6000610c878287610c43565b601482019150610c978286610c43565b601482019150610ca78285610c64565b602082019150610cb78284610c64565b60208201915081905095945050505050565b600082825260208201905092915050565b7f7478206578656375746564000000000000000000000000000000000000000000600082015250565b6000610d10600b83610cc9565b9150610d1b82610cda565b602082019050919050565b60006020820190508181036000830152610d3f81610d03565b9050919050565b7f696e76616c696420736967000000000000000000000000000000000000000000600082015250565b6000610d7c600b83610cc9565b9150610d8782610d46565b602082019050919050565b60006020820190508181036000830152610dab81610d6f565b9050919050565b600081905092915050565b50565b6000610dcd600083610db2565b9150610dd882610dbd565b600082019050919050565b6000610dee82610dc0565b9150819050919050565b7f4661696c656420746f2073656e64204574686572000000000000000000000000600082015250565b6000610e2e601483610cc9565b9150610e3982610df8565b602082019050919050565b60006020820190508181036000830152610e5d81610e21565b9050919050565b7f4e487b7100000000000000000000000000000000000000000000000000000000600052603260045260246000fd5b7f4e487b7100000000000000000000000000000000000000000000000000000000600052602160045260246000fd5b610ecb81610774565b82525050565b6000602082019050610ee66000830184610ec2565b92915050565b600060ff82169050919050565b610f0281610eec565b82525050565b6000608082019050610f1d60008301876108bc565b610f2a6020830186610ef9565b610f3760408301856108bc565b610f4460608301846108bc565b9594505050505056fea26469706673582212201cbe183c00980d1fd618aa1e9d39f51447fa00517a3201a6dcee2fa0a68c05ab64736f6c63430008180033",
  "linkReferences": {},
  "deployedLinkReferences": {}
}