{
  "_format": "hh-sol-artifact-1",
  "contractName": "PriceFeedTrackerV2",
  "sourceName": "contracts/PriceFeedTrackerV2.sol",
  "abi": [
    {
      "anonymous": false,
      "inputs": [
        {
          "indexed": false,
          "internalType": "uint8",
          "name": "version",
          "type": "uint8"
        }
      ],
      "name": "Initialized",
      "type": "event"
    },
    {
      "anonymous": false,
      "inputs": [
        {
          "indexed": false,
          "internalType": "address",
          "name": "feed",
          "type": "address"
        },
        {
          "indexed": false,
          "internalType": "int256",
          "name": "price",
          "type": "int256"
        }
      ],
      "name": "PriceRetrievedFrom",
      "type": "event"
    },
    {
      "inputs": [],
      "name": "getAdmin",
      "outputs": [
        {
          "internalType": "address",
          "name": "",
          "type": "address"
        }
      ],
      "stateMutability": "view",
      "type": "function"
    },
    {
      "inputs": [
        {
          "internalType": "address",
          "name": "_admin",
          "type": "address"
        }
      ],
      "name": "initialize",
      "outputs": [],
      "stateMutability": "nonpayable",
      "type": "function"
    },
    {
      "inputs": [],
      "name": "price",
      "outputs": [
        {
          "internalType": "int256",
          "name": "",
          "type": "int256"
        }
      ],
      "stateMutability": "view",
      "type": "function"
    },
    {
      "inputs": [
        {
          "internalType": "address",
          "name": "feed",
          "type": "address"
        }
      ],
      "name": "retrievePrice",
      "outputs": [
        {
          "internalType": "int256",
          "name": "",
          "type": "int256"
        }
      ],
      "stateMutability": "nonpayable",
      "type": "function"
    }
  ],
  "bytecode": "0x608060405234801561001057600080fd5b506107e9806100206000396000f3fe608060405234801561001057600080fd5b506004361061004c5760003560e01c80630a4a6bc9146100515780636e9960c314610081578063a035b1fe1461009f578063c4d66de8146100bd575b600080fd5b61006b6004803603810190610066919061043e565b6100d9565b6040516100789190610484565b60405180910390f35b610089610211565b60405161009691906104ae565b60405180910390f35b6100a761023a565b6040516100b49190610484565b60405180910390f35b6100d760048036038101906100d2919061043e565b610240565b005b60008073ffffffffffffffffffffffffffffffffffffffff168273ffffffffffffffffffffffffffffffffffffffff1603610149576040517f08c379a00000000000000000000000000000000000000000000000000000000081526004016101409061054c565b60405180910390fd5b600082905060008173ffffffffffffffffffffffffffffffffffffffff1663feaf968c6040518163ffffffff1660e01b815260040160a060405180830381865afa15801561019b573d6000803e3d6000fd5b505050506040513d601f19601f820116820180604052508101906101bf9190610610565b505050915050806001819055507fc83c8b2e86be5e8f3d0f6dfc9fc7b520dec6c23be722f6cad23dbac5c6018d9a84826040516101fd92919061068b565b60405180910390a160015492505050919050565b60008060029054906101000a900473ffffffffffffffffffffffffffffffffffffffff16905090565b60015481565b60008060019054906101000a900460ff161590508080156102715750600160008054906101000a900460ff1660ff16105b8061029e5750610280306103b8565b15801561029d5750600160008054906101000a900460ff1660ff16145b5b6102dd576040517f08c379a00000000000000000000000000000000000000000000000000000000081526004016102d490610726565b60405180910390fd5b60016000806101000a81548160ff021916908360ff160217905550801561031a576001600060016101000a81548160ff0219169083151502179055505b81600060026101000a81548173ffffffffffffffffffffffffffffffffffffffff021916908373ffffffffffffffffffffffffffffffffffffffff16021790555080156103b45760008060016101000a81548160ff0219169083151502179055507f7f26b83ff96e1f2b6a682f133852f6798a09c465da95921460cefb384740249860016040516103ab9190610798565b60405180910390a15b5050565b6000808273ffffffffffffffffffffffffffffffffffffffff163b119050919050565b600080fd5b600073ffffffffffffffffffffffffffffffffffffffff82169050919050565b600061040b826103e0565b9050919050565b61041b81610400565b811461042657600080fd5b50565b60008135905061043881610412565b92915050565b600060208284031215610454576104536103db565b5b600061046284828501610429565b91505092915050565b6000819050919050565b61047e8161046b565b82525050565b60006020820190506104996000830184610475565b92915050565b6104a881610400565b82525050565b60006020820190506104c3600083018461049f565b92915050565b600082825260208201905092915050565b7f507269636546656564547261636b657256323a2050726963656665656420616460008201527f6472657373206d757374206e6f74206265207a65726f20616464726573732e00602082015250565b6000610536603f836104c9565b9150610541826104da565b604082019050919050565b6000602082019050818103600083015261056581610529565b9050919050565b600069ffffffffffffffffffff82169050919050565b61058b8161056c565b811461059657600080fd5b50565b6000815190506105a881610582565b92915050565b6105b78161046b565b81146105c257600080fd5b50565b6000815190506105d4816105ae565b92915050565b6000819050919050565b6105ed816105da565b81146105f857600080fd5b50565b60008151905061060a816105e4565b92915050565b600080600080600060a0868803121561062c5761062b6103db565b5b600061063a88828901610599565b955050602061064b888289016105c5565b945050604061065c888289016105fb565b935050606061066d888289016105fb565b925050608061067e88828901610599565b9150509295509295909350565b60006040820190506106a0600083018561049f565b6106ad6020830184610475565b9392505050565b7f496e697469616c697a61626c653a20636f6e747261637420697320616c72656160008201527f647920696e697469616c697a6564000000000000000000000000000000000000602082015250565b6000610710602e836104c9565b915061071b826106b4565b604082019050919050565b6000602082019050818103600083015261073f81610703565b9050919050565b6000819050919050565b600060ff82169050919050565b6000819050919050565b600061078261077d61077884610746565b61075d565b610750565b9050919050565b61079281610767565b82525050565b60006020820190506107ad6000830184610789565b9291505056fea26469706673582212207e72caa7db26e93a5d762164889158ad576602f0890966b4fd056c28c7010a0364736f6c63430008180033",
  "linkReferences": {},
  "deployedLinkReferences": {}
}