{
  "_format": "hh-sol-artifact-1",
  "contractName": "SignatureNFT",
  "sourceName": "contracts/SignatureNFT.sol",
  "abi": [
    {
      "inputs": [
        {
          "internalType": "address",
          "name": "signer",
          "type": "address"
        }
      ],
      "stateMutability": "nonpayable",
      "type": "constructor"
    },
    {
      "inputs": [],
      "name": "ECDSAInvalidSignature",
      "type": "error"
    },
    {
      "inputs": [
        {
          "internalType": "uint256",
          "name": "length",
          "type": "uint256"
        }
      ],
      "name": "ECDSAInvalidSignatureLength",
      "type": "error"
    },
    {
      "inputs": [
        {
          "internalType": "bytes32",
          "name": "s",
          "type": "bytes32"
        }
      ],
      "name": "ECDSAInvalidSignatureS",
      "type": "error"
    },
    {
      "inputs": [
        {
          "internalType": "address",
          "name": "sender",
          "type": "address"
        },
        {
          "internalType": "uint256",
          "name": "tokenId",
          "type": "uint256"
        },
        {
          "internalType": "address",
          "name": "owner",
          "type": "address"
        }
      ],
      "name": "ERC721IncorrectOwner",
      "type": "error"
    },
    {
      "inputs": [
        {
          "internalType": "address",
          "name": "operator",
          "type": "address"
        },
        {
          "internalType": "uint256",
          "name": "tokenId",
          "type": "uint256"
        }
      ],
      "name": "ERC721InsufficientApproval",
      "type": "error"
    },
    {
      "inputs": [
        {
          "internalType": "address",
          "name": "approver",
          "type": "address"
        }
      ],
      "name": "ERC721InvalidApprover",
      "type": "error"
    },
    {
      "inputs": [
        {
          "internalType": "address",
          "name": "operator",
          "type": "address"
        }
      ],
      "name": "ERC721InvalidOperator",
      "type": "error"
    },
    {
      "inputs": [
        {
          "internalType": "address",
          "name": "owner",
          "type": "address"
        }
      ],
      "name": "ERC721InvalidOwner",
      "type": "error"
    },
    {
      "inputs": [
        {
          "internalType": "address",
          "name": "receiver",
          "type": "address"
        }
      ],
      "name": "ERC721InvalidReceiver",
      "type": "error"
    },
    {
      "inputs": [
        {
          "internalType": "address",
          "name": "sender",
          "type": "address"
        }
      ],
      "name": "ERC721InvalidSender",
      "type": "error"
    },
    {
      "inputs": [
        {
          "internalType": "uint256",
          "name": "tokenId",
          "type": "uint256"
        }
      ],
      "name": "ERC721NonexistentToken",
      "type": "error"
    },
    {
      "inputs": [],
      "name": "SignatureNFT__VerifyFailed",
      "type": "error"
    },
    {
      "anonymous": false,
      "inputs": [
        {
          "indexed": true,
          "internalType": "address",
          "name": "owner",
          "type": "address"
        },
        {
          "indexed": true,
          "internalType": "address",
          "name": "approved",
          "type": "address"
        },
        {
          "indexed": true,
          "internalType": "uint256",
          "name": "tokenId",
          "type": "uint256"
        }
      ],
      "name": "Approval",
      "type": "event"
    },
    {
      "anonymous": false,
      "inputs": [
        {
          "indexed": true,
          "internalType": "address",
          "name": "owner",
          "type": "address"
        },
        {
          "indexed": true,
          "internalType": "address",
          "name": "operator",
          "type": "address"
        },
        {
          "indexed": false,
          "internalType": "bool",
          "name": "approved",
          "type": "bool"
        }
      ],
      "name": "ApprovalForAll",
      "type": "event"
    },
    {
      "anonymous": false,
      "inputs": [
        {
          "indexed": true,
          "internalType": "address",
          "name": "from",
          "type": "address"
        },
        {
          "indexed": true,
          "internalType": "address",
          "name": "to",
          "type": "address"
        },
        {
          "indexed": true,
          "internalType": "uint256",
          "name": "tokenId",
          "type": "uint256"
        }
      ],
      "name": "Transfer",
      "type": "event"
    },
    {
      "inputs": [
        {
          "internalType": "address",
          "name": "to",
          "type": "address"
        },
        {
          "internalType": "uint256",
          "name": "tokenId",
          "type": "uint256"
        }
      ],
      "name": "approve",
      "outputs": [],
      "stateMutability": "nonpayable",
      "type": "function"
    },
    {
      "inputs": [
        {
          "internalType": "address",
          "name": "owner",
          "type": "address"
        }
      ],
      "name": "balanceOf",
      "outputs": [
        {
          "internalType": "uint256",
          "name": "",
          "type": "uint256"
        }
      ],
      "stateMutability": "view",
      "type": "function"
    },
    {
      "inputs": [
        {
          "internalType": "uint256",
          "name": "tokenId",
          "type": "uint256"
        }
      ],
      "name": "getApproved",
      "outputs": [
        {
          "internalType": "address",
          "name": "",
          "type": "address"
        }
      ],
      "stateMutability": "view",
      "type": "function"
    },
    {
      "inputs": [],
      "name": "i_signer",
      "outputs": [
        {
          "internalType": "address",
          "name": "",
          "type": "address"
        }
      ],
      "stateMutability": "view",
      "type": "function"
    },
    {
      "inputs": [
        {
          "internalType": "address",
          "name": "owner",
          "type": "address"
        },
        {
          "internalType": "address",
          "name": "operator",
          "type": "address"
        }
      ],
      "name": "isApprovedForAll",
      "outputs": [
        {
          "internalType": "bool",
          "name": "",
          "type": "bool"
        }
      ],
      "stateMutability": "view",
      "type": "function"
    },
    {
      "inputs": [
        {
          "internalType": "address",
          "name": "account",
          "type": "address"
        },
        {
          "internalType": "uint256",
          "name": "tokenId",
          "type": "uint256"
        },
        {
          "internalType": "bytes",
          "name": "signature",
          "type": "bytes"
        }
      ],
      "name": "mintNft",
      "outputs": [],
      "stateMutability": "nonpayable",
      "type": "function"
    },
    {
      "inputs": [
        {
          "internalType": "uint256",
          "name": "tokenId",
          "type": "uint256"
        },
        {
          "internalType": "bytes",
          "name": "signature",
          "type": "bytes"
        }
      ],
      "name": "mintNftV2",
      "outputs": [],
      "stateMutability": "nonpayable",
      "type": "function"
    },
    {
      "inputs": [],
      "name": "name",
      "outputs": [
        {
          "internalType": "string",
          "name": "",
          "type": "string"
        }
      ],
      "stateMutability": "view",
      "type": "function"
    },
    {
      "inputs": [
        {
          "internalType": "uint256",
          "name": "tokenId",
          "type": "uint256"
        }
      ],
      "name": "ownerOf",
      "outputs": [
        {
          "internalType": "address",
          "name": "",
          "type": "address"
        }
      ],
      "stateMutability": "view",
      "type": "function"
    },
    {
      "inputs": [
        {
          "internalType": "address",
          "name": "account",
          "type": "address"
        },
        {
          "internalType": "uint256",
          "name": "tokenId",
          "type": "uint256"
        },
        {
          "internalType": "bytes",
          "name": "signature",
          "type": "bytes"
        }
      ],
      "name": "recoverSigner",
      "outputs": [
        {
          "internalType": "address",
          "name": "",
          "type": "address"
        }
      ],
      "stateMutability": "pure",
      "type": "function"
    },
    {
      "inputs": [
        {
          "internalType": "address",
          "name": "from",
          "type": "address"
        },
        {
          "internalType": "address",
          "name": "to",
          "type": "address"
        },
        {
          "internalType": "uint256",
          "name": "tokenId",
          "type": "uint256"
        }
      ],
      "name": "safeTransferFrom",
      "outputs": [],
      "stateMutability": "nonpayable",
      "type": "function"
    },
    {
      "inputs": [
        {
          "internalType": "address",
          "name": "from",
          "type": "address"
        },
        {
          "internalType": "address",
          "name": "to",
          "type": "address"
        },
        {
          "internalType": "uint256",
          "name": "tokenId",
          "type": "uint256"
        },
        {
          "internalType": "bytes",
          "name": "data",
          "type": "bytes"
        }
      ],
      "name": "safeTransferFrom",
      "outputs": [],
      "stateMutability": "nonpayable",
      "type": "function"
    },
    {
      "inputs": [
        {
          "internalType": "address",
          "name": "operator",
          "type": "address"
        },
        {
          "internalType": "bool",
          "name": "approved",
          "type": "bool"
        }
      ],
      "name": "setApprovalForAll",
      "outputs": [],
      "stateMutability": "nonpayable",
      "type": "function"
    },
    {
      "inputs": [
        {
          "internalType": "bytes4",
          "name": "interfaceId",
          "type": "bytes4"
        }
      ],
      "name": "supportsInterface",
      "outputs": [
        {
          "internalType": "bool",
          "name": "",
          "type": "bool"
        }
      ],
      "stateMutability": "view",
      "type": "function"
    },
    {
      "inputs": [],
      "name": "symbol",
      "outputs": [
        {
          "internalType": "string",
          "name": "",
          "type": "string"
        }
      ],
      "stateMutability": "view",
      "type": "function"
    },
    {
      "inputs": [
        {
          "internalType": "uint256",
          "name": "tokenId",
          "type": "uint256"
        }
      ],
      "name": "tokenURI",
      "outputs": [
        {
          "internalType": "string",
          "name": "",
          "type": "string"
        }
      ],
      "stateMutability": "view",
      "type": "function"
    },
    {
      "inputs": [
        {
          "internalType": "address",
          "name": "from",
          "type": "address"
        },
        {
          "internalType": "address",
          "name": "to",
          "type": "address"
        },
        {
          "internalType": "uint256",
          "name": "tokenId",
          "type": "uint256"
        }
      ],
      "name": "transferFrom",
      "outputs": [],
      "stateMutability": "nonpayable",
      "type": "function"
    },
    {
      "inputs": [
        {
          "internalType": "address",
          "name": "account",
          "type": "address"
        },
        {
          "internalType": "uint256",
          "name": "tokenId",
          "type": "uint256"
        },
        {
          "internalType": "bytes",
          "name": "signature",
          "type": "bytes"
        }
      ],
      "name": "verify",
      "outputs": [
        {
          "internalType": "bool",
          "name": "",
          "type": "bool"
        }
      ],
      "stateMutability": "view",
      "type": "function"
    }
  ],
  "bytecode": "0x60a06040523480156200001157600080fd5b5060405162002a9538038062002a9583398181016040528101906200003791906200016e565b6040518060400160405280601281526020017f54657374205369676e6174757265204e465400000000000000000000000000008152506040518060400160405280600381526020017f54534e00000000000000000000000000000000000000000000000000000000008152508160009081620000b491906200041a565b508060019081620000c691906200041a565b5050508073ffffffffffffffffffffffffffffffffffffffff1660808173ffffffffffffffffffffffffffffffffffffffff16815250505062000501565b600080fd5b600073ffffffffffffffffffffffffffffffffffffffff82169050919050565b6000620001368262000109565b9050919050565b620001488162000129565b81146200015457600080fd5b50565b60008151905062000168816200013d565b92915050565b60006020828403121562000187576200018662000104565b5b6000620001978482850162000157565b91505092915050565b600081519050919050565b7f4e487b7100000000000000000000000000000000000000000000000000000000600052604160045260246000fd5b7f4e487b7100000000000000000000000000000000000000000000000000000000600052602260045260246000fd5b600060028204905060018216806200022257607f821691505b602082108103620002385762000237620001da565b5b50919050565b60008190508160005260206000209050919050565b60006020601f8301049050919050565b600082821b905092915050565b600060088302620002a27fffffffffffffffffffffffffffffffffffffffffffffffffffffffffffffffff8262000263565b620002ae868362000263565b95508019841693508086168417925050509392505050565b6000819050919050565b6000819050919050565b6000620002fb620002f5620002ef84620002c6565b620002d0565b620002c6565b9050919050565b6000819050919050565b6200031783620002da565b6200032f620003268262000302565b84845462000270565b825550505050565b600090565b6200034662000337565b620003538184846200030c565b505050565b5b818110156200037b576200036f6000826200033c565b60018101905062000359565b5050565b601f821115620003ca5762000394816200023e565b6200039f8462000253565b81016020851015620003af578190505b620003c7620003be8562000253565b83018262000358565b50505b505050565b600082821c905092915050565b6000620003ef60001984600802620003cf565b1980831691505092915050565b60006200040a8383620003dc565b9150826002028217905092915050565b6200042582620001a0565b67ffffffffffffffff811115620004415762000440620001ab565b5b6200044d825462000209565b6200045a8282856200037f565b600060209050601f8311600181146200049257600084156200047d578287015190505b620004898582620003fc565b865550620004f9565b601f198416620004a2866200023e565b60005b82811015620004cc57848901518255600182019150602085019450602081019050620004a5565b86831015620004ec5784890151620004e8601f891682620003dc565b8355505b6001600288020188555050505b505050505050565b608051612571620005246000396000818161056101526106c901526125716000f3fe608060405234801561001057600080fd5b50600436106101165760003560e01c806370a08231116100a257806395d89b411161007157806395d89b4114610303578063a22cb46514610321578063b88d4fde1461033d578063c87b56dd14610359578063e985e9c51461038957610116565b806370a082311461026b5780637271cc4f1461029b5780638da9a6d2146102b757806394a1849a146102e757610116565b806311a5ae2e116100e957806311a5ae2e146101b557806323b872dd146101d357806342842e0e146101ef5780636352211e1461020b5780636f576e061461023b57610116565b806301ffc9a71461011b57806306fdde031461014b578063081812fc14610169578063095ea7b314610199575b600080fd5b61013560048036038101906101309190611b97565b6103b9565b6040516101429190611bdf565b60405180910390f35b61015361049b565b6040516101609190611c8a565b60405180910390f35b610183600480360381019061017e9190611ce2565b61052d565b6040516101909190611d50565b60405180910390f35b6101b360048036038101906101ae9190611d97565b610549565b005b6101bd61055f565b6040516101ca9190611d50565b60405180910390f35b6101ed60048036038101906101e89190611dd7565b610583565b005b61020960048036038101906102049190611dd7565b610685565b005b61022560048036038101906102209190611ce2565b6106a5565b6040516102329190611d50565b60405180910390f35b61025560048036038101906102509190611f5f565b6106b7565b6040516102629190611bdf565b60405180910390f35b61028560048036038101906102809190611fce565b610720565b604051610292919061200a565b60405180910390f35b6102b560048036038101906102b09190612025565b6107da565b005b6102d160048036038101906102cc9190611f5f565b610829565b6040516102de9190611d50565b60405180910390f35b61030160048036038101906102fc9190611f5f565b610888565b005b61030b6108d8565b6040516103189190611c8a565b60405180910390f35b61033b600480360381019061033691906120ad565b61096a565b005b610357600480360381019061035291906120ed565b610980565b005b610373600480360381019061036e9190611ce2565b61099d565b6040516103809190611c8a565b60405180910390f35b6103a3600480360381019061039e9190612170565b610a06565b6040516103b09190611bdf565b60405180910390f35b60007f80ac58cd000000000000000000000000000000000000000000000000000000007bffffffffffffffffffffffffffffffffffffffffffffffffffffffff1916827bffffffffffffffffffffffffffffffffffffffffffffffffffffffff1916148061048457507f5b5e139f000000000000000000000000000000000000000000000000000000007bffffffffffffffffffffffffffffffffffffffffffffffffffffffff1916827bffffffffffffffffffffffffffffffffffffffffffffffffffffffff1916145b80610494575061049382610a9a565b5b9050919050565b6060600080546104aa906121df565b80601f01602080910402602001604051908101604052809291908181526020018280546104d6906121df565b80156105235780601f106104f857610100808354040283529160200191610523565b820191906000526020600020905b81548152906001019060200180831161050657829003601f168201915b5050505050905090565b600061053882610b04565b5061054282610b8c565b9050919050565b61055b8282610556610bc9565b610bd1565b5050565b7f000000000000000000000000000000000000000000000000000000000000000081565b600073ffffffffffffffffffffffffffffffffffffffff168273ffffffffffffffffffffffffffffffffffffffff16036105f55760006040517f64a0ae920000000000000000000000000000000000000000000000000000000081526004016105ec9190611d50565b60405180910390fd5b60006106098383610604610bc9565b610be3565b90508373ffffffffffffffffffffffffffffffffffffffff168173ffffffffffffffffffffffffffffffffffffffff161461067f578382826040517f64283d7b00000000000000000000000000000000000000000000000000000000815260040161067693929190612210565b60405180910390fd5b50505050565b6106a083838360405180602001604052806000815250610980565b505050565b60006106b082610b04565b9050919050565b6000806106c5858585610829565b90507f000000000000000000000000000000000000000000000000000000000000000073ffffffffffffffffffffffffffffffffffffffff168173ffffffffffffffffffffffffffffffffffffffff16149150509392505050565b60008073ffffffffffffffffffffffffffffffffffffffff168273ffffffffffffffffffffffffffffffffffffffff16036107935760006040517f89c62b6400000000000000000000000000000000000000000000000000000000815260040161078a9190611d50565b60405180910390fd5b600360008373ffffffffffffffffffffffffffffffffffffffff1673ffffffffffffffffffffffffffffffffffffffff168152602001908152602001600020549050919050565b6107e53383836106b7565b61081b576040517f6a1d255500000000000000000000000000000000000000000000000000000000815260040160405180910390fd5b6108253383610dfd565b5050565b600080848460405160200161083f9291906122b0565b604051602081830303815290604052805190602001209050600061086282610e1b565b905060006108798583610e5190919063ffffffff16565b90508093505050509392505050565b6108938383836106b7565b6108c9576040517f6a1d255500000000000000000000000000000000000000000000000000000000815260040160405180910390fd5b6108d38383610dfd565b505050565b6060600180546108e7906121df565b80601f0160208091040260200160405190810160405280929190818152602001828054610913906121df565b80156109605780601f1061093557610100808354040283529160200191610960565b820191906000526020600020905b81548152906001019060200180831161094357829003601f168201915b5050505050905090565b61097c610975610bc9565b8383610e7d565b5050565b61098b848484610583565b61099784848484610fec565b50505050565b60606109a882610b04565b5060006109b36111a3565b905060008151116109d357604051806020016040528060008152506109fe565b806109dd846111ba565b6040516020016109ee929190612318565b6040516020818303038152906040525b915050919050565b6000600560008473ffffffffffffffffffffffffffffffffffffffff1673ffffffffffffffffffffffffffffffffffffffff16815260200190815260200160002060008373ffffffffffffffffffffffffffffffffffffffff1673ffffffffffffffffffffffffffffffffffffffff16815260200190815260200160002060009054906101000a900460ff16905092915050565b60007f01ffc9a7000000000000000000000000000000000000000000000000000000007bffffffffffffffffffffffffffffffffffffffffffffffffffffffff1916827bffffffffffffffffffffffffffffffffffffffffffffffffffffffff1916149050919050565b600080610b1083611288565b9050600073ffffffffffffffffffffffffffffffffffffffff168173ffffffffffffffffffffffffffffffffffffffff1603610b8357826040517f7e273289000000000000000000000000000000000000000000000000000000008152600401610b7a919061200a565b60405180910390fd5b80915050919050565b60006004600083815260200190815260200160002060009054906101000a900473ffffffffffffffffffffffffffffffffffffffff169050919050565b600033905090565b610bde83838360016112c5565b505050565b600080610bef84611288565b9050600073ffffffffffffffffffffffffffffffffffffffff168373ffffffffffffffffffffffffffffffffffffffff1614610c3157610c3081848661148a565b5b600073ffffffffffffffffffffffffffffffffffffffff168173ffffffffffffffffffffffffffffffffffffffff1614610cc257610c736000856000806112c5565b6001600360008373ffffffffffffffffffffffffffffffffffffffff1673ffffffffffffffffffffffffffffffffffffffff168152602001908152602001600020600082825403925050819055505b600073ffffffffffffffffffffffffffffffffffffffff168573ffffffffffffffffffffffffffffffffffffffff1614610d45576001600360008773ffffffffffffffffffffffffffffffffffffffff1673ffffffffffffffffffffffffffffffffffffffff168152602001908152602001600020600082825401925050819055505b846002600086815260200190815260200160002060006101000a81548173ffffffffffffffffffffffffffffffffffffffff021916908373ffffffffffffffffffffffffffffffffffffffff160217905550838573ffffffffffffffffffffffffffffffffffffffff168273ffffffffffffffffffffffffffffffffffffffff167fddf252ad1be2c89b69c2b068fc378daa952ba7f163c4a11628f55a4df523b3ef60405160405180910390a4809150509392505050565b610e1782826040518060200160405280600081525061154e565b5050565b60007f19457468657265756d205369676e6564204d6573736167653a0a33320000000060005281601c52603c6000209050919050565b600080600080610e61868661156a565b925092509250610e7182826115c6565b82935050505092915050565b600073ffffffffffffffffffffffffffffffffffffffff168273ffffffffffffffffffffffffffffffffffffffff1603610eee57816040517f5b08ba18000000000000000000000000000000000000000000000000000000008152600401610ee59190611d50565b60405180910390fd5b80600560008573ffffffffffffffffffffffffffffffffffffffff1673ffffffffffffffffffffffffffffffffffffffff16815260200190815260200160002060008473ffffffffffffffffffffffffffffffffffffffff1673ffffffffffffffffffffffffffffffffffffffff16815260200190815260200160002060006101000a81548160ff0219169083151502179055508173ffffffffffffffffffffffffffffffffffffffff168373ffffffffffffffffffffffffffffffffffffffff167f17307eab39ab6107e8899845ad3d59bd9653f200f220920489ca2b5937696c3183604051610fdf9190611bdf565b60405180910390a3505050565b60008373ffffffffffffffffffffffffffffffffffffffff163b111561119d578273ffffffffffffffffffffffffffffffffffffffff1663150b7a02611030610bc9565b8685856040518563ffffffff1660e01b81526004016110529493929190612391565b6020604051808303816000875af192505050801561108e57506040513d601f19601f8201168201806040525081019061108b91906123f2565b60015b611112573d80600081146110be576040519150601f19603f3d011682016040523d82523d6000602084013e6110c3565b606091505b50600081510361110a57836040517f64a0ae920000000000000000000000000000000000000000000000000000000081526004016111019190611d50565b60405180910390fd5b805181602001fd5b63150b7a0260e01b7bffffffffffffffffffffffffffffffffffffffffffffffffffffffff1916817bffffffffffffffffffffffffffffffffffffffffffffffffffffffff19161461119b57836040517f64a0ae920000000000000000000000000000000000000000000000000000000081526004016111929190611d50565b60405180910390fd5b505b50505050565b606060405180602001604052806000815250905090565b6060600060016111c98461172a565b01905060008167ffffffffffffffff8111156111e8576111e7611e34565b5b6040519080825280601f01601f19166020018201604052801561121a5781602001600182028036833780820191505090505b509050600082602001820190505b60011561127d578080600190039150507f3031323334353637383961626364656600000000000000000000000000000000600a86061a8153600a85816112715761127061241f565b5b04945060008503611228575b819350505050919050565b60006002600083815260200190815260200160002060009054906101000a900473ffffffffffffffffffffffffffffffffffffffff169050919050565b80806112fe5750600073ffffffffffffffffffffffffffffffffffffffff168273ffffffffffffffffffffffffffffffffffffffff1614155b1561143257600061130e84610b04565b9050600073ffffffffffffffffffffffffffffffffffffffff168373ffffffffffffffffffffffffffffffffffffffff161415801561137957508273ffffffffffffffffffffffffffffffffffffffff168173ffffffffffffffffffffffffffffffffffffffff1614155b801561138c575061138a8184610a06565b155b156113ce57826040517fa9fbf51f0000000000000000000000000000000000000000000000000000000081526004016113c59190611d50565b60405180910390fd5b811561143057838573ffffffffffffffffffffffffffffffffffffffff168273ffffffffffffffffffffffffffffffffffffffff167f8c5be1e5ebec7d5bd14f71427d1e84f3dd0314c0f7b2291e5b200ac8c7c3b92560405160405180910390a45b505b836004600085815260200190815260200160002060006101000a81548173ffffffffffffffffffffffffffffffffffffffff021916908373ffffffffffffffffffffffffffffffffffffffff16021790555050505050565b61149583838361187d565b61154957600073ffffffffffffffffffffffffffffffffffffffff168373ffffffffffffffffffffffffffffffffffffffff160361150a57806040517f7e273289000000000000000000000000000000000000000000000000000000008152600401611501919061200a565b60405180910390fd5b81816040517f177e802f00000000000000000000000000000000000000000000000000000000815260040161154092919061244e565b60405180910390fd5b505050565b611558838361193e565b6115656000848484610fec565b505050565b600080600060418451036115af5760008060006020870151925060408701519150606087015160001a90506115a188828585611a37565b9550955095505050506115bf565b60006002855160001b9250925092505b9250925092565b600060038111156115da576115d9612477565b5b8260038111156115ed576115ec612477565b5b0315611726576001600381111561160757611606612477565b5b82600381111561161a57611619612477565b5b03611651576040517ff645eedf00000000000000000000000000000000000000000000000000000000815260040160405180910390fd5b6002600381111561166557611664612477565b5b82600381111561167857611677612477565b5b036116bd578060001c6040517ffce698f70000000000000000000000000000000000000000000000000000000081526004016116b4919061200a565b60405180910390fd5b6003808111156116d0576116cf612477565b5b8260038111156116e3576116e2612477565b5b0361172557806040517fd78bce0c00000000000000000000000000000000000000000000000000000000815260040161171c91906124bf565b60405180910390fd5b5b5050565b600080600090507a184f03e93ff9f4daa797ed6e38ed64bf6a1f0100000000000000008310611788577a184f03e93ff9f4daa797ed6e38ed64bf6a1f010000000000000000838161177e5761177d61241f565b5b0492506040810190505b6d04ee2d6d415b85acef810000000083106117c5576d04ee2d6d415b85acef810000000083816117bb576117ba61241f565b5b0492506020810190505b662386f26fc1000083106117f457662386f26fc1000083816117ea576117e961241f565b5b0492506010810190505b6305f5e100831061181d576305f5e10083816118135761181261241f565b5b0492506008810190505b61271083106118425761271083816118385761183761241f565b5b0492506004810190505b60648310611865576064838161185b5761185a61241f565b5b0492506002810190505b600a8310611874576001810190505b80915050919050565b60008073ffffffffffffffffffffffffffffffffffffffff168373ffffffffffffffffffffffffffffffffffffffff161415801561193557508273ffffffffffffffffffffffffffffffffffffffff168473ffffffffffffffffffffffffffffffffffffffff1614806118f657506118f58484610a06565b5b8061193457508273ffffffffffffffffffffffffffffffffffffffff1661191c83610b8c565b73ffffffffffffffffffffffffffffffffffffffff16145b5b90509392505050565b600073ffffffffffffffffffffffffffffffffffffffff168273ffffffffffffffffffffffffffffffffffffffff16036119b05760006040517f64a0ae920000000000000000000000000000000000000000000000000000000081526004016119a79190611d50565b60405180910390fd5b60006119be83836000610be3565b9050600073ffffffffffffffffffffffffffffffffffffffff168173ffffffffffffffffffffffffffffffffffffffff1614611a325760006040517f73c6ac6e000000000000000000000000000000000000000000000000000000008152600401611a299190611d50565b60405180910390fd5b505050565b60008060007f7fffffffffffffffffffffffffffffff5d576e7357a4501ddfe92f46681b20a08460001c1115611a77576000600385925092509250611b21565b600060018888888860405160008152602001604052604051611a9c94939291906124f6565b6020604051602081039080840390855afa158015611abe573d6000803e3d6000fd5b505050602060405103519050600073ffffffffffffffffffffffffffffffffffffffff168173ffffffffffffffffffffffffffffffffffffffff1603611b1257600060016000801b93509350935050611b21565b8060008060001b935093509350505b9450945094915050565b6000604051905090565b600080fd5b600080fd5b60007fffffffff0000000000000000000000000000000000000000000000000000000082169050919050565b611b7481611b3f565b8114611b7f57600080fd5b50565b600081359050611b9181611b6b565b92915050565b600060208284031215611bad57611bac611b35565b5b6000611bbb84828501611b82565b91505092915050565b60008115159050919050565b611bd981611bc4565b82525050565b6000602082019050611bf46000830184611bd0565b92915050565b600081519050919050565b600082825260208201905092915050565b60005b83811015611c34578082015181840152602081019050611c19565b60008484015250505050565b6000601f19601f8301169050919050565b6000611c5c82611bfa565b611c668185611c05565b9350611c76818560208601611c16565b611c7f81611c40565b840191505092915050565b60006020820190508181036000830152611ca48184611c51565b905092915050565b6000819050919050565b611cbf81611cac565b8114611cca57600080fd5b50565b600081359050611cdc81611cb6565b92915050565b600060208284031215611cf857611cf7611b35565b5b6000611d0684828501611ccd565b91505092915050565b600073ffffffffffffffffffffffffffffffffffffffff82169050919050565b6000611d3a82611d0f565b9050919050565b611d4a81611d2f565b82525050565b6000602082019050611d656000830184611d41565b92915050565b611d7481611d2f565b8114611d7f57600080fd5b50565b600081359050611d9181611d6b565b92915050565b60008060408385031215611dae57611dad611b35565b5b6000611dbc85828601611d82565b9250506020611dcd85828601611ccd565b9150509250929050565b600080600060608486031215611df057611def611b35565b5b6000611dfe86828701611d82565b9350506020611e0f86828701611d82565b9250506040611e2086828701611ccd565b9150509250925092565b600080fd5b600080fd5b7f4e487b7100000000000000000000000000000000000000000000000000000000600052604160045260246000fd5b611e6c82611c40565b810181811067ffffffffffffffff82111715611e8b57611e8a611e34565b5b80604052505050565b6000611e9e611b2b565b9050611eaa8282611e63565b919050565b600067ffffffffffffffff821115611eca57611ec9611e34565b5b611ed382611c40565b9050602081019050919050565b82818337600083830152505050565b6000611f02611efd84611eaf565b611e94565b905082815260208101848484011115611f1e57611f1d611e2f565b5b611f29848285611ee0565b509392505050565b600082601f830112611f4657611f45611e2a565b5b8135611f56848260208601611eef565b91505092915050565b600080600060608486031215611f7857611f77611b35565b5b6000611f8686828701611d82565b9350506020611f9786828701611ccd565b925050604084013567ffffffffffffffff811115611fb857611fb7611b3a565b5b611fc486828701611f31565b9150509250925092565b600060208284031215611fe457611fe3611b35565b5b6000611ff284828501611d82565b91505092915050565b61200481611cac565b82525050565b600060208201905061201f6000830184611ffb565b92915050565b6000806040838503121561203c5761203b611b35565b5b600061204a85828601611ccd565b925050602083013567ffffffffffffffff81111561206b5761206a611b3a565b5b61207785828601611f31565b9150509250929050565b61208a81611bc4565b811461209557600080fd5b50565b6000813590506120a781612081565b92915050565b600080604083850312156120c4576120c3611b35565b5b60006120d285828601611d82565b92505060206120e385828601612098565b9150509250929050565b6000806000806080858703121561210757612106611b35565b5b600061211587828801611d82565b945050602061212687828801611d82565b935050604061213787828801611ccd565b925050606085013567ffffffffffffffff81111561215857612157611b3a565b5b61216487828801611f31565b91505092959194509250565b6000806040838503121561218757612186611b35565b5b600061219585828601611d82565b92505060206121a685828601611d82565b9150509250929050565b7f4e487b7100000000000000000000000000000000000000000000000000000000600052602260045260246000fd5b600060028204905060018216806121f757607f821691505b60208210810361220a576122096121b0565b5b50919050565b60006060820190506122256000830186611d41565b6122326020830185611ffb565b61223f6040830184611d41565b949350505050565b60008160601b9050919050565b600061225f82612247565b9050919050565b600061227182612254565b9050919050565b61228961228482611d2f565b612266565b82525050565b6000819050919050565b6122aa6122a582611cac565b61228f565b82525050565b60006122bc8285612278565b6014820191506122cc8284612299565b6020820191508190509392505050565b600081905092915050565b60006122f282611bfa565b6122fc81856122dc565b935061230c818560208601611c16565b80840191505092915050565b600061232482856122e7565b915061233082846122e7565b91508190509392505050565b600081519050919050565b600082825260208201905092915050565b60006123638261233c565b61236d8185612347565b935061237d818560208601611c16565b61238681611c40565b840191505092915050565b60006080820190506123a66000830187611d41565b6123b36020830186611d41565b6123c06040830185611ffb565b81810360608301526123d28184612358565b905095945050505050565b6000815190506123ec81611b6b565b92915050565b60006020828403121561240857612407611b35565b5b6000612416848285016123dd565b91505092915050565b7f4e487b7100000000000000000000000000000000000000000000000000000000600052601260045260246000fd5b60006040820190506124636000830185611d41565b6124706020830184611ffb565b9392505050565b7f4e487b7100000000000000000000000000000000000000000000000000000000600052602160045260246000fd5b6000819050919050565b6124b9816124a6565b82525050565b60006020820190506124d460008301846124b0565b92915050565b600060ff82169050919050565b6124f0816124da565b82525050565b600060808201905061250b60008301876124b0565b61251860208301866124e7565b61252560408301856124b0565b61253260608301846124b0565b9594505050505056fea264697066735822122062ace0bb8be332e675c13955e840586f961e74fd81437439586ae895d588595064736f6c63430008180033",
  "linkReferences": {},
  "deployedLinkReferences": {}
}