{
  "_format": "hh-sol-artifact-1",
  "contractName": "PriceFeedTracker",
  "sourceName": "contracts/PriceFeedTrackerV1.sol",
  "abi": [
    {
      "anonymous": false,
      "inputs": [
        {
          "indexed": false,
          "internalType": "uint8",
          "name": "version",
          "type": "uint8"
        }
      ],
      "name": "Initialized",
      "type": "event"
    },
    {
      "inputs": [],
      "name": "getAdmin",
      "outputs": [
        {
          "internalType": "address",
          "name": "",
          "type": "address"
        }
      ],
      "stateMutability": "view",
      "type": "function"
    },
    {
      "inputs": [
        {
          "internalType": "address",
          "name": "_admin",
          "type": "address"
        }
      ],
      "name": "initialize",
      "outputs": [],
      "stateMutability": "nonpayable",
      "type": "function"
    },
    {
      "inputs": [],
      "name": "retrievePrice",
      "outputs": [
        {
          "internalType": "int256",
          "name": "",
          "type": "int256"
        }
      ],
      "stateMutability": "view",
      "type": "function"
    }
  ],
  "bytecode": "0x608060405234801561001057600080fd5b5061064e806100206000396000f3fe608060405234801561001057600080fd5b50600436106100415760003560e01c80636e9960c314610046578063c4d66de814610064578063e02539c814610080575b600080fd5b61004e61009e565b60405161005b919061033c565b60405180910390f35b61007e60048036038101906100799190610388565b6100c7565b005b61008861023f565b60405161009591906103ce565b60405180910390f35b60008060029054906101000a900473ffffffffffffffffffffffffffffffffffffffff16905090565b60008060019054906101000a900460ff161590508080156100f85750600160008054906101000a900460ff1660ff16105b806101255750610107306102d8565b1580156101245750600160008054906101000a900460ff1660ff16145b5b610164576040517f08c379a000000000000000000000000000000000000000000000000000000000815260040161015b9061046c565b60405180910390fd5b60016000806101000a81548160ff021916908360ff16021790555080156101a1576001600060016101000a81548160ff0219169083151502179055505b81600060026101000a81548173ffffffffffffffffffffffffffffffffffffffff021916908373ffffffffffffffffffffffffffffffffffffffff160217905550801561023b5760008060016101000a81548160ff0219169083151502179055507f7f26b83ff96e1f2b6a682f133852f6798a09c465da95921460cefb3847402498600160405161023291906104de565b60405180910390a15b5050565b60008073694aa1769357215de4fac081bf1f309adc325306905060008173ffffffffffffffffffffffffffffffffffffffff1663feaf968c6040518163ffffffff1660e01b815260040160a060405180830381865afa1580156102a6573d6000803e3d6000fd5b505050506040513d601f19601f820116820180604052508101906102ca919061059d565b505050915050809250505090565b6000808273ffffffffffffffffffffffffffffffffffffffff163b119050919050565b600073ffffffffffffffffffffffffffffffffffffffff82169050919050565b6000610326826102fb565b9050919050565b6103368161031b565b82525050565b6000602082019050610351600083018461032d565b92915050565b600080fd5b6103658161031b565b811461037057600080fd5b50565b6000813590506103828161035c565b92915050565b60006020828403121561039e5761039d610357565b5b60006103ac84828501610373565b91505092915050565b6000819050919050565b6103c8816103b5565b82525050565b60006020820190506103e360008301846103bf565b92915050565b600082825260208201905092915050565b7f496e697469616c697a61626c653a20636f6e747261637420697320616c72656160008201527f647920696e697469616c697a6564000000000000000000000000000000000000602082015250565b6000610456602e836103e9565b9150610461826103fa565b604082019050919050565b6000602082019050818103600083015261048581610449565b9050919050565b6000819050919050565b600060ff82169050919050565b6000819050919050565b60006104c86104c36104be8461048c565b6104a3565b610496565b9050919050565b6104d8816104ad565b82525050565b60006020820190506104f360008301846104cf565b92915050565b600069ffffffffffffffffffff82169050919050565b610518816104f9565b811461052357600080fd5b50565b6000815190506105358161050f565b92915050565b610544816103b5565b811461054f57600080fd5b50565b6000815190506105618161053b565b92915050565b6000819050919050565b61057a81610567565b811461058557600080fd5b50565b60008151905061059781610571565b92915050565b600080600080600060a086880312156105b9576105b8610357565b5b60006105c788828901610526565b95505060206105d888828901610552565b94505060406105e988828901610588565b93505060606105fa88828901610588565b925050608061060b88828901610526565b915050929550929590935056fea264697066735822122013c2f23ee7946392e47d865ae87503a13046c452a4a9e78f01624f9addde72a164736f6c63430008180033",
  "linkReferences": {},
  "deployedLinkReferences": {}
}