{
  "_format": "hh-sol-artifact-1",
  "contractName": "FreeMint",
  "sourceName": "contracts/FreeMint.sol",
  "abi": [
    {
      "inputs": [],
      "stateMutability": "nonpayable",
      "type": "constructor"
    },
    {
      "inputs": [
        {
          "internalType": "address",
          "name": "sender",
          "type": "address"
        },
        {
          "internalType": "uint256",
          "name": "tokenId",
          "type": "uint256"
        },
        {
          "internalType": "address",
          "name": "owner",
          "type": "address"
        }
      ],
      "name": "ERC721IncorrectOwner",
      "type": "error"
    },
    {
      "inputs": [
        {
          "internalType": "address",
          "name": "operator",
          "type": "address"
        },
        {
          "internalType": "uint256",
          "name": "tokenId",
          "type": "uint256"
        }
      ],
      "name": "ERC721InsufficientApproval",
      "type": "error"
    },
    {
      "inputs": [
        {
          "internalType": "address",
          "name": "approver",
          "type": "address"
        }
      ],
      "name": "ERC721InvalidApprover",
      "type": "error"
    },
    {
      "inputs": [
        {
          "internalType": "address",
          "name": "operator",
          "type": "address"
        }
      ],
      "name": "ERC721InvalidOperator",
      "type": "error"
    },
    {
      "inputs": [
        {
          "internalType": "address",
          "name": "owner",
          "type": "address"
        }
      ],
      "name": "ERC721InvalidOwner",
      "type": "error"
    },
    {
      "inputs": [
        {
          "internalType": "address",
          "name": "receiver",
          "type": "address"
        }
      ],
      "name": "ERC721InvalidReceiver",
      "type": "error"
    },
    {
      "inputs": [
        {
          "internalType": "address",
          "name": "sender",
          "type": "address"
        }
      ],
      "name": "ERC721InvalidSender",
      "type": "error"
    },
    {
      "inputs": [
        {
          "internalType": "uint256",
          "name": "tokenId",
          "type": "uint256"
        }
      ],
      "name": "ERC721NonexistentToken",
      "type": "error"
    },
    {
      "anonymous": false,
      "inputs": [
        {
          "indexed": true,
          "internalType": "address",
          "name": "owner",
          "type": "address"
        },
        {
          "indexed": true,
          "internalType": "address",
          "name": "approved",
          "type": "address"
        },
        {
          "indexed": true,
          "internalType": "uint256",
          "name": "tokenId",
          "type": "uint256"
        }
      ],
      "name": "Approval",
      "type": "event"
    },
    {
      "anonymous": false,
      "inputs": [
        {
          "indexed": true,
          "internalType": "address",
          "name": "owner",
          "type": "address"
        },
        {
          "indexed": true,
          "internalType": "address",
          "name": "operator",
          "type": "address"
        },
        {
          "indexed": false,
          "internalType": "bool",
          "name": "approved",
          "type": "bool"
        }
      ],
      "name": "ApprovalForAll",
      "type": "event"
    },
    {
      "anonymous": false,
      "inputs": [
        {
          "indexed": true,
          "internalType": "address",
          "name": "from",
          "type": "address"
        },
        {
          "indexed": true,
          "internalType": "address",
          "name": "to",
          "type": "address"
        },
        {
          "indexed": true,
          "internalType": "uint256",
          "name": "tokenId",
          "type": "uint256"
        }
      ],
      "name": "Transfer",
      "type": "event"
    },
    {
      "inputs": [
        {
          "internalType": "address",
          "name": "to",
          "type": "address"
        },
        {
          "internalType": "uint256",
          "name": "tokenId",
          "type": "uint256"
        }
      ],
      "name": "approve",
      "outputs": [],
      "stateMutability": "nonpayable",
      "type": "function"
    },
    {
      "inputs": [
        {
          "internalType": "address",
          "name": "owner",
          "type": "address"
        }
      ],
      "name": "balanceOf",
      "outputs": [
        {
          "internalType": "uint256",
          "name": "",
          "type": "uint256"
        }
      ],
      "stateMutability": "view",
      "type": "function"
    },
    {
      "inputs": [
        {
          "internalType": "uint256",
          "name": "tokenId",
          "type": "uint256"
        }
      ],
      "name": "getApproved",
      "outputs": [
        {
          "internalType": "address",
          "name": "",
          "type": "address"
        }
      ],
      "stateMutability": "view",
      "type": "function"
    },
    {
      "inputs": [
        {
          "internalType": "address",
          "name": "owner",
          "type": "address"
        },
        {
          "internalType": "address",
          "name": "operator",
          "type": "address"
        }
      ],
      "name": "isApprovedForAll",
      "outputs": [
        {
          "internalType": "bool",
          "name": "",
          "type": "bool"
        }
      ],
      "stateMutability": "view",
      "type": "function"
    },
    {
      "inputs": [],
      "name": "mint",
      "outputs": [],
      "stateMutability": "nonpayable",
      "type": "function"
    },
    {
      "inputs": [],
      "name": "name",
      "outputs": [
        {
          "internalType": "string",
          "name": "",
          "type": "string"
        }
      ],
      "stateMutability": "view",
      "type": "function"
    },
    {
      "inputs": [
        {
          "internalType": "uint256",
          "name": "tokenId",
          "type": "uint256"
        }
      ],
      "name": "ownerOf",
      "outputs": [
        {
          "internalType": "address",
          "name": "",
          "type": "address"
        }
      ],
      "stateMutability": "view",
      "type": "function"
    },
    {
      "inputs": [
        {
          "internalType": "address",
          "name": "from",
          "type": "address"
        },
        {
          "internalType": "address",
          "name": "to",
          "type": "address"
        },
        {
          "internalType": "uint256",
          "name": "tokenId",
          "type": "uint256"
        }
      ],
      "name": "safeTransferFrom",
      "outputs": [],
      "stateMutability": "nonpayable",
      "type": "function"
    },
    {
      "inputs": [
        {
          "internalType": "address",
          "name": "from",
          "type": "address"
        },
        {
          "internalType": "address",
          "name": "to",
          "type": "address"
        },
        {
          "internalType": "uint256",
          "name": "tokenId",
          "type": "uint256"
        },
        {
          "internalType": "bytes",
          "name": "data",
          "type": "bytes"
        }
      ],
      "name": "safeTransferFrom",
      "outputs": [],
      "stateMutability": "nonpayable",
      "type": "function"
    },
    {
      "inputs": [
        {
          "internalType": "address",
          "name": "operator",
          "type": "address"
        },
        {
          "internalType": "bool",
          "name": "approved",
          "type": "bool"
        }
      ],
      "name": "setApprovalForAll",
      "outputs": [],
      "stateMutability": "nonpayable",
      "type": "function"
    },
    {
      "inputs": [
        {
          "internalType": "bytes4",
          "name": "interfaceId",
          "type": "bytes4"
        }
      ],
      "name": "supportsInterface",
      "outputs": [
        {
          "internalType": "bool",
          "name": "",
          "type": "bool"
        }
      ],
      "stateMutability": "view",
      "type": "function"
    },
    {
      "inputs": [],
      "name": "symbol",
      "outputs": [
        {
          "internalType": "string",
          "name": "",
          "type": "string"
        }
      ],
      "stateMutability": "view",
      "type": "function"
    },
    {
      "inputs": [
        {
          "internalType": "uint256",
          "name": "tokenId",
          "type": "uint256"
        }
      ],
      "name": "tokenURI",
      "outputs": [
        {
          "internalType": "string",
          "name": "",
          "type": "string"
        }
      ],
      "stateMutability": "view",
      "type": "function"
    },
    {
      "inputs": [],
      "name": "totalSupply",
      "outputs": [
        {
          "internalType": "uint256",
          "name": "",
          "type": "uint256"
        }
      ],
      "stateMutability": "view",
      "type": "function"
    },
    {
      "inputs": [
        {
          "internalType": "address",
          "name": "from",
          "type": "address"
        },
        {
          "internalType": "address",
          "name": "to",
          "type": "address"
        },
        {
          "internalType": "uint256",
          "name": "tokenId",
          "type": "uint256"
        }
      ],
      "name": "transferFrom",
      "outputs": [],
      "stateMutability": "nonpayable",
      "type": "function"
    }
  ],
  "bytecode": "0x60806040523480156200001157600080fd5b506040518060400160405280600d81526020017f46726565204d696e74204e4654000000000000000000000000000000000000008152506040518060400160405280600881526020017f467265654d696e7400000000000000000000000000000000000000000000000081525081600090816200008f919062000324565b508060019081620000a1919062000324565b5050506200040b565b600081519050919050565b7f4e487b7100000000000000000000000000000000000000000000000000000000600052604160045260246000fd5b7f4e487b7100000000000000000000000000000000000000000000000000000000600052602260045260246000fd5b600060028204905060018216806200012c57607f821691505b602082108103620001425762000141620000e4565b5b50919050565b60008190508160005260206000209050919050565b60006020601f8301049050919050565b600082821b905092915050565b600060088302620001ac7fffffffffffffffffffffffffffffffffffffffffffffffffffffffffffffffff826200016d565b620001b886836200016d565b95508019841693508086168417925050509392505050565b6000819050919050565b6000819050919050565b600062000205620001ff620001f984620001d0565b620001da565b620001d0565b9050919050565b6000819050919050565b6200022183620001e4565b6200023962000230826200020c565b8484546200017a565b825550505050565b600090565b6200025062000241565b6200025d81848462000216565b505050565b5b8181101562000285576200027960008262000246565b60018101905062000263565b5050565b601f821115620002d4576200029e8162000148565b620002a9846200015d565b81016020851015620002b9578190505b620002d1620002c8856200015d565b83018262000262565b50505b505050565b600082821c905092915050565b6000620002f960001984600802620002d9565b1980831691505092915050565b6000620003148383620002e6565b9150826002028217905092915050565b6200032f82620000aa565b67ffffffffffffffff8111156200034b576200034a620000b5565b5b62000357825462000113565b6200036482828562000289565b600060209050601f8311600181146200039c576000841562000387578287015190505b62000393858262000306565b86555062000403565b601f198416620003ac8662000148565b60005b82811015620003d657848901518255600182019150602085019450602081019050620003af565b86831015620003f65784890151620003f2601f891682620002e6565b8355505b6001600288020188555050505b505050505050565b611e66806200041b6000396000f3fe608060405234801561001057600080fd5b50600436106100f55760003560e01c806342842e0e11610097578063a22cb46511610066578063a22cb46514610272578063b88d4fde1461028e578063c87b56dd146102aa578063e985e9c5146102da576100f5565b806342842e0e146101d85780636352211e146101f457806370a082311461022457806395d89b4114610254576100f5565b8063095ea7b3116100d3578063095ea7b3146101785780631249c58b1461019457806318160ddd1461019e57806323b872dd146101bc576100f5565b806301ffc9a7146100fa57806306fdde031461012a578063081812fc14610148575b600080fd5b610114600480360381019061010f9190611639565b61030a565b6040516101219190611681565b60405180910390f35b6101326103ec565b60405161013f919061172c565b60405180910390f35b610162600480360381019061015d9190611784565b61047e565b60405161016f91906117f2565b60405180910390f35b610192600480360381019061018d9190611839565b61049a565b005b61019c6104b0565b005b6101a66104d6565b6040516101b39190611888565b60405180910390f35b6101d660048036038101906101d191906118a3565b6104dc565b005b6101f260048036038101906101ed91906118a3565b6105de565b005b61020e60048036038101906102099190611784565b6105fe565b60405161021b91906117f2565b60405180910390f35b61023e600480360381019061023991906118f6565b610610565b60405161024b9190611888565b60405180910390f35b61025c6106ca565b604051610269919061172c565b60405180910390f35b61028c6004803603810190610287919061194f565b61075c565b005b6102a860048036038101906102a39190611ac4565b610772565b005b6102c460048036038101906102bf9190611784565b61078f565b6040516102d1919061172c565b60405180910390f35b6102f460048036038101906102ef9190611b47565b6107f8565b6040516103019190611681565b60405180910390f35b60007f80ac58cd000000000000000000000000000000000000000000000000000000007bffffffffffffffffffffffffffffffffffffffffffffffffffffffff1916827bffffffffffffffffffffffffffffffffffffffffffffffffffffffff191614806103d557507f5b5e139f000000000000000000000000000000000000000000000000000000007bffffffffffffffffffffffffffffffffffffffffffffffffffffffff1916827bffffffffffffffffffffffffffffffffffffffffffffffffffffffff1916145b806103e557506103e48261088c565b5b9050919050565b6060600080546103fb90611bb6565b80601f016020809104026020016040519081016040528092919081815260200182805461042790611bb6565b80156104745780601f1061044957610100808354040283529160200191610474565b820191906000526020600020905b81548152906001019060200180831161045757829003601f168201915b5050505050905090565b6000610489826108f6565b506104938261097e565b9050919050565b6104ac82826104a76109bb565b6109c3565b5050565b6104bc336006546109d5565b600660008154809291906104cf90611c16565b9190505550565b60065481565b600073ffffffffffffffffffffffffffffffffffffffff168273ffffffffffffffffffffffffffffffffffffffff160361054e5760006040517f64a0ae9200000000000000000000000000000000000000000000000000000000815260040161054591906117f2565b60405180910390fd5b6000610562838361055d6109bb565b610ace565b90508373ffffffffffffffffffffffffffffffffffffffff168173ffffffffffffffffffffffffffffffffffffffff16146105d8578382826040517f64283d7b0000000000000000000000000000000000000000000000000000000081526004016105cf93929190611c5e565b60405180910390fd5b50505050565b6105f983838360405180602001604052806000815250610772565b505050565b6000610609826108f6565b9050919050565b60008073ffffffffffffffffffffffffffffffffffffffff168273ffffffffffffffffffffffffffffffffffffffff16036106835760006040517f89c62b6400000000000000000000000000000000000000000000000000000000815260040161067a91906117f2565b60405180910390fd5b600360008373ffffffffffffffffffffffffffffffffffffffff1673ffffffffffffffffffffffffffffffffffffffff168152602001908152602001600020549050919050565b6060600180546106d990611bb6565b80601f016020809104026020016040519081016040528092919081815260200182805461070590611bb6565b80156107525780601f1061072757610100808354040283529160200191610752565b820191906000526020600020905b81548152906001019060200180831161073557829003601f168201915b5050505050905090565b61076e6107676109bb565b8383610ce8565b5050565b61077d8484846104dc565b61078984848484610e57565b50505050565b606061079a826108f6565b5060006107a561100e565b905060008151116107c557604051806020016040528060008152506107f0565b806107cf84611025565b6040516020016107e0929190611cd1565b6040516020818303038152906040525b915050919050565b6000600560008473ffffffffffffffffffffffffffffffffffffffff1673ffffffffffffffffffffffffffffffffffffffff16815260200190815260200160002060008373ffffffffffffffffffffffffffffffffffffffff1673ffffffffffffffffffffffffffffffffffffffff16815260200190815260200160002060009054906101000a900460ff16905092915050565b60007f01ffc9a7000000000000000000000000000000000000000000000000000000007bffffffffffffffffffffffffffffffffffffffffffffffffffffffff1916827bffffffffffffffffffffffffffffffffffffffffffffffffffffffff1916149050919050565b600080610902836110f3565b9050600073ffffffffffffffffffffffffffffffffffffffff168173ffffffffffffffffffffffffffffffffffffffff160361097557826040517f7e27328900000000000000000000000000000000000000000000000000000000815260040161096c9190611888565b60405180910390fd5b80915050919050565b60006004600083815260200190815260200160002060009054906101000a900473ffffffffffffffffffffffffffffffffffffffff169050919050565b600033905090565b6109d08383836001611130565b505050565b600073ffffffffffffffffffffffffffffffffffffffff168273ffffffffffffffffffffffffffffffffffffffff1603610a475760006040517f64a0ae92000000000000000000000000000000000000000000000000000000008152600401610a3e91906117f2565b60405180910390fd5b6000610a5583836000610ace565b9050600073ffffffffffffffffffffffffffffffffffffffff168173ffffffffffffffffffffffffffffffffffffffff1614610ac95760006040517f73c6ac6e000000000000000000000000000000000000000000000000000000008152600401610ac091906117f2565b60405180910390fd5b505050565b600080610ada846110f3565b9050600073ffffffffffffffffffffffffffffffffffffffff168373ffffffffffffffffffffffffffffffffffffffff1614610b1c57610b1b8184866112f5565b5b600073ffffffffffffffffffffffffffffffffffffffff168173ffffffffffffffffffffffffffffffffffffffff1614610bad57610b5e600085600080611130565b6001600360008373ffffffffffffffffffffffffffffffffffffffff1673ffffffffffffffffffffffffffffffffffffffff168152602001908152602001600020600082825403925050819055505b600073ffffffffffffffffffffffffffffffffffffffff168573ffffffffffffffffffffffffffffffffffffffff1614610c30576001600360008773ffffffffffffffffffffffffffffffffffffffff1673ffffffffffffffffffffffffffffffffffffffff168152602001908152602001600020600082825401925050819055505b846002600086815260200190815260200160002060006101000a81548173ffffffffffffffffffffffffffffffffffffffff021916908373ffffffffffffffffffffffffffffffffffffffff160217905550838573ffffffffffffffffffffffffffffffffffffffff168273ffffffffffffffffffffffffffffffffffffffff167fddf252ad1be2c89b69c2b068fc378daa952ba7f163c4a11628f55a4df523b3ef60405160405180910390a4809150509392505050565b600073ffffffffffffffffffffffffffffffffffffffff168273ffffffffffffffffffffffffffffffffffffffff1603610d5957816040517f5b08ba18000000000000000000000000000000000000000000000000000000008152600401610d5091906117f2565b60405180910390fd5b80600560008573ffffffffffffffffffffffffffffffffffffffff1673ffffffffffffffffffffffffffffffffffffffff16815260200190815260200160002060008473ffffffffffffffffffffffffffffffffffffffff1673ffffffffffffffffffffffffffffffffffffffff16815260200190815260200160002060006101000a81548160ff0219169083151502179055508173ffffffffffffffffffffffffffffffffffffffff168373ffffffffffffffffffffffffffffffffffffffff167f17307eab39ab6107e8899845ad3d59bd9653f200f220920489ca2b5937696c3183604051610e4a9190611681565b60405180910390a3505050565b60008373ffffffffffffffffffffffffffffffffffffffff163b1115611008578273ffffffffffffffffffffffffffffffffffffffff1663150b7a02610e9b6109bb565b8685856040518563ffffffff1660e01b8152600401610ebd9493929190611d4a565b6020604051808303816000875af1925050508015610ef957506040513d601f19601f82011682018060405250810190610ef69190611dab565b60015b610f7d573d8060008114610f29576040519150601f19603f3d011682016040523d82523d6000602084013e610f2e565b606091505b506000815103610f7557836040517f64a0ae92000000000000000000000000000000000000000000000000000000008152600401610f6c91906117f2565b60405180910390fd5b805181602001fd5b63150b7a0260e01b7bffffffffffffffffffffffffffffffffffffffffffffffffffffffff1916817bffffffffffffffffffffffffffffffffffffffffffffffffffffffff19161461100657836040517f64a0ae92000000000000000000000000000000000000000000000000000000008152600401610ffd91906117f2565b60405180910390fd5b505b50505050565b606060405180602001604052806000815250905090565b606060006001611034846113b9565b01905060008167ffffffffffffffff81111561105357611052611999565b5b6040519080825280601f01601f1916602001820160405280156110855781602001600182028036833780820191505090505b509050600082602001820190505b6001156110e8578080600190039150507f3031323334353637383961626364656600000000000000000000000000000000600a86061a8153600a85816110dc576110db611dd8565b5b04945060008503611093575b819350505050919050565b60006002600083815260200190815260200160002060009054906101000a900473ffffffffffffffffffffffffffffffffffffffff169050919050565b80806111695750600073ffffffffffffffffffffffffffffffffffffffff168273ffffffffffffffffffffffffffffffffffffffff1614155b1561129d576000611179846108f6565b9050600073ffffffffffffffffffffffffffffffffffffffff168373ffffffffffffffffffffffffffffffffffffffff16141580156111e457508273ffffffffffffffffffffffffffffffffffffffff168173ffffffffffffffffffffffffffffffffffffffff1614155b80156111f757506111f581846107f8565b155b1561123957826040517fa9fbf51f00000000000000000000000000000000000000000000000000000000815260040161123091906117f2565b60405180910390fd5b811561129b57838573ffffffffffffffffffffffffffffffffffffffff168273ffffffffffffffffffffffffffffffffffffffff167f8c5be1e5ebec7d5bd14f71427d1e84f3dd0314c0f7b2291e5b200ac8c7c3b92560405160405180910390a45b505b836004600085815260200190815260200160002060006101000a81548173ffffffffffffffffffffffffffffffffffffffff021916908373ffffffffffffffffffffffffffffffffffffffff16021790555050505050565b61130083838361150c565b6113b457600073ffffffffffffffffffffffffffffffffffffffff168373ffffffffffffffffffffffffffffffffffffffff160361137557806040517f7e27328900000000000000000000000000000000000000000000000000000000815260040161136c9190611888565b60405180910390fd5b81816040517f177e802f0000000000000000000000000000000000000000000000000000000081526004016113ab929190611e07565b60405180910390fd5b505050565b600080600090507a184f03e93ff9f4daa797ed6e38ed64bf6a1f0100000000000000008310611417577a184f03e93ff9f4daa797ed6e38ed64bf6a1f010000000000000000838161140d5761140c611dd8565b5b0492506040810190505b6d04ee2d6d415b85acef81000000008310611454576d04ee2d6d415b85acef8100000000838161144a57611449611dd8565b5b0492506020810190505b662386f26fc10000831061148357662386f26fc10000838161147957611478611dd8565b5b0492506010810190505b6305f5e10083106114ac576305f5e10083816114a2576114a1611dd8565b5b0492506008810190505b61271083106114d15761271083816114c7576114c6611dd8565b5b0492506004810190505b606483106114f457606483816114ea576114e9611dd8565b5b0492506002810190505b600a8310611503576001810190505b80915050919050565b60008073ffffffffffffffffffffffffffffffffffffffff168373ffffffffffffffffffffffffffffffffffffffff16141580156115c457508273ffffffffffffffffffffffffffffffffffffffff168473ffffffffffffffffffffffffffffffffffffffff161480611585575061158484846107f8565b5b806115c357508273ffffffffffffffffffffffffffffffffffffffff166115ab8361097e565b73ffffffffffffffffffffffffffffffffffffffff16145b5b90509392505050565b6000604051905090565b600080fd5b600080fd5b60007fffffffff0000000000000000000000000000000000000000000000000000000082169050919050565b611616816115e1565b811461162157600080fd5b50565b6000813590506116338161160d565b92915050565b60006020828403121561164f5761164e6115d7565b5b600061165d84828501611624565b91505092915050565b60008115159050919050565b61167b81611666565b82525050565b60006020820190506116966000830184611672565b92915050565b600081519050919050565b600082825260208201905092915050565b60005b838110156116d65780820151818401526020810190506116bb565b60008484015250505050565b6000601f19601f8301169050919050565b60006116fe8261169c565b61170881856116a7565b93506117188185602086016116b8565b611721816116e2565b840191505092915050565b6000602082019050818103600083015261174681846116f3565b905092915050565b6000819050919050565b6117618161174e565b811461176c57600080fd5b50565b60008135905061177e81611758565b92915050565b60006020828403121561179a576117996115d7565b5b60006117a88482850161176f565b91505092915050565b600073ffffffffffffffffffffffffffffffffffffffff82169050919050565b60006117dc826117b1565b9050919050565b6117ec816117d1565b82525050565b600060208201905061180760008301846117e3565b92915050565b611816816117d1565b811461182157600080fd5b50565b6000813590506118338161180d565b92915050565b600080604083850312156118505761184f6115d7565b5b600061185e85828601611824565b925050602061186f8582860161176f565b9150509250929050565b6118828161174e565b82525050565b600060208201905061189d6000830184611879565b92915050565b6000806000606084860312156118bc576118bb6115d7565b5b60006118ca86828701611824565b93505060206118db86828701611824565b92505060406118ec8682870161176f565b9150509250925092565b60006020828403121561190c5761190b6115d7565b5b600061191a84828501611824565b91505092915050565b61192c81611666565b811461193757600080fd5b50565b60008135905061194981611923565b92915050565b60008060408385031215611966576119656115d7565b5b600061197485828601611824565b92505060206119858582860161193a565b9150509250929050565b600080fd5b600080fd5b7f4e487b7100000000000000000000000000000000000000000000000000000000600052604160045260246000fd5b6119d1826116e2565b810181811067ffffffffffffffff821117156119f0576119ef611999565b5b80604052505050565b6000611a036115cd565b9050611a0f82826119c8565b919050565b600067ffffffffffffffff821115611a2f57611a2e611999565b5b611a38826116e2565b9050602081019050919050565b82818337600083830152505050565b6000611a67611a6284611a14565b6119f9565b905082815260208101848484011115611a8357611a82611994565b5b611a8e848285611a45565b509392505050565b600082601f830112611aab57611aaa61198f565b5b8135611abb848260208601611a54565b91505092915050565b60008060008060808587031215611ade57611add6115d7565b5b6000611aec87828801611824565b9450506020611afd87828801611824565b9350506040611b0e8782880161176f565b925050606085013567ffffffffffffffff811115611b2f57611b2e6115dc565b5b611b3b87828801611a96565b91505092959194509250565b60008060408385031215611b5e57611b5d6115d7565b5b6000611b6c85828601611824565b9250506020611b7d85828601611824565b9150509250929050565b7f4e487b7100000000000000000000000000000000000000000000000000000000600052602260045260246000fd5b60006002820490506001821680611bce57607f821691505b602082108103611be157611be0611b87565b5b50919050565b7f4e487b7100000000000000000000000000000000000000000000000000000000600052601160045260246000fd5b6000611c218261174e565b91507fffffffffffffffffffffffffffffffffffffffffffffffffffffffffffffffff8203611c5357611c52611be7565b5b600182019050919050565b6000606082019050611c7360008301866117e3565b611c806020830185611879565b611c8d60408301846117e3565b949350505050565b600081905092915050565b6000611cab8261169c565b611cb58185611c95565b9350611cc58185602086016116b8565b80840191505092915050565b6000611cdd8285611ca0565b9150611ce98284611ca0565b91508190509392505050565b600081519050919050565b600082825260208201905092915050565b6000611d1c82611cf5565b611d268185611d00565b9350611d368185602086016116b8565b611d3f816116e2565b840191505092915050565b6000608082019050611d5f60008301876117e3565b611d6c60208301866117e3565b611d796040830185611879565b8181036060830152611d8b8184611d11565b905095945050505050565b600081519050611da58161160d565b92915050565b600060208284031215611dc157611dc06115d7565b5b6000611dcf84828501611d96565b91505092915050565b7f4e487b7100000000000000000000000000000000000000000000000000000000600052601260045260246000fd5b6000604082019050611e1c60008301856117e3565b611e296020830184611879565b939250505056fea2646970667358221220e682a02e985a8d46670230e7c0bbcecdc942e1efbf5ab0dc1194a9ebc5aea4f764736f6c63430008180033",
  "linkReferences": {},
  "deployedLinkReferences": {}
}