{
  "_format": "hh-sol-artifact-1",
  "contractName": "CrowdFund",
  "sourceName": "contracts/CrowdFund.sol",
  "abi": [
    {
      "inputs": [
        {
          "internalType": "address",
          "name": "token_",
          "type": "address"
        }
      ],
      "stateMutability": "nonpayable",
      "type": "constructor"
    },
    {
      "anonymous": false,
      "inputs": [
        {
          "indexed": false,
          "internalType": "uint256",
          "name": "id",
          "type": "uint256"
        }
      ],
      "name": "Cancel",
      "type": "event"
    },
    {
      "anonymous": false,
      "inputs": [
        {
          "indexed": false,
          "internalType": "uint256",
          "name": "id",
          "type": "uint256"
        }
      ],
      "name": "Claim",
      "type": "event"
    },
    {
      "anonymous": false,
      "inputs": [
        {
          "indexed": false,
          "internalType": "uint256",
          "name": "id",
          "type": "uint256"
        },
        {
          "indexed": true,
          "internalType": "address",
          "name": "creator",
          "type": "address"
        },
        {
          "indexed": false,
          "internalType": "uint256",
          "name": "goal",
          "type": "uint256"
        },
        {
          "indexed": false,
          "internalType": "uint32",
          "name": "startAt",
          "type": "uint32"
        },
        {
          "indexed": false,
          "internalType": "uint32",
          "name": "endAt",
          "type": "uint32"
        }
      ],
      "name": "Launch",
      "type": "event"
    },
    {
      "anonymous": false,
      "inputs": [
        {
          "indexed": true,
          "internalType": "uint256",
          "name": "id",
          "type": "uint256"
        },
        {
          "indexed": true,
          "internalType": "address",
          "name": "caller",
          "type": "address"
        },
        {
          "indexed": false,
          "internalType": "uint256",
          "name": "amount",
          "type": "uint256"
        }
      ],
      "name": "Pledge",
      "type": "event"
    },
    {
      "anonymous": false,
      "inputs": [
        {
          "indexed": true,
          "internalType": "uint256",
          "name": "id",
          "type": "uint256"
        },
        {
          "indexed": true,
          "internalType": "address",
          "name": "caller",
          "type": "address"
        },
        {
          "indexed": false,
          "internalType": "uint256",
          "name": "amount",
          "type": "uint256"
        }
      ],
      "name": "Refund",
      "type": "event"
    },
    {
      "anonymous": false,
      "inputs": [
        {
          "indexed": true,
          "internalType": "uint256",
          "name": "id",
          "type": "uint256"
        },
        {
          "indexed": true,
          "internalType": "address",
          "name": "caller",
          "type": "address"
        },
        {
          "indexed": false,
          "internalType": "uint256",
          "name": "amount",
          "type": "uint256"
        }
      ],
      "name": "Unpledge",
      "type": "event"
    },
    {
      "inputs": [
        {
          "internalType": "uint256",
          "name": "",
          "type": "uint256"
        }
      ],
      "name": "campaigns",
      "outputs": [
        {
          "internalType": "address",
          "name": "creator",
          "type": "address"
        },
        {
          "internalType": "uint256",
          "name": "goal",
          "type": "uint256"
        },
        {
          "internalType": "uint32",
          "name": "startAt",
          "type": "uint32"
        },
        {
          "internalType": "uint32",
          "name": "endAt",
          "type": "uint32"
        },
        {
          "internalType": "bool",
          "name": "claimed",
          "type": "bool"
        },
        {
          "internalType": "uint256",
          "name": "pledged",
          "type": "uint256"
        }
      ],
      "stateMutability": "view",
      "type": "function"
    },
    {
      "inputs": [
        {
          "internalType": "uint256",
          "name": "id_",
          "type": "uint256"
        }
      ],
      "name": "cancel",
      "outputs": [],
      "stateMutability": "nonpayable",
      "type": "function"
    },
    {
      "inputs": [
        {
          "internalType": "uint256",
          "name": "id_",
          "type": "uint256"
        }
      ],
      "name": "claim",
      "outputs": [],
      "stateMutability": "nonpayable",
      "type": "function"
    },
    {
      "inputs": [],
      "name": "count",
      "outputs": [
        {
          "internalType": "uint256",
          "name": "",
          "type": "uint256"
        }
      ],
      "stateMutability": "view",
      "type": "function"
    },
    {
      "inputs": [
        {
          "internalType": "uint256",
          "name": "goal_",
          "type": "uint256"
        },
        {
          "internalType": "uint32",
          "name": "startAt_",
          "type": "uint32"
        },
        {
          "internalType": "uint32",
          "name": "endAt_",
          "type": "uint32"
        }
      ],
      "name": "launch",
      "outputs": [],
      "stateMutability": "nonpayable",
      "type": "function"
    },
    {
      "inputs": [
        {
          "internalType": "uint256",
          "name": "id_",
          "type": "uint256"
        },
        {
          "internalType": "uint256",
          "name": "amount_",
          "type": "uint256"
        }
      ],
      "name": "pledge",
      "outputs": [],
      "stateMutability": "nonpayable",
      "type": "function"
    },
    {
      "inputs": [
        {
          "internalType": "uint256",
          "name": "",
          "type": "uint256"
        },
        {
          "internalType": "address",
          "name": "",
          "type": "address"
        }
      ],
      "name": "pledgedAccount",
      "outputs": [
        {
          "internalType": "uint256",
          "name": "",
          "type": "uint256"
        }
      ],
      "stateMutability": "view",
      "type": "function"
    },
    {
      "inputs": [
        {
          "internalType": "uint256",
          "name": "id_",
          "type": "uint256"
        }
      ],
      "name": "refund",
      "outputs": [],
      "stateMutability": "nonpayable",
      "type": "function"
    },
    {
      "inputs": [],
      "name": "token",
      "outputs": [
        {
          "internalType": "contract IERC20",
          "name": "",
          "type": "address"
        }
      ],
      "stateMutability": "view",
      "type": "function"
    },
    {
      "inputs": [
        {
          "internalType": "uint256",
          "name": "id_",
          "type": "uint256"
        },
        {
          "internalType": "uint256",
          "name": "amount_",
          "type": "uint256"
        }
      ],
      "name": "unpledge",
      "outputs": [],
      "stateMutability": "nonpayable",
      "type": "function"
    }
  ],
  "bytecode": "0x60a06040523480156200001157600080fd5b50604051620020f4380380620020f48339818101604052810190620000379190620000dc565b8073ffffffffffffffffffffffffffffffffffffffff1660808173ffffffffffffffffffffffffffffffffffffffff1681525050506200010e565b600080fd5b600073ffffffffffffffffffffffffffffffffffffffff82169050919050565b6000620000a48262000077565b9050919050565b620000b68162000097565b8114620000c257600080fd5b50565b600081519050620000d681620000ab565b92915050565b600060208284031215620000f557620000f462000072565b5b60006200010584828501620000c5565b91505092915050565b608051611fae62000146600039600081816103e60152818161097f01528181610e4401528181610f5c01526111290152611fae6000f3fe608060405234801561001057600080fd5b506004361061009e5760003560e01c806340e58ee51161006657806340e58ee51461014a578063711853ab146101665780638eeb6fa114610182578063fc0c546a146101b2578063fde327be146101d05761009e565b806306661abd146100a3578063141961bc146100c1578063278ecde1146100f65780632c63f14614610112578063379607f51461012e575b600080fd5b6100ab6101ec565b6040516100b891906113c6565b60405180910390f35b6100db60048036038101906100d69190611412565b6101f2565b6040516100ed969594939291906114ba565b60405180910390f35b610110600480360381019061010b9190611412565b61027b565b005b61012c60048036038101906101279190611547565b6104d7565b005b61014860048036038101906101439190611412565b6107be565b005b610164600480360381019061015f9190611412565b610a5b565b005b610180600480360381019061017b919061159a565b610cbb565b005b61019c60048036038101906101979190611606565b610f35565b6040516101a991906113c6565b60405180910390f35b6101ba610f5a565b6040516101c791906116a5565b60405180910390f35b6101ea60048036038101906101e5919061159a565b610f7e565b005b60015481565b60006020528060005260406000206000915090508060000160009054906101000a900473ffffffffffffffffffffffffffffffffffffffff16908060010154908060020160009054906101000a900463ffffffff16908060020160049054906101000a900463ffffffff16908060020160089054906101000a900460ff16908060030154905086565b600080600083815260200190815260200160002090508060020160049054906101000a900463ffffffff1663ffffffff164210156102ee576040517f08c379a00000000000000000000000000000000000000000000000000000000081526004016102e59061171d565b60405180910390fd5b806001015481600301541015610339576040517f08c379a000000000000000000000000000000000000000000000000000000000815260040161033090611789565b60405180910390fd5b60006002600084815260200190815260200160002060003373ffffffffffffffffffffffffffffffffffffffff1673ffffffffffffffffffffffffffffffffffffffff16815260200190815260200160002054905060006002600085815260200190815260200160002060003373ffffffffffffffffffffffffffffffffffffffff1673ffffffffffffffffffffffffffffffffffffffff168152602001908152602001600020819055507f000000000000000000000000000000000000000000000000000000000000000073ffffffffffffffffffffffffffffffffffffffff1663a9059cbb33836040518363ffffffff1660e01b815260040161043f9291906117a9565b6020604051808303816000875af115801561045e573d6000803e3d6000fd5b505050506040513d601f19601f8201168201806040525081019061048291906117fe565b503373ffffffffffffffffffffffffffffffffffffffff16837f21e12a7cad0da5928167e1084ea4d5fdf8d9af66657a2543a9ac76a0ca081477836040516104ca91906113c6565b60405180910390a3505050565b6105236040518060400160405280601981526020017f6c61756e63682073746172743a2025732c20656e643a202573000000000000008152508363ffffffff168363ffffffff1661121c565b8163ffffffff1642111561056c576040517f08c379a000000000000000000000000000000000000000000000000000000000815260040161056390611877565b60405180910390fd5b8063ffffffff168263ffffffff16106105ba576040517f08c379a00000000000000000000000000000000000000000000000000000000081526004016105b1906118e3565b60405180910390fd5b6276a700826105c99190611932565b63ffffffff168163ffffffff161115610617576040517f08c379a000000000000000000000000000000000000000000000000000000000815260040161060e906119b6565b60405180910390fd5b600180600082825461062991906119d6565b925050819055506040518060c001604052803373ffffffffffffffffffffffffffffffffffffffff1681526020018481526020018363ffffffff1681526020018263ffffffff1681526020016000151581526020016000815250600080600154815260200190815260200160002060008201518160000160006101000a81548173ffffffffffffffffffffffffffffffffffffffff021916908373ffffffffffffffffffffffffffffffffffffffff1602179055506020820151816001015560408201518160020160006101000a81548163ffffffff021916908363ffffffff16021790555060608201518160020160046101000a81548163ffffffff021916908363ffffffff16021790555060808201518160020160086101000a81548160ff02191690831515021790555060a082015181600301559050503373ffffffffffffffffffffffffffffffffffffffff167f0601cd0d650b473037e838a2696d41e654433d065b3f56b28d1d3302e44a304f6001548585856040516107b19493929190611a0a565b60405180910390a2505050565b600080600083815260200190815260200160002090508060000160009054906101000a900473ffffffffffffffffffffffffffffffffffffffff1673ffffffffffffffffffffffffffffffffffffffff163373ffffffffffffffffffffffffffffffffffffffff1614610866576040517f08c379a000000000000000000000000000000000000000000000000000000000815260040161085d90611a9b565b60405180910390fd5b8060020160049054906101000a900463ffffffff1663ffffffff164210156108c3576040517f08c379a00000000000000000000000000000000000000000000000000000000081526004016108ba9061171d565b60405180910390fd5b80600101548160030154101561090e576040517f08c379a000000000000000000000000000000000000000000000000000000000815260040161090590611789565b60405180910390fd5b8060020160089054906101000a900460ff1615610960576040517f08c379a000000000000000000000000000000000000000000000000000000000815260040161095790611b07565b60405180910390fd5b60018160020160086101000a81548160ff0219169083151502179055507f000000000000000000000000000000000000000000000000000000000000000073ffffffffffffffffffffffffffffffffffffffff1663a9059cbb3383600101546040518363ffffffff1660e01b81526004016109dc9291906117a9565b6020604051808303816000875af11580156109fb573d6000803e3d6000fd5b505050506040513d601f19601f82011682018060405250810190610a1f91906117fe565b507f7bb2b3c10797baccb6f8c4791f1edd6ca2f0d028ee0eda64b01a9a57e3a653f782604051610a4f91906113c6565b60405180910390a15050565b60008060008381526020019081526020016000209050600073ffffffffffffffffffffffffffffffffffffffff168160000160009054906101000a900473ffffffffffffffffffffffffffffffffffffffff1673ffffffffffffffffffffffffffffffffffffffff1603610b04576040517f08c379a0000000000000000000000000000000000000000000000000000000008152600401610afb90611b73565b60405180910390fd5b428160020160009054906101000a900463ffffffff1663ffffffff1610610b60576040517f08c379a0000000000000000000000000000000000000000000000000000000008152600401610b5790611bdf565b60405180910390fd5b3373ffffffffffffffffffffffffffffffffffffffff168160000160009054906101000a900473ffffffffffffffffffffffffffffffffffffffff1673ffffffffffffffffffffffffffffffffffffffff1614610bf2576040517f08c379a0000000000000000000000000000000000000000000000000000000008152600401610be990611c4b565b60405180910390fd5b600080838152602001908152602001600020600080820160006101000a81549073ffffffffffffffffffffffffffffffffffffffff021916905560018201600090556002820160006101000a81549063ffffffff02191690556002820160046101000a81549063ffffffff02191690556002820160086101000a81549060ff0219169055600382016000905550507f8bf30e7ff26833413be5f69e1d373744864d600b664204b4a2f9844a8eedb9ed82604051610caf91906113c6565b60405180910390a15050565b600080600084815260200190815260200160002090508060020160049054906101000a900463ffffffff1663ffffffff164210610d2d576040517f08c379a0000000000000000000000000000000000000000000000000000000008152600401610d2490611cb7565b60405180910390fd5b816002600085815260200190815260200160002060003373ffffffffffffffffffffffffffffffffffffffff1673ffffffffffffffffffffffffffffffffffffffff168152602001908152602001600020541015610dc0576040517f08c379a0000000000000000000000000000000000000000000000000000000008152600401610db790611d23565b60405180910390fd5b81816003016000828254610dd49190611d43565b92505081905550816002600085815260200190815260200160002060003373ffffffffffffffffffffffffffffffffffffffff1673ffffffffffffffffffffffffffffffffffffffff1681526020019081526020016000206000828254610e3b9190611d43565b925050819055507f000000000000000000000000000000000000000000000000000000000000000073ffffffffffffffffffffffffffffffffffffffff1663a9059cbb33846040518363ffffffff1660e01b8152600401610e9d9291906117a9565b6020604051808303816000875af1158015610ebc573d6000803e3d6000fd5b505050506040513d601f19601f82011682018060405250810190610ee091906117fe565b503373ffffffffffffffffffffffffffffffffffffffff16837f2eeeab891b26a214d1b25749f88a406bdea852bd8c9bfda977e0ef8114c180ba84604051610f2891906113c6565b60405180910390a3505050565b6002602052816000526040600020602052806000526040600020600091509150505481565b7f000000000000000000000000000000000000000000000000000000000000000081565b60008060008481526020019081526020016000209050610fec604051806060016040528060268152602001611f5360269139428360020160009054906101000a900463ffffffff1663ffffffff168460020160049054906101000a900463ffffffff1663ffffffff166112bb565b8060020160009054906101000a900463ffffffff1663ffffffff16421015611049576040517f08c379a000000000000000000000000000000000000000000000000000000000815260040161104090611dc3565b60405180910390fd5b8060020160049054906101000a900463ffffffff1663ffffffff1642106110a5576040517f08c379a000000000000000000000000000000000000000000000000000000000815260040161109c90611cb7565b60405180910390fd5b818160030160008282546110b991906119d6565b92505081905550816002600085815260200190815260200160002060003373ffffffffffffffffffffffffffffffffffffffff1673ffffffffffffffffffffffffffffffffffffffff168152602001908152602001600020600082825461112091906119d6565b925050819055507f000000000000000000000000000000000000000000000000000000000000000073ffffffffffffffffffffffffffffffffffffffff166323b872dd3330856040518463ffffffff1660e01b815260040161118493929190611de3565b6020604051808303816000875af11580156111a3573d6000803e3d6000fd5b505050506040513d601f19601f820116820180604052508101906111c791906117fe565b503373ffffffffffffffffffffffffffffffffffffffff16837f06bdb975df800a73232998e71ed585d536222f1dfeaa622d7f62a23ada686c828460405161120f91906113c6565b60405180910390a3505050565b6112b683838360405160240161123493929190611e99565b6040516020818303038152906040527fca47c4eb000000000000000000000000000000000000000000000000000000007bffffffffffffffffffffffffffffffffffffffffffffffffffffffff19166020820180517bffffffffffffffffffffffffffffffffffffffffffffffffffffffff838183161783525050505061135d565b505050565b611357848484846040516024016112d59493929190611ed7565b6040516020818303038152906040527fa7a87853000000000000000000000000000000000000000000000000000000007bffffffffffffffffffffffffffffffffffffffffffffffffffffffff19166020820180517bffffffffffffffffffffffffffffffffffffffffffffffffffffffff838183161783525050505061135d565b50505050565b6113748161136c611377611398565b63ffffffff16565b50565b60006a636f6e736f6c652e6c6f679050600080835160208501845afa505050565b6113a3819050919050565b6113ab611f23565b565b6000819050919050565b6113c0816113ad565b82525050565b60006020820190506113db60008301846113b7565b92915050565b600080fd5b6113ef816113ad565b81146113fa57600080fd5b50565b60008135905061140c816113e6565b92915050565b600060208284031215611428576114276113e1565b5b6000611436848285016113fd565b91505092915050565b600073ffffffffffffffffffffffffffffffffffffffff82169050919050565b600061146a8261143f565b9050919050565b61147a8161145f565b82525050565b600063ffffffff82169050919050565b61149981611480565b82525050565b60008115159050919050565b6114b48161149f565b82525050565b600060c0820190506114cf6000830189611471565b6114dc60208301886113b7565b6114e96040830187611490565b6114f66060830186611490565b61150360808301856114ab565b61151060a08301846113b7565b979650505050505050565b61152481611480565b811461152f57600080fd5b50565b6000813590506115418161151b565b92915050565b6000806000606084860312156115605761155f6113e1565b5b600061156e868287016113fd565b935050602061157f86828701611532565b925050604061159086828701611532565b9150509250925092565b600080604083850312156115b1576115b06113e1565b5b60006115bf858286016113fd565b92505060206115d0858286016113fd565b9150509250929050565b6115e38161145f565b81146115ee57600080fd5b50565b600081359050611600816115da565b92915050565b6000806040838503121561161d5761161c6113e1565b5b600061162b858286016113fd565b925050602061163c858286016115f1565b9150509250929050565b6000819050919050565b600061166b6116666116618461143f565b611646565b61143f565b9050919050565b600061167d82611650565b9050919050565b600061168f82611672565b9050919050565b61169f81611684565b82525050565b60006020820190506116ba6000830184611696565b92915050565b600082825260208201905092915050565b7f6e6f7420656e7400000000000000000000000000000000000000000000000000600082015250565b60006117076007836116c0565b9150611712826116d1565b602082019050919050565b60006020820190508181036000830152611736816116fa565b9050919050565b7f706c65646765203c20676f616c00000000000000000000000000000000000000600082015250565b6000611773600d836116c0565b915061177e8261173d565b602082019050919050565b600060208201905081810360008301526117a281611766565b9050919050565b60006040820190506117be6000830185611471565b6117cb60208301846113b7565b9392505050565b6117db8161149f565b81146117e657600080fd5b50565b6000815190506117f8816117d2565b92915050565b600060208284031215611814576118136113e1565b5b6000611822848285016117e9565b91505092915050565b7f7374617274206174203c206e6f77000000000000000000000000000000000000600082015250565b6000611861600e836116c0565b915061186c8261182b565b602082019050919050565b6000602082019050818103600083015261189081611854565b9050919050565b7f7374617274203c20656e64000000000000000000000000000000000000000000600082015250565b60006118cd600b836116c0565b91506118d882611897565b602082019050919050565b600060208201905081810360008301526118fc816118c0565b9050919050565b7f4e487b7100000000000000000000000000000000000000000000000000000000600052601160045260246000fd5b600061193d82611480565b915061194883611480565b9250828201905063ffffffff81111561196457611963611903565b5b92915050565b7f6d6178206475726174696f6e0000000000000000000000000000000000000000600082015250565b60006119a0600c836116c0565b91506119ab8261196a565b602082019050919050565b600060208201905081810360008301526119cf81611993565b9050919050565b60006119e1826113ad565b91506119ec836113ad565b9250828201905080821115611a0457611a03611903565b5b92915050565b6000608082019050611a1f60008301876113b7565b611a2c60208301866113b7565b611a396040830185611490565b611a466060830184611490565b95945050505050565b7f6e6f742063726561746f72000000000000000000000000000000000000000000600082015250565b6000611a85600b836116c0565b9150611a9082611a4f565b602082019050919050565b60006020820190508181036000830152611ab481611a78565b9050919050565b7f636c61696d656400000000000000000000000000000000000000000000000000600082015250565b6000611af16007836116c0565b9150611afc82611abb565b602082019050919050565b60006020820190508181036000830152611b2081611ae4565b9050919050565b7f63616d706169676e206e6f742065786973740000000000000000000000000000600082015250565b6000611b5d6012836116c0565b9150611b6882611b27565b602082019050919050565b60006020820190508181036000830152611b8c81611b50565b9050919050565b7f7374617274656400000000000000000000000000000000000000000000000000600082015250565b6000611bc96007836116c0565b9150611bd482611b93565b602082019050919050565b60006020820190508181036000830152611bf881611bbc565b9050919050565b7f63726561746f72206f6e6c790000000000000000000000000000000000000000600082015250565b6000611c35600c836116c0565b9150611c4082611bff565b602082019050919050565b60006020820190508181036000830152611c6481611c28565b9050919050565b7f43616d706169676e20656e646564000000000000000000000000000000000000600082015250565b6000611ca1600e836116c0565b9150611cac82611c6b565b602082019050919050565b60006020820190508181036000830152611cd081611c94565b9050919050565b7f696e76616c696420616d6f756e74000000000000000000000000000000000000600082015250565b6000611d0d600e836116c0565b9150611d1882611cd7565b602082019050919050565b60006020820190508181036000830152611d3c81611d00565b9050919050565b6000611d4e826113ad565b9150611d59836113ad565b9250828203905081811115611d7157611d70611903565b5b92915050565b7f6e6f742073746172742079657400000000000000000000000000000000000000600082015250565b6000611dad600d836116c0565b9150611db882611d77565b602082019050919050565b60006020820190508181036000830152611ddc81611da0565b9050919050565b6000606082019050611df86000830186611471565b611e056020830185611471565b611e1260408301846113b7565b949350505050565b600081519050919050565b60005b83811015611e43578082015181840152602081019050611e28565b60008484015250505050565b6000601f19601f8301169050919050565b6000611e6b82611e1a565b611e7581856116c0565b9350611e85818560208601611e25565b611e8e81611e4f565b840191505092915050565b60006060820190508181036000830152611eb38186611e60565b9050611ec260208301856113b7565b611ecf60408301846113b7565b949350505050565b60006080820190508181036000830152611ef18187611e60565b9050611f0060208301866113b7565b611f0d60408301856113b7565b611f1a60608301846113b7565b95945050505050565b7f4e487b7100000000000000000000000000000000000000000000000000000000600052605160045260246000fdfe706c656467652061743a2025732c2063616d706169676e2072616e67653a202573202d202573a2646970667358221220d203b39f46b8278735909894642eb493edbda27efa7daba2090de5d2b8089fef64736f6c63430008180033",
  "linkReferences": {},
  "deployedLinkReferences": {}
}