{
  "_format": "hh-sol-artifact-1",
  "contractName": "LogicV1",
  "sourceName": "contracts/UnstructureProxy.sol",
  "abi": [
    {
      "inputs": [],
      "name": "count",
      "outputs": [
        {
          "internalType": "uint256",
          "name": "",
          "type": "uint256"
        }
      ],
      "stateMutability": "view",
      "type": "function"
    },
    {
      "inputs": [],
      "name": "inc",
      "outputs": [],
      "stateMutability": "nonpayable",
      "type": "function"
    }
  ],
  "bytecode": "0x608060405234801561001057600080fd5b50610151806100206000396000f3fe608060405234801561001057600080fd5b50600436106100365760003560e01c806306661abd1461003b578063371303c014610059575b600080fd5b610043610063565b604051610050919061009d565b60405180910390f35b610061610069565b005b60005481565b600160008082825461007b91906100e7565b92505081905550565b6000819050919050565b61009781610084565b82525050565b60006020820190506100b2600083018461008e565b92915050565b7f4e487b7100000000000000000000000000000000000000000000000000000000600052601160045260246000fd5b60006100f282610084565b91506100fd83610084565b9250828201905080821115610115576101146100b8565b5b9291505056fea26469706673582212207baceb76d2ba63e32f20de95952a959c04c161f1605e4a50294b5814cca5f90d64736f6c63430008180033",
  "linkReferences": {},
  "deployedLinkReferences": {}
}