{
  "_format": "hh-sol-artifact-1",
  "contractName": "LogicV2",
  "sourceName": "contracts/UnstructureProxy.sol",
  "abi": [
    {
      "inputs": [],
      "name": "count",
      "outputs": [
        {
          "internalType": "uint256",
          "name": "",
          "type": "uint256"
        }
      ],
      "stateMutability": "view",
      "type": "function"
    },
    {
      "inputs": [],
      "name": "dec",
      "outputs": [],
      "stateMutability": "nonpayable",
      "type": "function"
    },
    {
      "inputs": [],
      "name": "getAdmin",
      "outputs": [
        {
          "internalType": "address",
          "name": "",
          "type": "address"
        }
      ],
      "stateMutability": "pure",
      "type": "function"
    },
    {
      "inputs": [],
      "name": "getImplementation",
      "outputs": [
        {
          "internalType": "address",
          "name": "",
          "type": "address"
        }
      ],
      "stateMutability": "pure",
      "type": "function"
    },
    {
      "inputs": [],
      "name": "inc",
      "outputs": [],
      "stateMutability": "nonpayable",
      "type": "function"
    }
  ],
  "bytecode": "0x608060405234801561001057600080fd5b50610275806100206000396000f3fe608060405234801561001057600080fd5b50600436106100575760003560e01c806306661abd1461005c578063371303c01461007a5780636e9960c314610084578063aaf10f42146100a2578063b3bcfa82146100c0575b600080fd5b6100646100ca565b6040516100719190610131565b60405180910390f35b6100826100d0565b005b61008c6100eb565b604051610099919061018d565b60405180910390f35b6100aa6100f4565b6040516100b7919061018d565b60405180910390f35b6100c86100fd565b005b60005481565b60016000808282546100e291906101d7565b92505081905550565b60006001905090565b60006002905090565b600160008082825461010f919061020b565b92505081905550565b6000819050919050565b61012b81610118565b82525050565b60006020820190506101466000830184610122565b92915050565b600073ffffffffffffffffffffffffffffffffffffffff82169050919050565b60006101778261014c565b9050919050565b6101878161016c565b82525050565b60006020820190506101a2600083018461017e565b92915050565b7f4e487b7100000000000000000000000000000000000000000000000000000000600052601160045260246000fd5b60006101e282610118565b91506101ed83610118565b9250828201905080821115610205576102046101a8565b5b92915050565b600061021682610118565b915061022183610118565b9250828203905081811115610239576102386101a8565b5b9291505056fea26469706673582212206f9c57c171b8e82cb3d073d4ace289cb643702ee478eae8c36b0f139e65804d364736f6c63430008180033",
  "linkReferences": {},
  "deployedLinkReferences": {}
}