{
  "_format": "hh-sol-artifact-1",
  "contractName": "Proxy",
  "sourceName": "contracts/UnstructureProxy.sol",
  "abi": [
    {
      "inputs": [],
      "stateMutability": "nonpayable",
      "type": "constructor"
    },
    {
      "stateMutability": "nonpayable",
      "type": "fallback"
    },
    {
      "inputs": [],
      "name": "ADMIN_SLOT",
      "outputs": [
        {
          "internalType": "bytes32",
          "name": "",
          "type": "bytes32"
        }
      ],
      "stateMutability": "view",
      "type": "function"
    },
    {
      "inputs": [],
      "name": "IMPLEMENTATION_SLOT",
      "outputs": [
        {
          "internalType": "bytes32",
          "name": "",
          "type": "bytes32"
        }
      ],
      "stateMutability": "view",
      "type": "function"
    },
    {
      "inputs": [],
      "name": "admin",
      "outputs": [
        {
          "internalType": "address",
          "name": "",
          "type": "address"
        }
      ],
      "stateMutability": "nonpayable",
      "type": "function"
    },
    {
      "inputs": [
        {
          "internalType": "address",
          "name": "_admin",
          "type": "address"
        }
      ],
      "name": "changeAdmin",
      "outputs": [],
      "stateMutability": "nonpayable",
      "type": "function"
    },
    {
      "inputs": [],
      "name": "implementation",
      "outputs": [
        {
          "internalType": "address",
          "name": "",
          "type": "address"
        }
      ],
      "stateMutability": "nonpayable",
      "type": "function"
    },
    {
      "inputs": [
        {
          "internalType": "address",
          "name": "_implementation",
          "type": "address"
        }
      ],
      "name": "upgradeTo",
      "outputs": [],
      "stateMutability": "nonpayable",
      "type": "function"
    },
    {
      "stateMutability": "payable",
      "type": "receive"
    }
  ],
  "bytecode": "0x608060405234801561001057600080fd5b506100203361002560201b60201c565b61020e565b600073ffffffffffffffffffffffffffffffffffffffff168173ffffffffffffffffffffffffffffffffffffffff1603610094576040517f08c379a000000000000000000000000000000000000000000000000000000000815260040161008b90610181565b60405180910390fd5b806100d660017fb53127684a568b3173ae13b9f8a6016e243e63b6e8ee1178d6a717850b5d610460001c6100c891906101da565b60001b61011a60201b60201c565b60000160006101000a81548173ffffffffffffffffffffffffffffffffffffffff021916908373ffffffffffffffffffffffffffffffffffffffff16021790555050565b6000819050919050565b600082825260208201905092915050565b7f61646d696e203d20302061646472657373000000000000000000000000000000600082015250565b600061016b601183610124565b915061017682610135565b602082019050919050565b6000602082019050818103600083015261019a8161015e565b9050919050565b6000819050919050565b7f4e487b7100000000000000000000000000000000000000000000000000000000600052601160045260246000fd5b60006101e5826101a1565b91506101f0836101a1565b9250828203905081811115610208576102076101ab565b5b92915050565b6109648061021d6000396000f3fe6080604052600436106100595760003560e01c8063086fc0c71461007f5780633659cfe6146100aa5780635c60da1b146100d35780638f283970146100fe5780639c4b32be14610127578063f851a4401461015257610068565b366100685761006661017d565b005b34801561007457600080fd5b5061007d61017d565b005b34801561008b57600080fd5b5061009461018f565b6040516100a19190610671565b60405180910390f35b3480156100b657600080fd5b506100d160048036038101906100cc91906106ef565b6101c5565b005b3480156100df57600080fd5b506100e8610246565b6040516100f5919061072b565b60405180910390f35b34801561010a57600080fd5b50610125600480360381019061012091906106ef565b61029d565b005b34801561013357600080fd5b5061013c6102f1565b6040516101499190610671565b60405180910390f35b34801561015e57600080fd5b50610167610327565b604051610174919061072b565b60405180910390f35b61018d61018861037e565b6103e4565b565b60017f360894a13ba1a3210667c828492db98dca3e2076cc3735a920a3ca505d382bbd60001c6101bf919061077f565b60001b81565b6101cd61040a565b73ffffffffffffffffffffffffffffffffffffffff163373ffffffffffffffffffffffffffffffffffffffff161461023a576040517f08c379a000000000000000000000000000000000000000000000000000000000815260040161023190610810565b60405180910390fd5b61024381610470565b50565b600061025061040a565b73ffffffffffffffffffffffffffffffffffffffff163373ffffffffffffffffffffffffffffffffffffffff16036102915761028a61037e565b905061029a565b61029961017d565b5b90565b6102a561040a565b73ffffffffffffffffffffffffffffffffffffffff163373ffffffffffffffffffffffffffffffffffffffff16036102e5576102e08161055f565b6102ee565b6102ed61017d565b5b50565b60017fb53127684a568b3173ae13b9f8a6016e243e63b6e8ee1178d6a717850b5d610460001c610321919061077f565b60001b81565b600061033161040a565b73ffffffffffffffffffffffffffffffffffffffff163373ffffffffffffffffffffffffffffffffffffffff16036103725761036b61040a565b905061037b565b61037a61017d565b5b90565b60006103bb60017f360894a13ba1a3210667c828492db98dca3e2076cc3735a920a3ca505d382bbd60001c6103b3919061077f565b60001b61064e565b60000160009054906101000a900473ffffffffffffffffffffffffffffffffffffffff16905090565b3660008037600080366000845af43d6000803e8060008114610405573d6000f35b3d6000fd5b600061044760017fb53127684a568b3173ae13b9f8a6016e243e63b6e8ee1178d6a717850b5d610460001c61043f919061077f565b60001b61064e565b60000160009054906101000a900473ffffffffffffffffffffffffffffffffffffffff16905090565b600073ffffffffffffffffffffffffffffffffffffffff168173ffffffffffffffffffffffffffffffffffffffff16036104df576040517f08c379a00000000000000000000000000000000000000000000000000000000081526004016104d6906108a2565b60405180910390fd5b8061051b60017f360894a13ba1a3210667c828492db98dca3e2076cc3735a920a3ca505d382bbd60001c610513919061077f565b60001b61064e565b60000160006101000a81548173ffffffffffffffffffffffffffffffffffffffff021916908373ffffffffffffffffffffffffffffffffffffffff16021790555050565b600073ffffffffffffffffffffffffffffffffffffffff168173ffffffffffffffffffffffffffffffffffffffff16036105ce576040517f08c379a00000000000000000000000000000000000000000000000000000000081526004016105c59061090e565b60405180910390fd5b8061060a60017fb53127684a568b3173ae13b9f8a6016e243e63b6e8ee1178d6a717850b5d610460001c610602919061077f565b60001b61064e565b60000160006101000a81548173ffffffffffffffffffffffffffffffffffffffff021916908373ffffffffffffffffffffffffffffffffffffffff16021790555050565b6000819050919050565b6000819050919050565b61066b81610658565b82525050565b60006020820190506106866000830184610662565b92915050565b600080fd5b600073ffffffffffffffffffffffffffffffffffffffff82169050919050565b60006106bc82610691565b9050919050565b6106cc816106b1565b81146106d757600080fd5b50565b6000813590506106e9816106c3565b92915050565b6000602082840312156107055761070461068c565b5b6000610713848285016106da565b91505092915050565b610725816106b1565b82525050565b6000602082019050610740600083018461071c565b92915050565b6000819050919050565b7f4e487b7100000000000000000000000000000000000000000000000000000000600052601160045260246000fd5b600061078a82610746565b915061079583610746565b92508282039050818111156107ad576107ac610750565b5b92915050565b600082825260208201905092915050565b7f6e6f7420617574686f72697a6564000000000000000000000000000000000000600082015250565b60006107fa600e836107b3565b9150610805826107c4565b602082019050919050565b60006020820190508181036000830152610829816107ed565b9050919050565b7f5f696d706c656d656e746174696f6e206973206e6f74206120636f6e7472616360008201527f7400000000000000000000000000000000000000000000000000000000000000602082015250565b600061088c6021836107b3565b915061089782610830565b604082019050919050565b600060208201905081810360008301526108bb8161087f565b9050919050565b7f61646d696e203d20302061646472657373000000000000000000000000000000600082015250565b60006108f86011836107b3565b9150610903826108c2565b602082019050919050565b60006020820190508181036000830152610927816108eb565b905091905056fea26469706673582212203dbcca478aacb20abf35d201b5c5c68a58bc4b219efda6530facebd6d51bc4e264736f6c63430008180033",
  "linkReferences": {},
  "deployedLinkReferences": {}
}