{
  "_format": "hh-sol-artifact-1",
  "contractName": "TestSlot",
  "sourceName": "contracts/UnstructureProxy.sol",
  "abi": [
    {
      "inputs": [],
      "name": "SLOT",
      "outputs": [
        {
          "internalType": "bytes32",
          "name": "",
          "type": "bytes32"
        }
      ],
      "stateMutability": "view",
      "type": "function"
    },
    {
      "inputs": [],
      "name": "getSlot",
      "outputs": [
        {
          "internalType": "address",
          "name": "",
          "type": "address"
        }
      ],
      "stateMutability": "view",
      "type": "function"
    },
    {
      "inputs": [
        {
          "internalType": "address",
          "name": "_addr",
          "type": "address"
        }
      ],
      "name": "writeSlot",
      "outputs": [],
      "stateMutability": "nonpayable",
      "type": "function"
    }
  ],
  "bytecode": "0x608060405234801561001057600080fd5b506102b2806100206000396000f3fe608060405234801561001057600080fd5b50600436106100415760003560e01c80636c877c8414610046578063736e43cc1461006457806380dee78214610082575b600080fd5b61004e61009e565b60405161005b91906101cf565b60405180910390f35b61006c6100f2565b6040516100799190610203565b60405180910390f35b61009c6004803603810190610097919061024f565b610116565b005b60006100c97fa7cb26ea17989bb9c5eb391c94c40892dcdc94bb4c381353450910ba80883e1c610184565b60000160009054906101000a900473ffffffffffffffffffffffffffffffffffffffff16905090565b7fa7cb26ea17989bb9c5eb391c94c40892dcdc94bb4c381353450910ba80883e1c81565b806101407fa7cb26ea17989bb9c5eb391c94c40892dcdc94bb4c381353450910ba80883e1c610184565b60000160006101000a81548173ffffffffffffffffffffffffffffffffffffffff021916908373ffffffffffffffffffffffffffffffffffffffff16021790555050565b6000819050919050565b600073ffffffffffffffffffffffffffffffffffffffff82169050919050565b60006101b98261018e565b9050919050565b6101c9816101ae565b82525050565b60006020820190506101e460008301846101c0565b92915050565b6000819050919050565b6101fd816101ea565b82525050565b600060208201905061021860008301846101f4565b92915050565b600080fd5b61022c816101ae565b811461023757600080fd5b50565b60008135905061024981610223565b92915050565b6000602082840312156102655761026461021e565b5b60006102738482850161023a565b9150509291505056fea2646970667358221220edaa63ff1b5bd267627618c4e95e36af8e196992853ea8eb9ce558393535f30c64736f6c63430008180033",
  "linkReferences": {},
  "deployedLinkReferences": {}
}