{
  "_format": "hh-sol-artifact-1",
  "contractName": "UnstructuredProxy",
  "sourceName": "contracts/UnstructureProxy.sol",
  "abi": [
    {
      "inputs": [],
      "stateMutability": "nonpayable",
      "type": "constructor"
    },
    {
      "stateMutability": "nonpayable",
      "type": "fallback"
    },
    {
      "inputs": [],
      "name": "admin",
      "outputs": [
        {
          "internalType": "address",
          "name": "",
          "type": "address"
        }
      ],
      "stateMutability": "view",
      "type": "function"
    },
    {
      "inputs": [],
      "name": "logic",
      "outputs": [
        {
          "internalType": "address",
          "name": "impl",
          "type": "address"
        }
      ],
      "stateMutability": "view",
      "type": "function"
    },
    {
      "inputs": [
        {
          "internalType": "address",
          "name": "newLogic",
          "type": "address"
        }
      ],
      "name": "upgradeTo",
      "outputs": [],
      "stateMutability": "nonpayable",
      "type": "function"
    }
  ],
  "bytecode": "0x608060405234801561001057600080fd5b50336000806101000a81548173ffffffffffffffffffffffffffffffffffffffff021916908373ffffffffffffffffffffffffffffffffffffffff16021790555061035b806100606000396000f3fe608060405234801561001057600080fd5b50600436106100455760003560e01c80633659cfe614610058578063d7dfa0dd14610074578063f851a4401461009257610046565b5b6100566100516100b0565b6100de565b005b610072600480360381019061006d9190610251565b610104565b005b61007c6100b0565b604051610089919061028d565b60405180910390f35b61009a61019e565b6040516100a7919061028d565b60405180910390f35b6000807f7050c9e0f4ca769c69bd3a8ef740bc37934f8e2c036e5a723fd8ee048ed3f8c39050805491505090565b3660008037600080366000845af43d6000803e80600081146100ff573d6000f35b3d6000fd5b60008054906101000a900473ffffffffffffffffffffffffffffffffffffffff1673ffffffffffffffffffffffffffffffffffffffff163373ffffffffffffffffffffffffffffffffffffffff1614610192576040517f08c379a000000000000000000000000000000000000000000000000000000000815260040161018990610305565b60405180910390fd5b61019b816101c2565b50565b60008054906101000a900473ffffffffffffffffffffffffffffffffffffffff1681565b60007f7050c9e0f4ca769c69bd3a8ef740bc37934f8e2c036e5a723fd8ee048ed3f8c390508181555050565b600080fd5b600073ffffffffffffffffffffffffffffffffffffffff82169050919050565b600061021e826101f3565b9050919050565b61022e81610213565b811461023957600080fd5b50565b60008135905061024b81610225565b92915050565b600060208284031215610267576102666101ee565b5b60006102758482850161023c565b91505092915050565b61028781610213565b82525050565b60006020820190506102a2600083018461027e565b92915050565b600082825260208201905092915050565b7f7065726d697373696f6e2064656e696564000000000000000000000000000000600082015250565b60006102ef6011836102a8565b91506102fa826102b9565b602082019050919050565b6000602082019050818103600083015261031e816102e2565b905091905056fea26469706673582212202547c3a66cf6fe304010b0895af92dddacf83013ddaffb995ac62027de56bf7a64736f6c63430008180033",
  "linkReferences": {},
  "deployedLinkReferences": {}
}