{
  "_format": "hh-sol-artifact-1",
  "contractName": "Admin",
  "sourceName": "contracts/Admin.sol",
  "abi": [
    {
      "inputs": [
        {
          "internalType": "address[]",
          "name": "admins_",
          "type": "address[]"
        }
      ],
      "stateMutability": "nonpayable",
      "type": "constructor"
    },
    {
      "inputs": [
        {
          "internalType": "address",
          "name": "newAdmin",
          "type": "address"
        }
      ],
      "name": "addAdmin",
      "outputs": [],
      "stateMutability": "nonpayable",
      "type": "function"
    },
    {
      "inputs": [
        {
          "internalType": "uint256",
          "name": "",
          "type": "uint256"
        }
      ],
      "name": "admins",
      "outputs": [
        {
          "internalType": "address",
          "name": "",
          "type": "address"
        }
      ],
      "stateMutability": "view",
      "type": "function"
    },
    {
      "inputs": [],
      "name": "getAllAdmins",
      "outputs": [
        {
          "internalType": "address[]",
          "name": "",
          "type": "address[]"
        }
      ],
      "stateMutability": "view",
      "type": "function"
    },
    {
      "inputs": [
        {
          "internalType": "address",
          "name": "user",
          "type": "address"
        }
      ],
      "name": "isAdmin",
      "outputs": [
        {
          "internalType": "bool",
          "name": "",
          "type": "bool"
        }
      ],
      "stateMutability": "view",
      "type": "function"
    },
    {
      "inputs": [
        {
          "internalType": "address",
          "name": "targetAdmin",
          "type": "address"
        }
      ],
      "name": "removeAdmin",
      "outputs": [],
      "stateMutability": "nonpayable",
      "type": "function"
    }
  ],
  "bytecode": "0x60806040523480156200001157600080fd5b506040516200115f3803806200115f83398181016040528101906200003791906200033c565b60005b8151811015620001465760008282815181106200005c576200005b6200038d565b5b60200260200101519080600181540180825580915050600190039060005260206000200160009091909190916101000a81548173ffffffffffffffffffffffffffffffffffffffff021916908373ffffffffffffffffffffffffffffffffffffffff1602179055506001806000848481518110620000df57620000de6200038d565b5b602002602001015173ffffffffffffffffffffffffffffffffffffffff1673ffffffffffffffffffffffffffffffffffffffff16815260200190815260200160002060006101000a81548160ff02191690831515021790555080806001019150506200003a565b5050620003bc565b6000604051905090565b600080fd5b600080fd5b600080fd5b6000601f19601f8301169050919050565b7f4e487b7100000000000000000000000000000000000000000000000000000000600052604160045260246000fd5b620001b28262000167565b810181811067ffffffffffffffff82111715620001d457620001d362000178565b5b80604052505050565b6000620001e96200014e565b9050620001f78282620001a7565b919050565b600067ffffffffffffffff8211156200021a576200021962000178565b5b602082029050602081019050919050565b600080fd5b600073ffffffffffffffffffffffffffffffffffffffff82169050919050565b60006200025d8262000230565b9050919050565b6200026f8162000250565b81146200027b57600080fd5b50565b6000815190506200028f8162000264565b92915050565b6000620002ac620002a684620001fc565b620001dd565b90508083825260208201905060208402830185811115620002d257620002d16200022b565b5b835b81811015620002ff5780620002ea88826200027e565b845260208401935050602081019050620002d4565b5050509392505050565b600082601f83011262000321576200032062000162565b5b81516200033384826020860162000295565b91505092915050565b60006020828403121562000355576200035462000158565b5b600082015167ffffffffffffffff8111156200037657620003756200015d565b5b620003848482850162000309565b91505092915050565b7f4e487b7100000000000000000000000000000000000000000000000000000000600052603260045260246000fd5b610d9380620003cc6000396000f3fe608060405234801561001057600080fd5b50600436106100575760003560e01c806314bfd6d01461005c5780631785f53c1461008c57806324d7806c146100a857806370480275146100d8578063e9523c97146100f4575b600080fd5b610076600480360381019061007191906107f7565b610112565b6040516100839190610865565b60405180910390f35b6100a660048036038101906100a191906108ac565b610151565b005b6100c260048036038101906100bd91906108ac565b610493565b6040516100cf91906108f4565b60405180910390f35b6100f260048036038101906100ed91906108ac565b6104e9565b005b6100fc61072e565b60405161010991906109cd565b60405180910390f35b6000818154811061012257600080fd5b906000526020600020016000915054906101000a900473ffffffffffffffffffffffffffffffffffffffff1681565b600160003373ffffffffffffffffffffffffffffffffffffffff1673ffffffffffffffffffffffffffffffffffffffff16815260200190815260200160002060009054906101000a900460ff166101dd576040517f08c379a00000000000000000000000000000000000000000000000000000000081526004016101d490610a4c565b60405180910390fd5b600160008273ffffffffffffffffffffffffffffffffffffffff1673ffffffffffffffffffffffffffffffffffffffff16815260200190815260200160002060009054906101000a900460ff16610269576040517f08c379a000000000000000000000000000000000000000000000000000000000815260040161026090610ab8565b60405180910390fd5b60005b8173ffffffffffffffffffffffffffffffffffffffff166000828154811061029757610296610ad8565b5b9060005260206000200160009054906101000a900473ffffffffffffffffffffffffffffffffffffffff1673ffffffffffffffffffffffffffffffffffffffff16146103445760016000805490506102ef9190610b36565b8103610330576040517f08c379a000000000000000000000000000000000000000000000000000000000815260040161032790610bdc565b60405180910390fd5b60018161033d9190610bfc565b905061026c565b600060016000805490506103589190610b36565b8154811061036957610368610ad8565b5b9060005260206000200160009054906101000a900473ffffffffffffffffffffffffffffffffffffffff16600082815481106103a8576103a7610ad8565b5b9060005260206000200160006101000a81548173ffffffffffffffffffffffffffffffffffffffff021916908373ffffffffffffffffffffffffffffffffffffffff1602179055506000600160008473ffffffffffffffffffffffffffffffffffffffff1673ffffffffffffffffffffffffffffffffffffffff16815260200190815260200160002060006101000a81548160ff021916908315150217905550600080548061045a57610459610c30565b5b6001900381819060005260206000200160006101000a81549073ffffffffffffffffffffffffffffffffffffffff021916905590555050565b6000600160008373ffffffffffffffffffffffffffffffffffffffff1673ffffffffffffffffffffffffffffffffffffffff16815260200190815260200160002060009054906101000a900460ff169050919050565b600160003373ffffffffffffffffffffffffffffffffffffffff1673ffffffffffffffffffffffffffffffffffffffff16815260200190815260200160002060009054906101000a900460ff16610575576040517f08c379a000000000000000000000000000000000000000000000000000000000815260040161056c90610a4c565b60405180910390fd5b600073ffffffffffffffffffffffffffffffffffffffff168173ffffffffffffffffffffffffffffffffffffffff16036105e4576040517f08c379a00000000000000000000000000000000000000000000000000000000081526004016105db90610cd1565b60405180910390fd5b600160008273ffffffffffffffffffffffffffffffffffffffff1673ffffffffffffffffffffffffffffffffffffffff16815260200190815260200160002060009054906101000a900460ff1615610671576040517f08c379a000000000000000000000000000000000000000000000000000000000815260040161066890610d3d565b60405180910390fd5b6000819080600181540180825580915050600190039060005260206000200160009091909190916101000a81548173ffffffffffffffffffffffffffffffffffffffff021916908373ffffffffffffffffffffffffffffffffffffffff16021790555060018060008373ffffffffffffffffffffffffffffffffffffffff1673ffffffffffffffffffffffffffffffffffffffff16815260200190815260200160002060006101000a81548160ff02191690831515021790555050565b606060008054806020026020016040519081016040528092919081815260200182805480156107b257602002820191906000526020600020905b8160009054906101000a900473ffffffffffffffffffffffffffffffffffffffff1673ffffffffffffffffffffffffffffffffffffffff1681526020019060010190808311610768575b5050505050905090565b600080fd5b6000819050919050565b6107d4816107c1565b81146107df57600080fd5b50565b6000813590506107f1816107cb565b92915050565b60006020828403121561080d5761080c6107bc565b5b600061081b848285016107e2565b91505092915050565b600073ffffffffffffffffffffffffffffffffffffffff82169050919050565b600061084f82610824565b9050919050565b61085f81610844565b82525050565b600060208201905061087a6000830184610856565b92915050565b61088981610844565b811461089457600080fd5b50565b6000813590506108a681610880565b92915050565b6000602082840312156108c2576108c16107bc565b5b60006108d084828501610897565b91505092915050565b60008115159050919050565b6108ee816108d9565b82525050565b600060208201905061090960008301846108e5565b92915050565b600081519050919050565b600082825260208201905092915050565b6000819050602082019050919050565b61094481610844565b82525050565b6000610956838361093b565b60208301905092915050565b6000602082019050919050565b600061097a8261090f565b610984818561091a565b935061098f8361092b565b8060005b838110156109c05781516109a7888261094a565b97506109b283610962565b925050600181019050610993565b5085935050505092915050565b600060208201905081810360008301526109e7818461096f565b905092915050565b600082825260208201905092915050565b7f4f6e6c792061646d696e2063616e206163636573730000000000000000000000600082015250565b6000610a366015836109ef565b9150610a4182610a00565b602082019050919050565b60006020820190508181036000830152610a6581610a29565b9050919050565b7f5b524241435d203a2041646d696e206e6f74206578697374732e000000000000600082015250565b6000610aa2601a836109ef565b9150610aad82610a6c565b602082019050919050565b60006020820190508181036000830152610ad181610a95565b9050919050565b7f4e487b7100000000000000000000000000000000000000000000000000000000600052603260045260246000fd5b7f4e487b7100000000000000000000000000000000000000000000000000000000600052601160045260246000fd5b6000610b41826107c1565b9150610b4c836107c1565b9250828203905081811115610b6457610b63610b07565b5b92915050565b7f5061737365642061646d696e206164647265737320646f6573206e6f7420657860008201527f6973740000000000000000000000000000000000000000000000000000000000602082015250565b6000610bc66023836109ef565b9150610bd182610b6a565b604082019050919050565b60006020820190508181036000830152610bf581610bb9565b9050919050565b6000610c07826107c1565b9150610c12836107c1565b9250828201905080821115610c2a57610c29610b07565b5b92915050565b7f4e487b7100000000000000000000000000000000000000000000000000000000600052603160045260246000fd5b7f5b524241435d203a2041646d696e206d75737420626520213d207468616e203060008201527f7830206164647265737300000000000000000000000000000000000000000000602082015250565b6000610cbb602a836109ef565b9150610cc682610c5f565b604082019050919050565b60006020820190508181036000830152610cea81610cae565b9050919050565b7f5b524241435d203a2041646d696e20616c7265616479206578697374732e0000600082015250565b6000610d27601e836109ef565b9150610d3282610cf1565b602082019050919050565b60006020820190508181036000830152610d5681610d1a565b905091905056fea26469706673582212207b206244eb77a70907bce80117860fcf2ebc4c75448214493805983a1e5c7c4764736f6c63430008180033",
  "linkReferences": {},
  "deployedLinkReferences": {}
}