{
  "_format": "hh-sol-artifact-1",
  "contractName": "SimpleRewards",
  "sourceName": "contracts/farming/SimpleRewards.sol",
  "abi": [
    {
      "inputs": [
        {
          "internalType": "contract IERC20",
          "name": "stakingToken_",
          "type": "address"
        },
        {
          "internalType": "contract IERC20",
          "name": "rewardsToken_",
          "type": "address"
        },
        {
          "internalType": "uint256",
          "name": "rewardsStart_",
          "type": "uint256"
        },
        {
          "internalType": "uint256",
          "name": "rewardsEnd_",
          "type": "uint256"
        },
        {
          "internalType": "uint256",
          "name": "totalRewards",
          "type": "uint256"
        }
      ],
      "stateMutability": "nonpayable",
      "type": "constructor"
    },
    {
      "inputs": [
        {
          "internalType": "address",
          "name": "target",
          "type": "address"
        }
      ],
      "name": "AddressEmptyCode",
      "type": "error"
    },
    {
      "inputs": [
        {
          "internalType": "address",
          "name": "account",
          "type": "address"
        }
      ],
      "name": "AddressInsufficientBalance",
      "type": "error"
    },
    {
      "inputs": [],
      "name": "FailedInnerCall",
      "type": "error"
    },
    {
      "inputs": [
        {
          "internalType": "address",
          "name": "token",
          "type": "address"
        }
      ],
      "name": "SafeERC20FailedOperation",
      "type": "error"
    },
    {
      "anonymous": false,
      "inputs": [
        {
          "indexed": false,
          "internalType": "address",
          "name": "user",
          "type": "address"
        },
        {
          "indexed": false,
          "internalType": "uint256",
          "name": "amount",
          "type": "uint256"
        }
      ],
      "name": "Claimed",
      "type": "event"
    },
    {
      "anonymous": false,
      "inputs": [
        {
          "indexed": false,
          "internalType": "uint256",
          "name": "accumulated",
          "type": "uint256"
        }
      ],
      "name": "RewardsPerTokenUpdated",
      "type": "event"
    },
    {
      "anonymous": false,
      "inputs": [
        {
          "indexed": false,
          "internalType": "address",
          "name": "user",
          "type": "address"
        },
        {
          "indexed": false,
          "internalType": "uint256",
          "name": "amount",
          "type": "uint256"
        }
      ],
      "name": "Staked",
      "type": "event"
    },
    {
      "anonymous": false,
      "inputs": [
        {
          "indexed": false,
          "internalType": "address",
          "name": "user",
          "type": "address"
        },
        {
          "indexed": false,
          "internalType": "uint256",
          "name": "amount",
          "type": "uint256"
        }
      ],
      "name": "Unstaked",
      "type": "event"
    },
    {
      "anonymous": false,
      "inputs": [
        {
          "indexed": false,
          "internalType": "address",
          "name": "user",
          "type": "address"
        },
        {
          "indexed": false,
          "internalType": "uint256",
          "name": "rewards",
          "type": "uint256"
        },
        {
          "indexed": false,
          "internalType": "uint256",
          "name": "checkpoint",
          "type": "uint256"
        }
      ],
      "name": "UserRewardsUpdated",
      "type": "event"
    },
    {
      "inputs": [
        {
          "internalType": "address",
          "name": "",
          "type": "address"
        }
      ],
      "name": "accumulatedRewards",
      "outputs": [
        {
          "internalType": "uint128",
          "name": "accumulated",
          "type": "uint128"
        },
        {
          "internalType": "uint128",
          "name": "checkpoint",
          "type": "uint128"
        }
      ],
      "stateMutability": "view",
      "type": "function"
    },
    {
      "inputs": [],
      "name": "claim",
      "outputs": [
        {
          "internalType": "uint256",
          "name": "",
          "type": "uint256"
        }
      ],
      "stateMutability": "nonpayable",
      "type": "function"
    },
    {
      "inputs": [],
      "name": "currentRewardsPerToken",
      "outputs": [
        {
          "internalType": "uint256",
          "name": "",
          "type": "uint256"
        }
      ],
      "stateMutability": "view",
      "type": "function"
    },
    {
      "inputs": [
        {
          "internalType": "address",
          "name": "user",
          "type": "address"
        }
      ],
      "name": "currentUserRewards",
      "outputs": [
        {
          "internalType": "uint256",
          "name": "",
          "type": "uint256"
        }
      ],
      "stateMutability": "view",
      "type": "function"
    },
    {
      "inputs": [],
      "name": "rewardsEnd",
      "outputs": [
        {
          "internalType": "uint256",
          "name": "",
          "type": "uint256"
        }
      ],
      "stateMutability": "view",
      "type": "function"
    },
    {
      "inputs": [],
      "name": "rewardsPerToken",
      "outputs": [
        {
          "internalType": "uint128",
          "name": "accumulated",
          "type": "uint128"
        },
        {
          "internalType": "uint128",
          "name": "lastUpdated",
          "type": "uint128"
        }
      ],
      "stateMutability": "view",
      "type": "function"
    },
    {
      "inputs": [],
      "name": "rewardsRate",
      "outputs": [
        {
          "internalType": "uint256",
          "name": "",
          "type": "uint256"
        }
      ],
      "stateMutability": "view",
      "type": "function"
    },
    {
      "inputs": [],
      "name": "rewardsStart",
      "outputs": [
        {
          "internalType": "uint256",
          "name": "",
          "type": "uint256"
        }
      ],
      "stateMutability": "view",
      "type": "function"
    },
    {
      "inputs": [],
      "name": "rewardsToken",
      "outputs": [
        {
          "internalType": "contract IERC20",
          "name": "",
          "type": "address"
        }
      ],
      "stateMutability": "view",
      "type": "function"
    },
    {
      "inputs": [
        {
          "internalType": "uint256",
          "name": "amount",
          "type": "uint256"
        }
      ],
      "name": "stake",
      "outputs": [],
      "stateMutability": "nonpayable",
      "type": "function"
    },
    {
      "inputs": [],
      "name": "stakingToken",
      "outputs": [
        {
          "internalType": "contract IERC20",
          "name": "",
          "type": "address"
        }
      ],
      "stateMutability": "view",
      "type": "function"
    },
    {
      "inputs": [],
      "name": "totalStaked",
      "outputs": [
        {
          "internalType": "uint256",
          "name": "",
          "type": "uint256"
        }
      ],
      "stateMutability": "view",
      "type": "function"
    },
    {
      "inputs": [
        {
          "internalType": "uint256",
          "name": "amount",
          "type": "uint256"
        }
      ],
      "name": "unstake",
      "outputs": [],
      "stateMutability": "nonpayable",
      "type": "function"
    },
    {
      "inputs": [
        {
          "internalType": "address",
          "name": "",
          "type": "address"
        }
      ],
      "name": "userStake",
      "outputs": [
        {
          "internalType": "uint256",
          "name": "",
          "type": "uint256"
        }
      ],
      "stateMutability": "view",
      "type": "function"
    }
  ],
  "bytecode": "0x6101206040523480156200001257600080fd5b506040516200280038038062002800833981810160405281019062000038919062000245565b8473ffffffffffffffffffffffffffffffffffffffff1660808173ffffffffffffffffffffffffffffffffffffffff16815250508373ffffffffffffffffffffffffffffffffffffffff1660a08173ffffffffffffffffffffffffffffffffffffffff16815250508260e081815250508161010081815250508282620000bf9190620002fc565b81620000cc919062000366565b60c08181525050620000e4836200012a60201b60201c565b600260000160106101000a8154816fffffffffffffffffffffffffffffffff02191690836fffffffffffffffffffffffffffffffff160217905550505050505062000421565b60006fffffffffffffffffffffffffffffffff801682111562000184576040517f08c379a00000000000000000000000000000000000000000000000000000000081526004016200017b90620003ff565b60405180910390fd5b819050919050565b600080fd5b600073ffffffffffffffffffffffffffffffffffffffff82169050919050565b6000620001be8262000191565b9050919050565b6000620001d282620001b1565b9050919050565b620001e481620001c5565b8114620001f057600080fd5b50565b6000815190506200020481620001d9565b92915050565b6000819050919050565b6200021f816200020a565b81146200022b57600080fd5b50565b6000815190506200023f8162000214565b92915050565b600080600080600060a086880312156200026457620002636200018c565b5b60006200027488828901620001f3565b95505060206200028788828901620001f3565b94505060406200029a888289016200022e565b9350506060620002ad888289016200022e565b9250506080620002c0888289016200022e565b9150509295509295909350565b7f4e487b7100000000000000000000000000000000000000000000000000000000600052601160045260246000fd5b600062000309826200020a565b915062000316836200020a565b9250828203905081811115620003315762000330620002cd565b5b92915050565b7f4e487b7100000000000000000000000000000000000000000000000000000000600052601260045260246000fd5b600062000373826200020a565b915062000380836200020a565b92508262000393576200039262000337565b5b828204905092915050565b600082825260208201905092915050565b7f43617374206f766572666c6f7700000000000000000000000000000000000000600082015250565b6000620003e7600d836200039e565b9150620003f482620003af565b602082019050919050565b600060208201905081810360008301526200041a81620003d8565b9050919050565b60805160a05160c05160e0516101005161235b620004a56000396000818161090b015281816109da0152610a010152600081816103f5015281816107b201526109a60152600081816103d1015281816108e20152610ab601526000818161092f015261104701526000818161047b01528181610bde01526112ed015261235b6000f3fe608060405234801561001057600080fd5b50600436106100ea5760003560e01c806372f702f31161008c578063a2dc057411610066578063a2dc05741461023f578063a694fc3a1461026f578063a6d14d691461028b578063d1af0c7d146102a9576100ea565b806372f702f3146101d257806373f273fc146101f0578063817b1cd214610221576100ea565b8063523bc7d5116100c8578063523bc7d51461014757806365af3a2f1461016557806368e5585d1461018357806370641a36146101b3576100ea565b806308396646146100ef5780632e17de781461010d5780634e71d92d14610129575b600080fd5b6100f76102c7565b6040516101049190611b9e565b60405180910390f35b61012760048036038101906101229190611bea565b61038d565b005b61013161039a565b60405161013e9190611b9e565b60405180910390f35b61014f6103cf565b60405161015c9190611b9e565b60405180910390f35b61016d6103f3565b60405161017a9190611b9e565b60405180910390f35b61019d60048036038101906101989190611c75565b610417565b6040516101aa9190611b9e565b60405180910390f35b6101bb61042f565b6040516101c9929190611ccd565b60405180910390f35b6101da610479565b6040516101e79190611d55565b60405180910390f35b61020a60048036038101906102059190611c75565b61049d565b604051610218929190611ccd565b60405180910390f35b6102296104f9565b6040516102369190611b9e565b60405180910390f35b61025960048036038101906102549190611c75565b6104ff565b6040516102669190611b9e565b60405180910390f35b61028960048036038101906102849190611bea565b61072f565b005b610293610909565b6040516102a09190611b9e565b60405180910390f35b6102b161092d565b6040516102be9190611d55565b60405180910390f35b600061037260026040518060400160405290816000820160009054906101000a90046fffffffffffffffffffffffffffffffff166fffffffffffffffffffffffffffffffff166fffffffffffffffffffffffffffffffff1681526020016000820160109054906101000a90046fffffffffffffffffffffffffffffffff166fffffffffffffffffffffffffffffffff166fffffffffffffffffffffffffffffffff1681525050610951565b600001516fffffffffffffffffffffffffffffffff16905090565b6103973382610b5f565b50565b6000806103a633610c5f565b600001516fffffffffffffffffffffffffffffffff1690506103c83382610f91565b8091505090565b7f000000000000000000000000000000000000000000000000000000000000000081565b7f000000000000000000000000000000000000000000000000000000000000000081565b60016020528060005260406000206000915090505481565b60028060000160009054906101000a90046fffffffffffffffffffffffffffffffff16908060000160109054906101000a90046fffffffffffffffffffffffffffffffff16905082565b7f000000000000000000000000000000000000000000000000000000000000000081565b60036020528060005260406000206000915090508060000160009054906101000a90046fffffffffffffffffffffffffffffffff16908060000160109054906101000a90046fffffffffffffffffffffffffffffffff16905082565b60005481565b600080600360008473ffffffffffffffffffffffffffffffffffffffff1673ffffffffffffffffffffffffffffffffffffffff1681526020019081526020016000206040518060400160405290816000820160009054906101000a90046fffffffffffffffffffffffffffffffff166fffffffffffffffffffffffffffffffff166fffffffffffffffffffffffffffffffff1681526020016000820160109054906101000a90046fffffffffffffffffffffffffffffffff166fffffffffffffffffffffffffffffffff166fffffffffffffffffffffffffffffffff16815250509050600061068d60026040518060400160405290816000820160009054906101000a90046fffffffffffffffffffffffffffffffff166fffffffffffffffffffffffffffffffff166fffffffffffffffffffffffffffffffff1681526020016000820160109054906101000a90046fffffffffffffffffffffffffffffffff166fffffffffffffffffffffffffffffffff166fffffffffffffffffffffffffffffffff1681525050610951565b9050610705600160008673ffffffffffffffffffffffffffffffffffffffff1673ffffffffffffffffffffffffffffffffffffffff1681526020019081526020016000205483602001516fffffffffffffffffffffffffffffffff1683600001516fffffffffffffffffffffffffffffffff166110c9565b82600001516fffffffffffffffffffffffffffffffff166107269190611d9f565b92505050919050565b61076d6040518060400160405280601981526020017f3d3d3d3d3d3d3d3d3d3d3d3d3d3d3d3d3d3d3d3d3d3d3d3d3d000000000000008152506111d4565b610777338261126d565b6107e26040518060400160405280601681526020017f6f66667365743a2025642c20616d6f756e743a202564000000000000000000008152507f0000000000000000000000000000000000000000000000000000000000000000426107dc9190611dd3565b8361136f565b6109066040518060600160405280603081526020016122f660309139600360003373ffffffffffffffffffffffffffffffffffffffff1673ffffffffffffffffffffffffffffffffffffffff16815260200190815260200160002060000160009054906101000a90046fffffffffffffffffffffffffffffffff166fffffffffffffffffffffffffffffffff16600360003373ffffffffffffffffffffffffffffffffffffffff1673ffffffffffffffffffffffffffffffffffffffff16815260200190815260200160002060000160109054906101000a90046fffffffffffffffffffffffffffffffff166fffffffffffffffffffffffffffffffff167f000000000000000000000000000000000000000000000000000000000000000061140e565b50565b7f000000000000000000000000000000000000000000000000000000000000000081565b7f000000000000000000000000000000000000000000000000000000000000000081565b610959611aff565b6000604051806040016040528084600001516fffffffffffffffffffffffffffffffff16815260200184602001516fffffffffffffffffffffffffffffffff1681525090506000805490507f00000000000000000000000000000000000000000000000000000000000000004210156109d6578192505050610b5a565b60007f00000000000000000000000000000000000000000000000000000000000000004210610a25577f0000000000000000000000000000000000000000000000000000000000000000610a27565b425b9050600085602001516fffffffffffffffffffffffffffffffff1682610a4d9190611dd3565b905060008103610a635783945050505050610b5a565b610a6c826114b0565b84602001906fffffffffffffffffffffffffffffffff1690816fffffffffffffffffffffffffffffffff16815250506000805403610ab05783945050505050610b5a565b610b23837f000000000000000000000000000000000000000000000000000000000000000083670de0b6b3a7640000610ae99190611e07565b610af39190611e07565b610afd9190611e78565b87600001516fffffffffffffffffffffffffffffffff16610b1e9190611d9f565b6114b0565b84600001906fffffffffffffffffffffffffffffffff1690816fffffffffffffffffffffffffffffffff1681525050839450505050505b919050565b610b6882610c5f565b5080600080828254610b7a9190611dd3565b9250508190555080600160008473ffffffffffffffffffffffffffffffffffffffff1673ffffffffffffffffffffffffffffffffffffffff1681526020019081526020016000206000828254610bd09190611dd3565b92505081905550610c2282827f000000000000000000000000000000000000000000000000000000000000000073ffffffffffffffffffffffffffffffffffffffff1661150f9092919063ffffffff16565b7f0f5bb82176feb1b5e747e28471aa92156a04d9f3ab9f45f28e2d704232b93f758282604051610c53929190611eb8565b60405180910390a15050565b610c67611b3d565b6000610c7161158e565b90506000600360008573ffffffffffffffffffffffffffffffffffffffff1673ffffffffffffffffffffffffffffffffffffffff1681526020019081526020016000206040518060400160405290816000820160009054906101000a90046fffffffffffffffffffffffffffffffff166fffffffffffffffffffffffffffffffff166fffffffffffffffffffffffffffffffff1681526020016000820160109054906101000a90046fffffffffffffffffffffffffffffffff166fffffffffffffffffffffffffffffffff166fffffffffffffffffffffffffffffffff1681525050905081600001516fffffffffffffffffffffffffffffffff1681602001516fffffffffffffffffffffffffffffffff1603610d92578092505050610f8c565b610e10610e0b600160008773ffffffffffffffffffffffffffffffffffffffff1673ffffffffffffffffffffffffffffffffffffffff1681526020019081526020016000205483602001516fffffffffffffffffffffffffffffffff1685600001516fffffffffffffffffffffffffffffffff166110c9565b6114b0565b81600001818151610e219190611ee1565b9150906fffffffffffffffffffffffffffffffff1690816fffffffffffffffffffffffffffffffff1681525050816000015181602001906fffffffffffffffffffffffffffffffff1690816fffffffffffffffffffffffffffffffff168152505080600360008673ffffffffffffffffffffffffffffffffffffffff1673ffffffffffffffffffffffffffffffffffffffff16815260200190815260200160002060008201518160000160006101000a8154816fffffffffffffffffffffffffffffffff02191690836fffffffffffffffffffffffffffffffff16021790555060208201518160000160106101000a8154816fffffffffffffffffffffffffffffffff02191690836fffffffffffffffffffffffffffffffff1602179055509050507f5b9aaf4cc5141c090a75f8b8a627863eba92df81f0c83c096350da9b79aedd048482600001518360200151604051610f7e93929190611f56565b60405180910390a180925050505b919050565b6000610f9c33610c5f565b600001516fffffffffffffffffffffffffffffffff169050610fc88282610fc39190611dd3565b6114b0565b600360008573ffffffffffffffffffffffffffffffffffffffff1673ffffffffffffffffffffffffffffffffffffffff16815260200190815260200160002060000160006101000a8154816fffffffffffffffffffffffffffffffff02191690836fffffffffffffffffffffffffffffffff16021790555061108b83837f000000000000000000000000000000000000000000000000000000000000000073ffffffffffffffffffffffffffffffffffffffff1661150f9092919063ffffffff16565b7fd8138f8a3f377c5259ca548e70e4c2de94f129f5a11036a15b69513cba2b426a83836040516110bc929190611eb8565b60405180910390a1505050565b600061110a6040518060400160405280600981526020017f7374616b653a20256400000000000000000000000000000000000000000000008152508561174d565b6111396040518060600160405280603181526020016122c560319139838586866111349190611dd3565b61140e565b6111a16040518060400160405280600b81526020017f726577617264733a202564000000000000000000000000000000000000000000815250670de0b6b3a764000085856111879190611dd3565b876111929190611e07565b61119c9190611e78565b61174d565b670de0b6b3a764000083836111b69190611dd3565b856111c19190611e07565b6111cb9190611e78565b90509392505050565b61126a816040516024016111e8919061201d565b6040516020818303038152906040527f41304fac000000000000000000000000000000000000000000000000000000007bffffffffffffffffffffffffffffffffffffffffffffffffffffffff19166020820180517bffffffffffffffffffffffffffffffffffffffffffffffffffffffff83818316178352505050506117e9565b50565b61127682610c5f565b50806000808282546112889190611d9f565b9250508190555080600160008473ffffffffffffffffffffffffffffffffffffffff1673ffffffffffffffffffffffffffffffffffffffff16815260200190815260200160002060008282546112de9190611d9f565b925050819055506113328230837f000000000000000000000000000000000000000000000000000000000000000073ffffffffffffffffffffffffffffffffffffffff16611803909392919063ffffffff16565b7f9e71bc8eea02a63969f509818f2dafb9254532904319f9dbda79b67bd34a5f3d8282604051611363929190611eb8565b60405180910390a15050565b6114098383836040516024016113879392919061203f565b6040516020818303038152906040527fca47c4eb000000000000000000000000000000000000000000000000000000007bffffffffffffffffffffffffffffffffffffffffffffffffffffffff19166020820180517bffffffffffffffffffffffffffffffffffffffffffffffffffffffff83818316178352505050506117e9565b505050565b6114aa84848484604051602401611428949392919061207d565b6040516020818303038152906040527fa7a87853000000000000000000000000000000000000000000000000000000007bffffffffffffffffffffffffffffffffffffffffffffffffffffffff19166020820180517bffffffffffffffffffffffffffffffffffffffffffffffffffffffff83818316178352505050506117e9565b50505050565b60006fffffffffffffffffffffffffffffffff8016821115611507576040517f08c379a00000000000000000000000000000000000000000000000000000000081526004016114fe90612115565b60405180910390fd5b819050919050565b611589838473ffffffffffffffffffffffffffffffffffffffff1663a9059cbb8585604051602401611542929190611eb8565b604051602081830303815290604052915060e01b6020820180517bffffffffffffffffffffffffffffffffffffffffffffffffffffffff8381831617835250505050611885565b505050565b611596611aff565b600060026040518060400160405290816000820160009054906101000a90046fffffffffffffffffffffffffffffffff166fffffffffffffffffffffffffffffffff166fffffffffffffffffffffffffffffffff1681526020016000820160109054906101000a90046fffffffffffffffffffffffffffffffff166fffffffffffffffffffffffffffffffff166fffffffffffffffffffffffffffffffff16815250509050600061164682610951565b905080602001516fffffffffffffffffffffffffffffffff1682602001516fffffffffffffffffffffffffffffffff160361168557809250505061174a565b80600260008201518160000160006101000a8154816fffffffffffffffffffffffffffffffff02191690836fffffffffffffffffffffffffffffffff16021790555060208201518160000160106101000a8154816fffffffffffffffffffffffffffffffff02191690836fffffffffffffffffffffffffffffffff1602179055509050507fe972555b20cae8150e291bb40efce3ef4e3ed6b6b2c39c029346600e95469d48816000015160405161173c9190612135565b60405180910390a180925050505b90565b6117e58282604051602401611763929190612150565b6040516020818303038152906040527fb60e72cc000000000000000000000000000000000000000000000000000000007bffffffffffffffffffffffffffffffffffffffffffffffffffffffff19166020820180517bffffffffffffffffffffffffffffffffffffffffffffffffffffffff83818316178352505050506117e9565b5050565b611800816117f861191c61193d565b63ffffffff16565b50565b61187f848573ffffffffffffffffffffffffffffffffffffffff166323b872dd86868660405160240161183893929190612180565b604051602081830303815290604052915060e01b6020820180517bffffffffffffffffffffffffffffffffffffffffffffffffffffffff8381831617835250505050611885565b50505050565b60006118b0828473ffffffffffffffffffffffffffffffffffffffff1661194890919063ffffffff16565b905060008151141580156118d55750808060200190518101906118d391906121ef565b155b1561191757826040517f5274afe700000000000000000000000000000000000000000000000000000000815260040161190e919061221c565b60405180910390fd5b505050565b60006a636f6e736f6c652e6c6f679050600080835160208501845afa505050565b611b7b819050919050565b60606119568383600061195e565b905092915050565b6060814710156119a557306040517fcd78605900000000000000000000000000000000000000000000000000000000815260040161199c919061221c565b60405180910390fd5b6000808573ffffffffffffffffffffffffffffffffffffffff1684866040516119ce919061227e565b60006040518083038185875af1925050503d8060008114611a0b576040519150601f19603f3d011682016040523d82523d6000602084013e611a10565b606091505b5091509150611a20868383611a2b565b925050509392505050565b606082611a4057611a3b82611aba565b611ab2565b60008251148015611a68575060008473ffffffffffffffffffffffffffffffffffffffff163b145b15611aaa57836040517f9996b315000000000000000000000000000000000000000000000000000000008152600401611aa1919061221c565b60405180910390fd5b819050611ab3565b5b9392505050565b600081511115611acd5780518082602001fd5b6040517f1425ea4200000000000000000000000000000000000000000000000000000000815260040160405180910390fd5b604051806040016040528060006fffffffffffffffffffffffffffffffff16815260200160006fffffffffffffffffffffffffffffffff1681525090565b604051806040016040528060006fffffffffffffffffffffffffffffffff16815260200160006fffffffffffffffffffffffffffffffff1681525090565b611b83612295565b565b6000819050919050565b611b9881611b85565b82525050565b6000602082019050611bb36000830184611b8f565b92915050565b600080fd5b611bc781611b85565b8114611bd257600080fd5b50565b600081359050611be481611bbe565b92915050565b600060208284031215611c0057611bff611bb9565b5b6000611c0e84828501611bd5565b91505092915050565b600073ffffffffffffffffffffffffffffffffffffffff82169050919050565b6000611c4282611c17565b9050919050565b611c5281611c37565b8114611c5d57600080fd5b50565b600081359050611c6f81611c49565b92915050565b600060208284031215611c8b57611c8a611bb9565b5b6000611c9984828501611c60565b91505092915050565b60006fffffffffffffffffffffffffffffffff82169050919050565b611cc781611ca2565b82525050565b6000604082019050611ce26000830185611cbe565b611cef6020830184611cbe565b9392505050565b6000819050919050565b6000611d1b611d16611d1184611c17565b611cf6565b611c17565b9050919050565b6000611d2d82611d00565b9050919050565b6000611d3f82611d22565b9050919050565b611d4f81611d34565b82525050565b6000602082019050611d6a6000830184611d46565b92915050565b7f4e487b7100000000000000000000000000000000000000000000000000000000600052601160045260246000fd5b6000611daa82611b85565b9150611db583611b85565b9250828201905080821115611dcd57611dcc611d70565b5b92915050565b6000611dde82611b85565b9150611de983611b85565b9250828203905081811115611e0157611e00611d70565b5b92915050565b6000611e1282611b85565b9150611e1d83611b85565b9250828202611e2b81611b85565b91508282048414831517611e4257611e41611d70565b5b5092915050565b7f4e487b7100000000000000000000000000000000000000000000000000000000600052601260045260246000fd5b6000611e8382611b85565b9150611e8e83611b85565b925082611e9e57611e9d611e49565b5b828204905092915050565b611eb281611c37565b82525050565b6000604082019050611ecd6000830185611ea9565b611eda6020830184611b8f565b9392505050565b6000611eec82611ca2565b9150611ef783611ca2565b925082820190506fffffffffffffffffffffffffffffffff811115611f1f57611f1e611d70565b5b92915050565b6000611f40611f3b611f3684611ca2565b611cf6565b611b85565b9050919050565b611f5081611f25565b82525050565b6000606082019050611f6b6000830186611ea9565b611f786020830185611f47565b611f856040830184611f47565b949350505050565b600081519050919050565b600082825260208201905092915050565b60005b83811015611fc7578082015181840152602081019050611fac565b60008484015250505050565b6000601f19601f8301169050919050565b6000611fef82611f8d565b611ff98185611f98565b9350612009818560208601611fa9565b61201281611fd3565b840191505092915050565b600060208201905081810360008301526120378184611fe4565b905092915050565b600060608201905081810360008301526120598186611fe4565b90506120686020830185611b8f565b6120756040830184611b8f565b949350505050565b600060808201905081810360008301526120978187611fe4565b90506120a66020830186611b8f565b6120b36040830185611b8f565b6120c06060830184611b8f565b95945050505050565b7f43617374206f766572666c6f7700000000000000000000000000000000000000600082015250565b60006120ff600d83611f98565b915061210a826120c9565b602082019050919050565b6000602082019050818103600083015261212e816120f2565b9050919050565b600060208201905061214a6000830184611f47565b92915050565b6000604082019050818103600083015261216a8185611fe4565b90506121796020830184611b8f565b9392505050565b60006060820190506121956000830186611ea9565b6121a26020830185611ea9565b6121af6040830184611b8f565b949350505050565b60008115159050919050565b6121cc816121b7565b81146121d757600080fd5b50565b6000815190506121e9816121c3565b92915050565b60006020828403121561220557612204611bb9565b5b6000612213848285016121da565b91505092915050565b60006020820190506122316000830184611ea9565b92915050565b600081519050919050565b600081905092915050565b600061225882612237565b6122628185612242565b9350612272818560208601611fa9565b80840191505092915050565b600061228a828461224d565b915081905092915050565b7f4e487b7100000000000000000000000000000000000000000000000000000000600052605160045260246000fdfe6c6174746572436865636b706f696e743a202564202d206561726c696572436865636b706f696e743a202564203d202564616363756d756c617465643a2025642c20636865636b706f696e743a2025642c2072657761726473526174653a202564a264697066735822122000f193d58113d3f6c3a7cccea8b6c1c82f44b3136de1c27ad67096321e6ccd6664736f6c63430008180033",
  "linkReferences": {},
  "deployedLinkReferences": {}
}