{
  "_format": "hh-sol-artifact-1",
  "contractName": "AllocationStaking",
  "sourceName": "contracts/AllocationStaking.sol",
  "abi": [
    {
      "inputs": [
        {
          "internalType": "contract IERC20",
          "name": "_erc20",
          "type": "address"
        },
        {
          "internalType": "uint256",
          "name": "_rewardPerSecond",
          "type": "uint256"
        },
        {
          "internalType": "uint256",
          "name": "_startTimestamp",
          "type": "uint256"
        },
        {
          "internalType": "address",
          "name": "_salesFactory",
          "type": "address"
        }
      ],
      "stateMutability": "nonpayable",
      "type": "constructor"
    },
    {
      "inputs": [
        {
          "internalType": "address",
          "name": "target",
          "type": "address"
        }
      ],
      "name": "AddressEmptyCode",
      "type": "error"
    },
    {
      "inputs": [
        {
          "internalType": "address",
          "name": "account",
          "type": "address"
        }
      ],
      "name": "AddressInsufficientBalance",
      "type": "error"
    },
    {
      "inputs": [],
      "name": "FailedInnerCall",
      "type": "error"
    },
    {
      "inputs": [
        {
          "internalType": "address",
          "name": "owner",
          "type": "address"
        }
      ],
      "name": "OwnableInvalidOwner",
      "type": "error"
    },
    {
      "inputs": [
        {
          "internalType": "address",
          "name": "account",
          "type": "address"
        }
      ],
      "name": "OwnableUnauthorizedAccount",
      "type": "error"
    },
    {
      "inputs": [
        {
          "internalType": "address",
          "name": "token",
          "type": "address"
        }
      ],
      "name": "SafeERC20FailedOperation",
      "type": "error"
    },
    {
      "anonymous": false,
      "inputs": [
        {
          "indexed": true,
          "internalType": "address",
          "name": "user",
          "type": "address"
        },
        {
          "indexed": true,
          "internalType": "uint256",
          "name": "pid",
          "type": "uint256"
        },
        {
          "indexed": false,
          "internalType": "uint256",
          "name": "amountAdded",
          "type": "uint256"
        },
        {
          "indexed": false,
          "internalType": "uint256",
          "name": "totalDeposited",
          "type": "uint256"
        }
      ],
      "name": "CompoundedEarnings",
      "type": "event"
    },
    {
      "anonymous": false,
      "inputs": [
        {
          "indexed": true,
          "internalType": "address",
          "name": "user",
          "type": "address"
        },
        {
          "indexed": true,
          "internalType": "uint256",
          "name": "pid",
          "type": "uint256"
        },
        {
          "indexed": false,
          "internalType": "uint256",
          "name": "amount",
          "type": "uint256"
        }
      ],
      "name": "Deposit",
      "type": "event"
    },
    {
      "anonymous": false,
      "inputs": [
        {
          "indexed": true,
          "internalType": "address",
          "name": "user",
          "type": "address"
        },
        {
          "indexed": true,
          "internalType": "uint256",
          "name": "pid",
          "type": "uint256"
        },
        {
          "indexed": false,
          "internalType": "uint256",
          "name": "amount",
          "type": "uint256"
        }
      ],
      "name": "EmergencyWithdraw",
      "type": "event"
    },
    {
      "anonymous": false,
      "inputs": [
        {
          "indexed": true,
          "internalType": "address",
          "name": "previousOwner",
          "type": "address"
        },
        {
          "indexed": true,
          "internalType": "address",
          "name": "newOwner",
          "type": "address"
        }
      ],
      "name": "OwnershipTransferred",
      "type": "event"
    },
    {
      "anonymous": false,
      "inputs": [
        {
          "indexed": true,
          "internalType": "address",
          "name": "user",
          "type": "address"
        },
        {
          "indexed": true,
          "internalType": "uint256",
          "name": "pid",
          "type": "uint256"
        },
        {
          "indexed": false,
          "internalType": "uint256",
          "name": "amount",
          "type": "uint256"
        }
      ],
      "name": "Withdraw",
      "type": "event"
    },
    {
      "inputs": [
        {
          "internalType": "uint256",
          "name": "_allocPoint",
          "type": "uint256"
        },
        {
          "internalType": "contract IERC20",
          "name": "_lpToken",
          "type": "address"
        },
        {
          "internalType": "bool",
          "name": "_withUpdate",
          "type": "bool"
        }
      ],
      "name": "add",
      "outputs": [],
      "stateMutability": "nonpayable",
      "type": "function"
    },
    {
      "inputs": [],
      "name": "currentTime",
      "outputs": [
        {
          "internalType": "uint256",
          "name": "",
          "type": "uint256"
        }
      ],
      "stateMutability": "view",
      "type": "function"
    },
    {
      "inputs": [
        {
          "internalType": "uint256",
          "name": "_pid",
          "type": "uint256"
        },
        {
          "internalType": "uint256",
          "name": "_amount",
          "type": "uint256"
        }
      ],
      "name": "deposit",
      "outputs": [],
      "stateMutability": "nonpayable",
      "type": "function"
    },
    {
      "inputs": [
        {
          "internalType": "uint256",
          "name": "_pid",
          "type": "uint256"
        },
        {
          "internalType": "address",
          "name": "_user",
          "type": "address"
        }
      ],
      "name": "deposited",
      "outputs": [
        {
          "internalType": "uint256",
          "name": "",
          "type": "uint256"
        }
      ],
      "stateMutability": "view",
      "type": "function"
    },
    {
      "inputs": [
        {
          "internalType": "uint256",
          "name": "_pid",
          "type": "uint256"
        }
      ],
      "name": "emergencyWithdraw",
      "outputs": [],
      "stateMutability": "nonpayable",
      "type": "function"
    },
    {
      "inputs": [],
      "name": "endTimestamp",
      "outputs": [
        {
          "internalType": "uint256",
          "name": "",
          "type": "uint256"
        }
      ],
      "stateMutability": "view",
      "type": "function"
    },
    {
      "inputs": [],
      "name": "erc20",
      "outputs": [
        {
          "internalType": "contract IERC20",
          "name": "",
          "type": "address"
        }
      ],
      "stateMutability": "view",
      "type": "function"
    },
    {
      "inputs": [
        {
          "internalType": "uint256",
          "name": "_amount",
          "type": "uint256"
        }
      ],
      "name": "fund",
      "outputs": [],
      "stateMutability": "nonpayable",
      "type": "function"
    },
    {
      "inputs": [
        {
          "internalType": "address[]",
          "name": "users",
          "type": "address[]"
        },
        {
          "internalType": "uint256",
          "name": "pid",
          "type": "uint256"
        }
      ],
      "name": "getPendingAndDepositedForUsers",
      "outputs": [
        {
          "internalType": "uint256[]",
          "name": "",
          "type": "uint256[]"
        },
        {
          "internalType": "uint256[]",
          "name": "",
          "type": "uint256[]"
        }
      ],
      "stateMutability": "view",
      "type": "function"
    },
    {
      "inputs": [
        {
          "internalType": "uint256",
          "name": "_pid",
          "type": "uint256"
        }
      ],
      "name": "getPoolDetail",
      "outputs": [
        {
          "internalType": "uint256",
          "name": "",
          "type": "uint256"
        },
        {
          "internalType": "uint256",
          "name": "",
          "type": "uint256"
        }
      ],
      "stateMutability": "view",
      "type": "function"
    },
    {
      "inputs": [],
      "name": "massUpdatePools",
      "outputs": [],
      "stateMutability": "nonpayable",
      "type": "function"
    },
    {
      "inputs": [],
      "name": "owner",
      "outputs": [
        {
          "internalType": "address",
          "name": "",
          "type": "address"
        }
      ],
      "stateMutability": "view",
      "type": "function"
    },
    {
      "inputs": [],
      "name": "paidOut",
      "outputs": [
        {
          "internalType": "uint256",
          "name": "",
          "type": "uint256"
        }
      ],
      "stateMutability": "view",
      "type": "function"
    },
    {
      "inputs": [
        {
          "internalType": "uint256",
          "name": "_pid",
          "type": "uint256"
        },
        {
          "internalType": "address",
          "name": "_user",
          "type": "address"
        }
      ],
      "name": "pending",
      "outputs": [
        {
          "internalType": "uint256",
          "name": "",
          "type": "uint256"
        }
      ],
      "stateMutability": "view",
      "type": "function"
    },
    {
      "inputs": [
        {
          "internalType": "uint256",
          "name": "",
          "type": "uint256"
        }
      ],
      "name": "poolInfo",
      "outputs": [
        {
          "internalType": "contract IERC20",
          "name": "lpToken",
          "type": "address"
        },
        {
          "internalType": "uint256",
          "name": "allocPoint",
          "type": "uint256"
        },
        {
          "internalType": "uint256",
          "name": "lastRewardTimestamp",
          "type": "uint256"
        },
        {
          "internalType": "uint256",
          "name": "accERC20PerShare",
          "type": "uint256"
        },
        {
          "internalType": "uint256",
          "name": "totalDeposits",
          "type": "uint256"
        }
      ],
      "stateMutability": "view",
      "type": "function"
    },
    {
      "inputs": [],
      "name": "poolLength",
      "outputs": [
        {
          "internalType": "uint256",
          "name": "",
          "type": "uint256"
        }
      ],
      "stateMutability": "view",
      "type": "function"
    },
    {
      "inputs": [],
      "name": "renounceOwnership",
      "outputs": [],
      "stateMutability": "nonpayable",
      "type": "function"
    },
    {
      "inputs": [],
      "name": "rewardPerSecond",
      "outputs": [
        {
          "internalType": "uint256",
          "name": "",
          "type": "uint256"
        }
      ],
      "stateMutability": "view",
      "type": "function"
    },
    {
      "inputs": [],
      "name": "salesFactory",
      "outputs": [
        {
          "internalType": "contract ISalesFactory",
          "name": "",
          "type": "address"
        }
      ],
      "stateMutability": "view",
      "type": "function"
    },
    {
      "inputs": [
        {
          "internalType": "uint256",
          "name": "_pid",
          "type": "uint256"
        },
        {
          "internalType": "address",
          "name": "_user",
          "type": "address"
        },
        {
          "internalType": "uint256",
          "name": "_tokensUnlockTime",
          "type": "uint256"
        }
      ],
      "name": "setTokensUnlockTime",
      "outputs": [],
      "stateMutability": "nonpayable",
      "type": "function"
    },
    {
      "inputs": [],
      "name": "startTimestamp",
      "outputs": [
        {
          "internalType": "uint256",
          "name": "",
          "type": "uint256"
        }
      ],
      "stateMutability": "view",
      "type": "function"
    },
    {
      "inputs": [],
      "name": "totalAllocPoint",
      "outputs": [
        {
          "internalType": "uint256",
          "name": "",
          "type": "uint256"
        }
      ],
      "stateMutability": "view",
      "type": "function"
    },
    {
      "inputs": [],
      "name": "totalPending",
      "outputs": [
        {
          "internalType": "uint256",
          "name": "",
          "type": "uint256"
        }
      ],
      "stateMutability": "view",
      "type": "function"
    },
    {
      "inputs": [],
      "name": "totalRewards",
      "outputs": [
        {
          "internalType": "uint256",
          "name": "",
          "type": "uint256"
        }
      ],
      "stateMutability": "view",
      "type": "function"
    },
    {
      "inputs": [
        {
          "internalType": "address",
          "name": "newOwner",
          "type": "address"
        }
      ],
      "name": "transferOwnership",
      "outputs": [],
      "stateMutability": "nonpayable",
      "type": "function"
    },
    {
      "inputs": [
        {
          "internalType": "uint256",
          "name": "_pid",
          "type": "uint256"
        }
      ],
      "name": "updatePool",
      "outputs": [],
      "stateMutability": "nonpayable",
      "type": "function"
    },
    {
      "inputs": [
        {
          "internalType": "uint256",
          "name": "",
          "type": "uint256"
        },
        {
          "internalType": "address",
          "name": "",
          "type": "address"
        }
      ],
      "name": "userInfo",
      "outputs": [
        {
          "internalType": "uint256",
          "name": "amount",
          "type": "uint256"
        },
        {
          "internalType": "uint256",
          "name": "rewardDebt",
          "type": "uint256"
        },
        {
          "internalType": "uint256",
          "name": "tokensUnlockTime",
          "type": "uint256"
        }
      ],
      "stateMutability": "view",
      "type": "function"
    },
    {
      "inputs": [
        {
          "internalType": "uint256",
          "name": "_pid",
          "type": "uint256"
        },
        {
          "internalType": "uint256",
          "name": "_amount",
          "type": "uint256"
        }
      ],
      "name": "withdraw",
      "outputs": [],
      "stateMutability": "nonpayable",
      "type": "function"
    }
  ],
  "bytecode": "0x60806040523480156200001157600080fd5b506040516200324c3803806200324c83398181016040528101906200003791906200030e565b33600073ffffffffffffffffffffffffffffffffffffffff168173ffffffffffffffffffffffffffffffffffffffff1603620000ad5760006040517f1e4fbdf7000000000000000000000000000000000000000000000000000000008152600401620000a4919062000391565b60405180910390fd5b620000be816200016060201b60201c565b5083600160006101000a81548173ffffffffffffffffffffffffffffffffffffffff021916908373ffffffffffffffffffffffffffffffffffffffff160217905550826003819055508160098190555081600a8190555080600560006101000a81548173ffffffffffffffffffffffffffffffffffffffff021916908373ffffffffffffffffffffffffffffffffffffffff16021790555050505050620003ae565b60008060009054906101000a900473ffffffffffffffffffffffffffffffffffffffff169050816000806101000a81548173ffffffffffffffffffffffffffffffffffffffff021916908373ffffffffffffffffffffffffffffffffffffffff1602179055508173ffffffffffffffffffffffffffffffffffffffff168173ffffffffffffffffffffffffffffffffffffffff167f8be0079c531659141344cd1fd0a4f28419497f9722a3daafe3b4186f6b6457e060405160405180910390a35050565b600080fd5b600073ffffffffffffffffffffffffffffffffffffffff82169050919050565b6000620002568262000229565b9050919050565b60006200026a8262000249565b9050919050565b6200027c816200025d565b81146200028857600080fd5b50565b6000815190506200029c8162000271565b92915050565b6000819050919050565b620002b781620002a2565b8114620002c357600080fd5b50565b600081519050620002d781620002ac565b92915050565b620002e88162000249565b8114620002f457600080fd5b50565b6000815190506200030881620002dd565b92915050565b600080600080608085870312156200032b576200032a62000224565b5b60006200033b878288016200028b565b94505060206200034e87828801620002c6565b93505060406200036187828801620002c6565b92505060606200037487828801620002f7565b91505092959194509250565b6200038b8162000249565b82525050565b6000602082019050620003a8600083018462000380565b92915050565b612e8e80620003be6000396000f3fe608060405234801561001057600080fd5b50600436106101c45760003560e01c80638da5cb5b116100f9578063e2bbb15811610097578063e6fd48bc11610071578063e6fd48bc146104c4578063ed95f07f146104e2578063f2fde38b14610500578063fcfc1b141461051c576101c4565b8063e2bbb1581461045c578063e4c75c2714610478578063e6f04acc146104a8576101c4565b8063a2383106116100d3578063a2383106146103d4578063a85adeab14610404578063ca1d209d14610422578063d18e81b31461043e576101c4565b80638da5cb5b146103665780638f10369a1461038457806393f1a40b146103a2576101c4565b8063441a3e70116101665780635c76ca2d116101405780635c76ca2d14610316578063630b5ba114610334578063715018a61461033e578063785e9e8614610348576101c4565b8063441a3e70146102c257806351eb05a6146102de5780635312ea8e146102fa576101c4565b806317caf6f1116101a257806317caf6f1146102395780631eaaa045146102575780633a8b28bb146102735780633f90916a146102a4576101c4565b8063081e3eda146101c95780630e15561a146101e75780631526fe2714610205575b600080fd5b6101d161054d565b6040516101de91906120a1565b60405180910390f35b6101ef61055a565b6040516101fc91906120a1565b60405180910390f35b61021f600480360381019061021a91906120fc565b610560565b6040516102309594939291906121a8565b60405180910390f35b6102416105c6565b60405161024e91906120a1565b60405180910390f35b610271600480360381019061026c9190612283565b6105cc565b005b61028d600480360381019061028891906120fc565b6106ef565b60405161029b9291906122d6565b60405180910390f35b6102ac61072c565b6040516102b991906120a1565b60405180910390f35b6102dc60048036038101906102d791906122ff565b610787565b005b6102f860048036038101906102f391906120fc565b610a08565b005b610314600480360381019061030f91906120fc565b610b4d565b005b61031e610cf6565b60405161032b91906120a1565b60405180910390f35b61033c610cfc565b005b610346610d29565b005b610350610d3d565b60405161035d919061233f565b60405180910390f35b61036e610d63565b60405161037b9190612369565b60405180910390f35b61038c610d8c565b60405161039991906120a1565b60405180910390f35b6103bc60048036038101906103b791906123b0565b610d92565b6040516103cb939291906123f0565b60405180910390f35b6103ee60048036038101906103e991906123b0565b610dc9565b6040516103fb91906120a1565b60405180910390f35b61040c610ee3565b60405161041991906120a1565b60405180910390f35b61043c600480360381019061043791906120fc565b610ee9565b005b610446610fb9565b60405161045391906120a1565b60405180910390f35b610476600480360381019061047191906122ff565b610fc1565b005b610492600480360381019061048d91906123b0565b611289565b60405161049f91906120a1565b60405180910390f35b6104c260048036038101906104bd9190612427565b611550565b005b6104cc611704565b6040516104d991906120a1565b60405180910390f35b6104ea61170a565b6040516104f7919061249b565b60405180910390f35b61051a600480360381019061051591906124b6565b611730565b005b6105366004803603810190610531919061263c565b6117b6565b604051610544929190612756565b60405180910390f35b6000600680549050905090565b60045481565b6006818154811061057057600080fd5b90600052602060002090600502016000915090508060000160009054906101000a900473ffffffffffffffffffffffffffffffffffffffff16908060010154908060020154908060030154908060040154905085565b60085481565b6105d4611904565b80156105e3576105e2610cfc565b5b600060095442116105f6576009546105f8565b425b90508360085461060891906127bc565b60088190555060066040518060a001604052808573ffffffffffffffffffffffffffffffffffffffff168152602001868152602001838152602001600081526020016000815250908060018154018082558091505060019003906000526020600020906005020160009091909190915060008201518160000160006101000a81548173ffffffffffffffffffffffffffffffffffffffff021916908373ffffffffffffffffffffffffffffffffffffffff16021790555060208201518160010155604082015181600201556060820151816003015560808201518160040155505050505050565b600080600060068481548110610708576107076127f0565b5b90600052602060002090600502019050806003015481600201549250925050915091565b60006009544210156107415760009050610784565b6000600a54421061075457600a54610756565b425b905060025460095482610769919061281f565b6003546107769190612853565b610780919061281f565b9150505b90565b60006006838154811061079d5761079c6127f0565b5b9060005260206000209060050201905060006007600085815260200190815260200160002060003373ffffffffffffffffffffffffffffffffffffffff1673ffffffffffffffffffffffffffffffffffffffff16815260200190815260200160002090504281600201541115610848576040517f08c379a000000000000000000000000000000000000000000000000000000000815260040161083f90612918565b60405180910390fd5b828160000154101561088f576040517f08c379a0000000000000000000000000000000000000000000000000000000008152600401610886906129aa565b60405180910390fd5b61089884610a08565b600081600101546ec097ce7bc90715b34b9f1000000000846003015484600001546108c39190612853565b6108cd91906129f9565b6108d7919061281f565b90506108e3338261198b565b838260000160008282546108f7919061281f565b925050819055506ec097ce7bc90715b34b9f1000000000836003015483600001546109229190612853565b61092c91906129f9565b826001018190555061098333858560000160009054906101000a900473ffffffffffffffffffffffffffffffffffffffff1673ffffffffffffffffffffffffffffffffffffffff16611a499092919063ffffffff16565b83836004016000828254610997919061281f565b9250508190555060008411156109b257600082600201819055505b843373ffffffffffffffffffffffffffffffffffffffff167ff279e6a1f5e320cca91135676d9cb6e44ca8a08c0b88342bcdb1144f6511b568866040516109f991906120a1565b60405180910390a35050505050565b600060068281548110610a1e57610a1d6127f0565b5b906000526020600020906005020190506000600a544210610a4157600a54610a43565b425b905081600201548111610a5857816002015490505b60008260040154905060008103610a7a57818360020181905550505050610b4a565b6000836002015483610a8c919061281f565b90506000600854856001015460035484610aa69190612853565b610ab09190612853565b610aba91906129f9565b9050610afb6040518060400160405280600f81526020017f65726332305265776172643a202564000000000000000000000000000000000081525082611ac8565b826ec097ce7bc90715b34b9f100000000082610b179190612853565b610b2191906129f9565b856003016000828254610b3491906127bc565b9250508190555083856002018190555050505050505b50565b600060068281548110610b6357610b626127f0565b5b9060005260206000209060050201905060006007600084815260200190815260200160002060003373ffffffffffffffffffffffffffffffffffffffff1673ffffffffffffffffffffffffffffffffffffffff16815260200190815260200160002090504281600201541115610c0e576040517f08c379a0000000000000000000000000000000000000000000000000000000008152600401610c0590612a9c565b60405180910390fd5b610c613382600001548460000160009054906101000a900473ffffffffffffffffffffffffffffffffffffffff1673ffffffffffffffffffffffffffffffffffffffff16611a499092919063ffffffff16565b823373ffffffffffffffffffffffffffffffffffffffff167fbb757047c2b5f3974fe26b7c10f732e7bce710b0952a71082702781e62ae05958360000154604051610cac91906120a1565b60405180910390a38060000154826004016000828254610ccc919061281f565b92505081905550600081600001819055506000816001018190555060008160020181905550505050565b60025481565b6000600680549050905060005b81811015610d2557610d1a81610a08565b806001019050610d09565b5050565b610d31611904565b610d3b6000611b64565b565b600160009054906101000a900473ffffffffffffffffffffffffffffffffffffffff1681565b60008060009054906101000a900473ffffffffffffffffffffffffffffffffffffffff16905090565b60035481565b6007602052816000526040600020602052806000526040600020600091509150508060000154908060010154908060020154905083565b6000806007600085815260200190815260200160002060008473ffffffffffffffffffffffffffffffffffffffff1673ffffffffffffffffffffffffffffffffffffffff16815260200190815260200160002060405180608001604052908160008201548152602001600182015481526020016002820154815260200160038201805480602002602001604051908101604052809291908181526020018280548015610eca57602002820191906000526020600020905b8160009054906101000a900473ffffffffffffffffffffffffffffffffffffffff1673ffffffffffffffffffffffffffffffffffffffff1681526020019060010190808311610e80575b5050505050815250509050806000015191505092915050565b600a5481565b600a544210610f2d576040517f08c379a0000000000000000000000000000000000000000000000000000000008152600401610f2490612b2e565b60405180910390fd5b610f7c333083600160009054906101000a900473ffffffffffffffffffffffffffffffffffffffff1673ffffffffffffffffffffffffffffffffffffffff16611c28909392919063ffffffff16565b60035481610f8a91906129f9565b600a6000828254610f9b91906127bc565b9250508190555080600454610fb091906127bc565b60048190555050565b600042905090565b610fff6040518060400160405280601581526020017f3d3d3d207374617274206465706f736974203d3d3d0000000000000000000000815250611caa565b600060068381548110611015576110146127f0565b5b9060005260206000209060050201905060006007600085815260200190815260200160002060003373ffffffffffffffffffffffffffffffffffffffff1673ffffffffffffffffffffffffffffffffffffffff1681526020019081526020016000209050600083905061108785610a08565b60008260000154111561113357600082600101546ec097ce7bc90715b34b9f1000000000856003015485600001546110bf9190612853565b6110c991906129f9565b6110d3919061281f565b90506110fc604051806060016040528060268152602001612e0e60269139828560010154611d43565b611127604051806060016040528060258152602001612e346025913984600001548660030154611d43565b611131338261198b565b505b6111843330868660000160009054906101000a900473ffffffffffffffffffffffffffffffffffffffff1673ffffffffffffffffffffffffffffffffffffffff16611c28909392919063ffffffff16565b8083600401600082825461119891906127bc565b92505081905550808260000160008282546111b391906127bc565b925050819055506ec097ce7bc90715b34b9f1000000000836003015483600001546111de9190612853565b6111e891906129f9565b82600101819055506112336040518060400160405280601381526020017f757365722e726577617264446562743a202564000000000000000000000000008152508360010154611ac8565b843373ffffffffffffffffffffffffffffffffffffffff167f90890809c654f11d6e72a28fa60149770a0d11ec6c92319d6ceb2bb0a4ea1a158360405161127a91906120a1565b60405180910390a35050505050565b600080600684815481106112a05761129f6127f0565b5b90600052602060002090600502016040518060a00160405290816000820160009054906101000a900473ffffffffffffffffffffffffffffffffffffffff1673ffffffffffffffffffffffffffffffffffffffff1673ffffffffffffffffffffffffffffffffffffffff168152602001600182015481526020016002820154815260200160038201548152602001600482015481525050905060006007600086815260200190815260200160002060008573ffffffffffffffffffffffffffffffffffffffff1673ffffffffffffffffffffffffffffffffffffffff1681526020019081526020016000206040518060800160405290816000820154815260200160018201548152602001600282015481526020016003820180548060200260200160405190810160405280929190818152602001828054801561143957602002820191906000526020600020905b8160009054906101000a900473ffffffffffffffffffffffffffffffffffffffff1673ffffffffffffffffffffffffffffffffffffffff16815260200190600101908083116113ef575b505050505081525050905060008160000151905060008260200151905060008460800151905060008560600151905085604001514211801561147c575060008214155b15611511576000600a54421061149457600a54611496565b425b905060008760400151826114aa919061281f565b905060006008548960200151600354846114c49190612853565b6114ce9190612853565b6114d891906129f9565b9050846ec097ce7bc90715b34b9f1000000000826114f69190612853565b61150091906129f9565b8461150b91906127bc565b93505050505b826ec097ce7bc90715b34b9f1000000000828661152e9190612853565b61153891906129f9565b611542919061281f565b965050505050505092915050565b600560009054906101000a900473ffffffffffffffffffffffffffffffffffffffff1673ffffffffffffffffffffffffffffffffffffffff1663a00249e8336040518263ffffffff1660e01b81526004016115ab9190612369565b602060405180830381865afa1580156115c8573d6000803e3d6000fd5b505050506040513d601f19601f820116820180604052508101906115ec9190612b63565b61162b576040517f08c379a000000000000000000000000000000000000000000000000000000000815260040161162290612c02565b60405180910390fd5b60006007600085815260200190815260200160002060008473ffffffffffffffffffffffffffffffffffffffff1673ffffffffffffffffffffffffffffffffffffffff1681526020019081526020016000209050428160020154111561169057600080fd5b81816002018190555080600301339080600181540180825580915050600190039060005260206000200160009091909190916101000a81548173ffffffffffffffffffffffffffffffffffffffff021916908373ffffffffffffffffffffffffffffffffffffffff16021790555050505050565b60095481565b600560009054906101000a900473ffffffffffffffffffffffffffffffffffffffff1681565b611738611904565b600073ffffffffffffffffffffffffffffffffffffffff168173ffffffffffffffffffffffffffffffffffffffff16036117aa5760006040517f1e4fbdf70000000000000000000000000000000000000000000000000000000081526004016117a19190612369565b60405180910390fd5b6117b381611b64565b50565b6060806000845167ffffffffffffffff8111156117d6576117d56124f9565b5b6040519080825280602002602001820160405280156118045781602001602082028036833780820191505090505b5090506000855167ffffffffffffffff811115611824576118236124f9565b5b6040519080825280602002602001820160405280156118525781602001602082028036833780820191505090505b50905060005b86518110156118f45761188586888381518110611878576118776127f0565b5b6020026020010151611289565b838281518110611898576118976127f0565b5b6020026020010181815250506118c8868883815181106118bb576118ba6127f0565b5b6020026020010151610dc9565b8282815181106118db576118da6127f0565b5b6020026020010181815250508080600101915050611858565b5081819350935050509250929050565b61190c611de2565b73ffffffffffffffffffffffffffffffffffffffff1661192a610d63565b73ffffffffffffffffffffffffffffffffffffffff16146119895761194d611de2565b6040517f118cdaa70000000000000000000000000000000000000000000000000000000081526004016119809190612369565b60405180910390fd5b565b600160009054906101000a900473ffffffffffffffffffffffffffffffffffffffff1673ffffffffffffffffffffffffffffffffffffffff1663a9059cbb83836040518363ffffffff1660e01b81526004016119e8929190612c22565b6020604051808303816000875af1158015611a07573d6000803e3d6000fd5b505050506040513d601f19601f82011682018060405250810190611a2b9190612b63565b508060026000828254611a3e91906127bc565b925050819055505050565b611ac3838473ffffffffffffffffffffffffffffffffffffffff1663a9059cbb8585604051602401611a7c929190612c22565b604051602081830303815290604052915060e01b6020820180517bffffffffffffffffffffffffffffffffffffffffffffffffffffffff8381831617835250505050611dea565b505050565b611b608282604051602401611ade929190612cb9565b6040516020818303038152906040527fb60e72cc000000000000000000000000000000000000000000000000000000007bffffffffffffffffffffffffffffffffffffffffffffffffffffffff19166020820180517bffffffffffffffffffffffffffffffffffffffffffffffffffffffff8381831617835250505050611e81565b5050565b60008060009054906101000a900473ffffffffffffffffffffffffffffffffffffffff169050816000806101000a81548173ffffffffffffffffffffffffffffffffffffffff021916908373ffffffffffffffffffffffffffffffffffffffff1602179055508173ffffffffffffffffffffffffffffffffffffffff168173ffffffffffffffffffffffffffffffffffffffff167f8be0079c531659141344cd1fd0a4f28419497f9722a3daafe3b4186f6b6457e060405160405180910390a35050565b611ca4848573ffffffffffffffffffffffffffffffffffffffff166323b872dd868686604051602401611c5d93929190612ce9565b604051602081830303815290604052915060e01b6020820180517bffffffffffffffffffffffffffffffffffffffffffffffffffffffff8381831617835250505050611dea565b50505050565b611d4081604051602401611cbe9190612d20565b6040516020818303038152906040527f41304fac000000000000000000000000000000000000000000000000000000007bffffffffffffffffffffffffffffffffffffffffffffffffffffffff19166020820180517bffffffffffffffffffffffffffffffffffffffffffffffffffffffff8381831617835250505050611e81565b50565b611ddd838383604051602401611d5b93929190612d42565b6040516020818303038152906040527fca47c4eb000000000000000000000000000000000000000000000000000000007bffffffffffffffffffffffffffffffffffffffffffffffffffffffff19166020820180517bffffffffffffffffffffffffffffffffffffffffffffffffffffffff8381831617835250505050611e81565b505050565b600033905090565b6000611e15828473ffffffffffffffffffffffffffffffffffffffff16611e9b90919063ffffffff16565b90506000815114158015611e3a575080806020019051810190611e389190612b63565b155b15611e7c57826040517f5274afe7000000000000000000000000000000000000000000000000000000008152600401611e739190612369565b60405180910390fd5b505050565b611e9881611e90611eb1611ed2565b63ffffffff16565b50565b6060611ea983836000611edd565b905092915050565b60006a636f6e736f6c652e6c6f679050600080835160208501845afa505050565b61207e819050919050565b606081471015611f2457306040517fcd786059000000000000000000000000000000000000000000000000000000008152600401611f1b9190612369565b60405180910390fd5b6000808573ffffffffffffffffffffffffffffffffffffffff168486604051611f4d9190612dc7565b60006040518083038185875af1925050503d8060008114611f8a576040519150601f19603f3d011682016040523d82523d6000602084013e611f8f565b606091505b5091509150611f9f868383611faa565b925050509392505050565b606082611fbf57611fba82612039565b612031565b60008251148015611fe7575060008473ffffffffffffffffffffffffffffffffffffffff163b145b1561202957836040517f9996b3150000000000000000000000000000000000000000000000000000000081526004016120209190612369565b60405180910390fd5b819050612032565b5b9392505050565b60008151111561204c5780518082602001fd5b6040517f1425ea4200000000000000000000000000000000000000000000000000000000815260040160405180910390fd5b612086612dde565b565b6000819050919050565b61209b81612088565b82525050565b60006020820190506120b66000830184612092565b92915050565b6000604051905090565b600080fd5b600080fd5b6120d981612088565b81146120e457600080fd5b50565b6000813590506120f6816120d0565b92915050565b600060208284031215612112576121116120c6565b5b6000612120848285016120e7565b91505092915050565b600073ffffffffffffffffffffffffffffffffffffffff82169050919050565b6000819050919050565b600061216e61216961216484612129565b612149565b612129565b9050919050565b600061218082612153565b9050919050565b600061219282612175565b9050919050565b6121a281612187565b82525050565b600060a0820190506121bd6000830188612199565b6121ca6020830187612092565b6121d76040830186612092565b6121e46060830185612092565b6121f16080830184612092565b9695505050505050565b600061220682612129565b9050919050565b6000612218826121fb565b9050919050565b6122288161220d565b811461223357600080fd5b50565b6000813590506122458161221f565b92915050565b60008115159050919050565b6122608161224b565b811461226b57600080fd5b50565b60008135905061227d81612257565b92915050565b60008060006060848603121561229c5761229b6120c6565b5b60006122aa868287016120e7565b93505060206122bb86828701612236565b92505060406122cc8682870161226e565b9150509250925092565b60006040820190506122eb6000830185612092565b6122f86020830184612092565b9392505050565b60008060408385031215612316576123156120c6565b5b6000612324858286016120e7565b9250506020612335858286016120e7565b9150509250929050565b60006020820190506123546000830184612199565b92915050565b612363816121fb565b82525050565b600060208201905061237e600083018461235a565b92915050565b61238d816121fb565b811461239857600080fd5b50565b6000813590506123aa81612384565b92915050565b600080604083850312156123c7576123c66120c6565b5b60006123d5858286016120e7565b92505060206123e68582860161239b565b9150509250929050565b60006060820190506124056000830186612092565b6124126020830185612092565b61241f6040830184612092565b949350505050565b6000806000606084860312156124405761243f6120c6565b5b600061244e868287016120e7565b935050602061245f8682870161239b565b9250506040612470868287016120e7565b9150509250925092565b600061248582612175565b9050919050565b6124958161247a565b82525050565b60006020820190506124b0600083018461248c565b92915050565b6000602082840312156124cc576124cb6120c6565b5b60006124da8482850161239b565b91505092915050565b600080fd5b6000601f19601f8301169050919050565b7f4e487b7100000000000000000000000000000000000000000000000000000000600052604160045260246000fd5b612531826124e8565b810181811067ffffffffffffffff821117156125505761254f6124f9565b5b80604052505050565b60006125636120bc565b905061256f8282612528565b919050565b600067ffffffffffffffff82111561258f5761258e6124f9565b5b602082029050602081019050919050565b600080fd5b60006125b86125b384612574565b612559565b905080838252602082019050602084028301858111156125db576125da6125a0565b5b835b8181101561260457806125f0888261239b565b8452602084019350506020810190506125dd565b5050509392505050565b600082601f830112612623576126226124e3565b5b81356126338482602086016125a5565b91505092915050565b60008060408385031215612653576126526120c6565b5b600083013567ffffffffffffffff811115612671576126706120cb565b5b61267d8582860161260e565b925050602061268e858286016120e7565b9150509250929050565b600081519050919050565b600082825260208201905092915050565b6000819050602082019050919050565b6126cd81612088565b82525050565b60006126df83836126c4565b60208301905092915050565b6000602082019050919050565b600061270382612698565b61270d81856126a3565b9350612718836126b4565b8060005b8381101561274957815161273088826126d3565b975061273b836126eb565b92505060018101905061271c565b5085935050505092915050565b6000604082019050818103600083015261277081856126f8565b9050818103602083015261278481846126f8565b90509392505050565b7f4e487b7100000000000000000000000000000000000000000000000000000000600052601160045260246000fd5b60006127c782612088565b91506127d283612088565b92508282019050808211156127ea576127e961278d565b5b92915050565b7f4e487b7100000000000000000000000000000000000000000000000000000000600052603260045260246000fd5b600061282a82612088565b915061283583612088565b925082820390508181111561284d5761284c61278d565b5b92915050565b600061285e82612088565b915061286983612088565b925082820261287781612088565b9150828204841483151761288e5761288d61278d565b5b5092915050565b600082825260208201905092915050565b7f4c6173742073616c6520796f75207265676973746572656420666f722069732060008201527f6e6f742066696e6973686564207965742e000000000000000000000000000000602082015250565b6000612902603183612895565b915061290d826128a6565b604082019050919050565b60006020820190508181036000830152612931816128f5565b9050919050565b7f77697468647261773a2063616e2774207769746864726177206d6f726520746860008201527f616e206465706f73697400000000000000000000000000000000000000000000602082015250565b6000612994602a83612895565b915061299f82612938565b604082019050919050565b600060208201905081810360008301526129c381612987565b9050919050565b7f4e487b7100000000000000000000000000000000000000000000000000000000600052601260045260246000fd5b6000612a0482612088565b9150612a0f83612088565b925082612a1f57612a1e6129ca565b5b828204905092915050565b7f456d657267656e637920776974686472617720626c6f636b656420647572696e60008201527f672073616c6520616e6420636f6f6c646f776e20706572696f642e0000000000602082015250565b6000612a86603b83612895565b9150612a9182612a2a565b604082019050919050565b60006020820190508181036000830152612ab581612a79565b9050919050565b7f66756e643a20746f6f206c6174652c20746865206661726d20697320636c6f7360008201527f6564000000000000000000000000000000000000000000000000000000000000602082015250565b6000612b18602283612895565b9150612b2382612abc565b604082019050919050565b60006020820190508181036000830152612b4781612b0b565b9050919050565b600081519050612b5d81612257565b92915050565b600060208284031215612b7957612b786120c6565b5b6000612b8784828501612b4e565b91505092915050565b7f53616c65206e6f742063726561746564207468726f75676820666163746f727960008201527f2e00000000000000000000000000000000000000000000000000000000000000602082015250565b6000612bec602183612895565b9150612bf782612b90565b604082019050919050565b60006020820190508181036000830152612c1b81612bdf565b9050919050565b6000604082019050612c37600083018561235a565b612c446020830184612092565b9392505050565b600081519050919050565b60005b83811015612c74578082015181840152602081019050612c59565b60008484015250505050565b6000612c8b82612c4b565b612c958185612895565b9350612ca5818560208601612c56565b612cae816124e8565b840191505092915050565b60006040820190508181036000830152612cd38185612c80565b9050612ce26020830184612092565b9392505050565b6000606082019050612cfe600083018661235a565b612d0b602083018561235a565b612d186040830184612092565b949350505050565b60006020820190508181036000830152612d3a8184612c80565b905092915050565b60006060820190508181036000830152612d5c8186612c80565b9050612d6b6020830185612092565b612d786040830184612092565b949350505050565b600081519050919050565b600081905092915050565b6000612da182612d80565b612dab8185612d8b565b9350612dbb818560208601612c56565b80840191505092915050565b6000612dd38284612d96565b915081905092915050565b7f4e487b7100000000000000000000000000000000000000000000000000000000600052605160045260246000fdfe70656e64696e67416d6f756e743a2025642c20757365722e726577617264446562743a202564757365722e616d6f756e743a2025642c20616363455243323050657253686172653a202564a2646970667358221220375cdb9676c5f5eb0d46e5d41effd761d5512b6f09fcddf488b46a1982dfca2f64736f6c63430008180033",
  "linkReferences": {},
  "deployedLinkReferences": {}
}