{
  "_format": "hh-sol-artifact-1",
  "contractName": "Airdrop",
  "sourceName": "contracts/Airdrop.sol",
  "abi": [
    {
      "inputs": [
        {
          "internalType": "address",
          "name": "airdropToken_",
          "type": "address"
        }
      ],
      "stateMutability": "nonpayable",
      "type": "constructor"
    },
    {
      "anonymous": false,
      "inputs": [
        {
          "indexed": false,
          "internalType": "address",
          "name": "beneficiary",
          "type": "address"
        }
      ],
      "name": "TokensAirdropped",
      "type": "event"
    },
    {
      "inputs": [],
      "name": "TOKENS_PER_CLAIM",
      "outputs": [
        {
          "internalType": "uint256",
          "name": "",
          "type": "uint256"
        }
      ],
      "stateMutability": "view",
      "type": "function"
    },
    {
      "inputs": [],
      "name": "airdropToken",
      "outputs": [
        {
          "internalType": "contract IERC20",
          "name": "",
          "type": "address"
        }
      ],
      "stateMutability": "view",
      "type": "function"
    },
    {
      "inputs": [],
      "name": "totalTokensWithdrawn",
      "outputs": [
        {
          "internalType": "uint256",
          "name": "",
          "type": "uint256"
        }
      ],
      "stateMutability": "view",
      "type": "function"
    },
    {
      "inputs": [
        {
          "internalType": "address",
          "name": "",
          "type": "address"
        }
      ],
      "name": "wasClaimed",
      "outputs": [
        {
          "internalType": "bool",
          "name": "",
          "type": "bool"
        }
      ],
      "stateMutability": "view",
      "type": "function"
    },
    {
      "inputs": [],
      "name": "withdrawTokens",
      "outputs": [],
      "stateMutability": "nonpayable",
      "type": "function"
    }
  ],
  "bytecode": "0x608060405234801561001057600080fd5b5060405161096c38038061096c83398181016040528101906100329190610114565b600073ffffffffffffffffffffffffffffffffffffffff168173ffffffffffffffffffffffffffffffffffffffff160361006b57600080fd5b806000806101000a81548173ffffffffffffffffffffffffffffffffffffffff021916908373ffffffffffffffffffffffffffffffffffffffff16021790555050610141565b600080fd5b600073ffffffffffffffffffffffffffffffffffffffff82169050919050565b60006100e1826100b6565b9050919050565b6100f1816100d6565b81146100fc57600080fd5b50565b60008151905061010e816100e8565b92915050565b60006020828403121561012a576101296100b1565b5b6000610138848285016100ff565b91505092915050565b61081c806101506000396000f3fe608060405234801561001057600080fd5b50600436106100575760003560e01c80634d06068a1461005c5780638d8f2adb1461007a578063bd8d8c3214610084578063cac37f93146100b4578063ccfff679146100d2575b600080fd5b6100646100f0565b6040516100719190610467565b60405180910390f35b610082610114565b005b61009e600480360381019061009991906104c5565b6103b5565b6040516100ab919061050d565b60405180910390f35b6100bc6103d5565b6040516100c99190610541565b60405180910390f35b6100da6103db565b6040516100e79190610541565b60405180910390f35b60008054906101000a900473ffffffffffffffffffffffffffffffffffffffff1681565b3273ffffffffffffffffffffffffffffffffffffffff163373ffffffffffffffffffffffffffffffffffffffff1614610182576040517f08c379a0000000000000000000000000000000000000000000000000000000008152600401610179906105df565b60405180910390fd5b6000339050600260008273ffffffffffffffffffffffffffffffffffffffff1673ffffffffffffffffffffffffffffffffffffffff16815260200190815260200160002060009054906101000a900460ff1615610214576040517f08c379a000000000000000000000000000000000000000000000000000000000815260040161020b9061064b565b60405180910390fd5b6001600260003373ffffffffffffffffffffffffffffffffffffffff1673ffffffffffffffffffffffffffffffffffffffff16815260200190815260200160002060006101000a81548160ff02191690831515021790555060008060009054906101000a900473ffffffffffffffffffffffffffffffffffffffff1673ffffffffffffffffffffffffffffffffffffffff1663a9059cbb8368056bc75e2d631000006040518363ffffffff1660e01b81526004016102d392919061067a565b6020604051808303816000875af11580156102f2573d6000803e3d6000fd5b505050506040513d601f19601f8201168201806040525081019061031691906106cf565b905080610358576040517f08c379a000000000000000000000000000000000000000000000000000000000815260040161034f90610748565b60405180910390fd5b68056bc75e2d63100000600160008282546103739190610797565b925050819055507fdf23082d2b28b19078bc48141d3fdbfd14390048297d149755a09e7edd8129a9826040516103a991906107cb565b60405180910390a15050565b60026020528060005260406000206000915054906101000a900460ff1681565b60015481565b68056bc75e2d6310000081565b600073ffffffffffffffffffffffffffffffffffffffff82169050919050565b6000819050919050565b600061042d610428610423846103e8565b610408565b6103e8565b9050919050565b600061043f82610412565b9050919050565b600061045182610434565b9050919050565b61046181610446565b82525050565b600060208201905061047c6000830184610458565b92915050565b600080fd5b6000610492826103e8565b9050919050565b6104a281610487565b81146104ad57600080fd5b50565b6000813590506104bf81610499565b92915050565b6000602082840312156104db576104da610482565b5b60006104e9848285016104b0565b91505092915050565b60008115159050919050565b610507816104f2565b82525050565b600060208201905061052260008301846104fe565b92915050565b6000819050919050565b61053b81610528565b82525050565b60006020820190506105566000830184610532565b92915050565b600082825260208201905092915050565b7f526571756972652074686174206d6573736167652073656e646572206973207460008201527f782d6f726967696e2e0000000000000000000000000000000000000000000000602082015250565b60006105c960298361055c565b91506105d48261056d565b604082019050919050565b600060208201905081810360008301526105f8816105bc565b9050919050565b7f416c726561647920636c61696d65642100000000000000000000000000000000600082015250565b600061063560108361055c565b9150610640826105ff565b602082019050919050565b6000602082019050818103600083015261066481610628565b9050919050565b61067481610487565b82525050565b600060408201905061068f600083018561066b565b61069c6020830184610532565b9392505050565b6106ac816104f2565b81146106b757600080fd5b50565b6000815190506106c9816106a3565b92915050565b6000602082840312156106e5576106e4610482565b5b60006106f3848285016106ba565b91505092915050565b7f546f6b656e207472616e73666572207374617475732069732066616c73652e00600082015250565b6000610732601f8361055c565b915061073d826106fc565b602082019050919050565b6000602082019050818103600083015261076181610725565b9050919050565b7f4e487b7100000000000000000000000000000000000000000000000000000000600052601160045260246000fd5b60006107a282610528565b91506107ad83610528565b92508282019050808211156107c5576107c4610768565b5b92915050565b60006020820190506107e0600083018461066b565b9291505056fea2646970667358221220861235b82bd532c1c0f5e552373ee06f4712f3ea3fb6c7b691a83d588d9021da64736f6c63430008180033",
  "linkReferences": {},
  "deployedLinkReferences": {}
}