{
  "_format": "hh-sol-artifact-1",
  "contractName": "FarmingC2N",
  "sourceName": "contracts/farming/FarmingC2N.sol",
  "abi": [
    {
      "inputs": [
        {
          "internalType": "contract IERC20",
          "name": "_erc20",
          "type": "address"
        },
        {
          "internalType": "uint256",
          "name": "_rewardPerSecond",
          "type": "uint256"
        },
        {
          "internalType": "uint256",
          "name": "_startTimestamp",
          "type": "uint256"
        }
      ],
      "stateMutability": "nonpayable",
      "type": "constructor"
    },
    {
      "inputs": [
        {
          "internalType": "address",
          "name": "target",
          "type": "address"
        }
      ],
      "name": "AddressEmptyCode",
      "type": "error"
    },
    {
      "inputs": [
        {
          "internalType": "address",
          "name": "account",
          "type": "address"
        }
      ],
      "name": "AddressInsufficientBalance",
      "type": "error"
    },
    {
      "inputs": [],
      "name": "FailedInnerCall",
      "type": "error"
    },
    {
      "inputs": [
        {
          "internalType": "address",
          "name": "owner",
          "type": "address"
        }
      ],
      "name": "OwnableInvalidOwner",
      "type": "error"
    },
    {
      "inputs": [
        {
          "internalType": "address",
          "name": "account",
          "type": "address"
        }
      ],
      "name": "OwnableUnauthorizedAccount",
      "type": "error"
    },
    {
      "inputs": [
        {
          "internalType": "address",
          "name": "token",
          "type": "address"
        }
      ],
      "name": "SafeERC20FailedOperation",
      "type": "error"
    },
    {
      "anonymous": false,
      "inputs": [
        {
          "indexed": true,
          "internalType": "address",
          "name": "user",
          "type": "address"
        },
        {
          "indexed": true,
          "internalType": "uint256",
          "name": "pid",
          "type": "uint256"
        },
        {
          "indexed": false,
          "internalType": "uint256",
          "name": "rewards",
          "type": "uint256"
        }
      ],
      "name": "Claim",
      "type": "event"
    },
    {
      "anonymous": false,
      "inputs": [
        {
          "indexed": true,
          "internalType": "address",
          "name": "user",
          "type": "address"
        },
        {
          "indexed": true,
          "internalType": "uint256",
          "name": "pid",
          "type": "uint256"
        },
        {
          "indexed": false,
          "internalType": "uint256",
          "name": "amount",
          "type": "uint256"
        }
      ],
      "name": "Deposit",
      "type": "event"
    },
    {
      "anonymous": false,
      "inputs": [
        {
          "indexed": true,
          "internalType": "address",
          "name": "user",
          "type": "address"
        },
        {
          "indexed": true,
          "internalType": "uint256",
          "name": "pid",
          "type": "uint256"
        },
        {
          "indexed": false,
          "internalType": "uint256",
          "name": "amount",
          "type": "uint256"
        }
      ],
      "name": "EmergencyWithdraw",
      "type": "event"
    },
    {
      "anonymous": false,
      "inputs": [
        {
          "indexed": false,
          "internalType": "uint256",
          "name": "timestamp",
          "type": "uint256"
        }
      ],
      "name": "NewBlock",
      "type": "event"
    },
    {
      "anonymous": false,
      "inputs": [
        {
          "indexed": true,
          "internalType": "address",
          "name": "previousOwner",
          "type": "address"
        },
        {
          "indexed": true,
          "internalType": "address",
          "name": "newOwner",
          "type": "address"
        }
      ],
      "name": "OwnershipTransferred",
      "type": "event"
    },
    {
      "anonymous": false,
      "inputs": [
        {
          "indexed": true,
          "internalType": "address",
          "name": "user",
          "type": "address"
        },
        {
          "indexed": true,
          "internalType": "uint256",
          "name": "pid",
          "type": "uint256"
        },
        {
          "indexed": false,
          "internalType": "uint256",
          "name": "amount",
          "type": "uint256"
        }
      ],
      "name": "Withdraw",
      "type": "event"
    },
    {
      "inputs": [
        {
          "internalType": "uint256",
          "name": "_allocPoint",
          "type": "uint256"
        },
        {
          "internalType": "contract IERC20",
          "name": "_lpToken",
          "type": "address"
        },
        {
          "internalType": "bool",
          "name": "_withUpdate",
          "type": "bool"
        }
      ],
      "name": "add",
      "outputs": [],
      "stateMutability": "nonpayable",
      "type": "function"
    },
    {
      "inputs": [
        {
          "internalType": "uint256",
          "name": "_pid",
          "type": "uint256"
        }
      ],
      "name": "claim",
      "outputs": [],
      "stateMutability": "nonpayable",
      "type": "function"
    },
    {
      "inputs": [],
      "name": "createNewBlock",
      "outputs": [
        {
          "internalType": "uint256",
          "name": "",
          "type": "uint256"
        }
      ],
      "stateMutability": "nonpayable",
      "type": "function"
    },
    {
      "inputs": [
        {
          "internalType": "uint256",
          "name": "_pid",
          "type": "uint256"
        },
        {
          "internalType": "uint256",
          "name": "_amount",
          "type": "uint256"
        }
      ],
      "name": "deposit",
      "outputs": [],
      "stateMutability": "nonpayable",
      "type": "function"
    },
    {
      "inputs": [
        {
          "internalType": "uint256",
          "name": "_pid",
          "type": "uint256"
        },
        {
          "internalType": "address",
          "name": "_user",
          "type": "address"
        }
      ],
      "name": "deposited",
      "outputs": [
        {
          "internalType": "uint256",
          "name": "",
          "type": "uint256"
        }
      ],
      "stateMutability": "view",
      "type": "function"
    },
    {
      "inputs": [],
      "name": "endTimestamp",
      "outputs": [
        {
          "internalType": "uint256",
          "name": "",
          "type": "uint256"
        }
      ],
      "stateMutability": "view",
      "type": "function"
    },
    {
      "inputs": [],
      "name": "erc20",
      "outputs": [
        {
          "internalType": "contract IERC20",
          "name": "",
          "type": "address"
        }
      ],
      "stateMutability": "view",
      "type": "function"
    },
    {
      "inputs": [
        {
          "internalType": "uint256",
          "name": "_amount",
          "type": "uint256"
        }
      ],
      "name": "fund",
      "outputs": [],
      "stateMutability": "nonpayable",
      "type": "function"
    },
    {
      "inputs": [],
      "name": "massUpdatePools",
      "outputs": [],
      "stateMutability": "nonpayable",
      "type": "function"
    },
    {
      "inputs": [],
      "name": "owner",
      "outputs": [
        {
          "internalType": "address",
          "name": "",
          "type": "address"
        }
      ],
      "stateMutability": "view",
      "type": "function"
    },
    {
      "inputs": [],
      "name": "paidOut",
      "outputs": [
        {
          "internalType": "uint256",
          "name": "",
          "type": "uint256"
        }
      ],
      "stateMutability": "view",
      "type": "function"
    },
    {
      "inputs": [
        {
          "internalType": "uint256",
          "name": "_pid",
          "type": "uint256"
        },
        {
          "internalType": "address",
          "name": "_user",
          "type": "address"
        }
      ],
      "name": "pending",
      "outputs": [
        {
          "internalType": "uint256",
          "name": "",
          "type": "uint256"
        }
      ],
      "stateMutability": "view",
      "type": "function"
    },
    {
      "inputs": [
        {
          "internalType": "uint256",
          "name": "",
          "type": "uint256"
        }
      ],
      "name": "poolInfo",
      "outputs": [
        {
          "internalType": "contract IERC20",
          "name": "lpToken",
          "type": "address"
        },
        {
          "internalType": "uint256",
          "name": "allocPoint",
          "type": "uint256"
        },
        {
          "internalType": "uint256",
          "name": "totalDeposits",
          "type": "uint256"
        },
        {
          "internalType": "uint256",
          "name": "accumulatedPerTokenRewards",
          "type": "uint256"
        },
        {
          "internalType": "uint256",
          "name": "lastUpdated",
          "type": "uint256"
        }
      ],
      "stateMutability": "view",
      "type": "function"
    },
    {
      "inputs": [],
      "name": "poolLength",
      "outputs": [
        {
          "internalType": "uint256",
          "name": "",
          "type": "uint256"
        }
      ],
      "stateMutability": "view",
      "type": "function"
    },
    {
      "inputs": [],
      "name": "renounceOwnership",
      "outputs": [],
      "stateMutability": "nonpayable",
      "type": "function"
    },
    {
      "inputs": [],
      "name": "rewardPerSecond",
      "outputs": [
        {
          "internalType": "uint256",
          "name": "",
          "type": "uint256"
        }
      ],
      "stateMutability": "view",
      "type": "function"
    },
    {
      "inputs": [
        {
          "internalType": "uint256",
          "name": "_pid",
          "type": "uint256"
        },
        {
          "internalType": "uint256",
          "name": "_allocPoint",
          "type": "uint256"
        },
        {
          "internalType": "bool",
          "name": "_withUpdate",
          "type": "bool"
        }
      ],
      "name": "set",
      "outputs": [],
      "stateMutability": "nonpayable",
      "type": "function"
    },
    {
      "inputs": [],
      "name": "startTimestamp",
      "outputs": [
        {
          "internalType": "uint256",
          "name": "",
          "type": "uint256"
        }
      ],
      "stateMutability": "view",
      "type": "function"
    },
    {
      "inputs": [],
      "name": "totalAllocPoint",
      "outputs": [
        {
          "internalType": "uint256",
          "name": "",
          "type": "uint256"
        }
      ],
      "stateMutability": "view",
      "type": "function"
    },
    {
      "inputs": [],
      "name": "totalPending",
      "outputs": [
        {
          "internalType": "uint256",
          "name": "",
          "type": "uint256"
        }
      ],
      "stateMutability": "view",
      "type": "function"
    },
    {
      "inputs": [],
      "name": "totalRewards",
      "outputs": [
        {
          "internalType": "uint256",
          "name": "",
          "type": "uint256"
        }
      ],
      "stateMutability": "view",
      "type": "function"
    },
    {
      "inputs": [
        {
          "internalType": "address",
          "name": "newOwner",
          "type": "address"
        }
      ],
      "name": "transferOwnership",
      "outputs": [],
      "stateMutability": "nonpayable",
      "type": "function"
    },
    {
      "inputs": [
        {
          "internalType": "uint256",
          "name": "",
          "type": "uint256"
        },
        {
          "internalType": "address",
          "name": "",
          "type": "address"
        }
      ],
      "name": "userInfo",
      "outputs": [
        {
          "internalType": "uint256",
          "name": "userStake",
          "type": "uint256"
        },
        {
          "internalType": "uint256",
          "name": "accumulated",
          "type": "uint256"
        },
        {
          "internalType": "uint256",
          "name": "checkpoint",
          "type": "uint256"
        }
      ],
      "stateMutability": "view",
      "type": "function"
    },
    {
      "inputs": [
        {
          "internalType": "uint256",
          "name": "_pid",
          "type": "uint256"
        },
        {
          "internalType": "uint256",
          "name": "_amount",
          "type": "uint256"
        }
      ],
      "name": "withdraw",
      "outputs": [],
      "stateMutability": "nonpayable",
      "type": "function"
    }
  ],
  "bytecode": "0x60e06040523480156200001157600080fd5b50604051620027eb380380620027eb833981810160405281019062000037919062000290565b33600073ffffffffffffffffffffffffffffffffffffffff168173ffffffffffffffffffffffffffffffffffffffff1603620000ad5760006040517f1e4fbdf7000000000000000000000000000000000000000000000000000000008152600401620000a49190620002fd565b60405180910390fd5b620000be816200011360201b60201c565b508273ffffffffffffffffffffffffffffffffffffffff1660808173ffffffffffffffffffffffffffffffffffffffff16815250508160a081815250508060c08181525050806004819055505050506200031a565b60008060009054906101000a900473ffffffffffffffffffffffffffffffffffffffff169050816000806101000a81548173ffffffffffffffffffffffffffffffffffffffff021916908373ffffffffffffffffffffffffffffffffffffffff1602179055508173ffffffffffffffffffffffffffffffffffffffff168173ffffffffffffffffffffffffffffffffffffffff167f8be0079c531659141344cd1fd0a4f28419497f9722a3daafe3b4186f6b6457e060405160405180910390a35050565b600080fd5b600073ffffffffffffffffffffffffffffffffffffffff82169050919050565b60006200020982620001dc565b9050919050565b60006200021d82620001fc565b9050919050565b6200022f8162000210565b81146200023b57600080fd5b50565b6000815190506200024f8162000224565b92915050565b6000819050919050565b6200026a8162000255565b81146200027657600080fd5b50565b6000815190506200028a816200025f565b92915050565b600080600060608486031215620002ac57620002ab620001d7565b5b6000620002bc868287016200023e565b9350506020620002cf8682870162000279565b9250506040620002e28682870162000279565b9150509250925092565b620002f781620001fc565b82525050565b6000602082019050620003146000830184620002ec565b92915050565b60805160a05160c05161244d6200039e600039600081816104df01528181610506015281816109200152818161096a01528181611206015261165901526000818161099601528181610d0401528181610e4f0152818161174f015261179e0152600081816107df0152818161088301528181610cb70152610e08015261244d6000f3fe608060405234801561001057600080fd5b50600436106101585760003560e01c8063785e9e86116100c3578063a85adeab1161007c578063a85adeab14610385578063ca1d209d146103a3578063e2bbb158146103bf578063e4c75c27146103db578063e6fd48bc1461040b578063f2fde38b1461042957610158565b8063785e9e86146102ab5780638da5cb5b146102c95780638f10369a146102e7578063919ddef31461030557806393f1a40b14610323578063a23831061461035557610158565b80633f90916a116101155780633f90916a14610223578063441a3e70146102415780635c76ca2d1461025d578063630b5ba11461027b57806364482f7914610285578063715018a6146102a157610158565b8063081e3eda1461015d5780630e15561a1461017b5780631526fe271461019957806317caf6f1146101cd5780631eaaa045146101eb578063379607f514610207575b600080fd5b610165610445565b6040516101729190611b61565b60405180910390f35b610183610452565b6040516101909190611b61565b60405180910390f35b6101b360048036038101906101ae9190611bad565b610458565b6040516101c4959493929190611c59565b60405180910390f35b6101d56104be565b6040516101e29190611b61565b60405180910390f35b61020560048036038101906102009190611d34565b6104c4565b005b610221600480360381019061021c9190611bad565b610628565b005b61022b61091c565b6040516102389190611b61565b60405180910390f35b61025b60048036038101906102569190611d87565b6109d0565b005b610265610bd8565b6040516102729190611b61565b60405180910390f35b610283610bde565b005b61029f600480360381019061029a9190611dc7565b610c32565b005b6102a9610ca1565b005b6102b3610cb5565b6040516102c09190611e1a565b60405180910390f35b6102d1610cd9565b6040516102de9190611e44565b60405180910390f35b6102ef610d02565b6040516102fc9190611b61565b60405180910390f35b61030d610d26565b60405161031a9190611b61565b60405180910390f35b61033d60048036038101906103389190611e8b565b610d65565b60405161034c93929190611ecb565b60405180910390f35b61036f600480360381019061036a9190611e8b565b610d9c565b60405161037c9190611b61565b60405180910390f35b61038d610dfa565b60405161039a9190611b61565b60405180910390f35b6103bd60048036038101906103b89190611bad565b610e00565b005b6103d960048036038101906103d49190611d87565b610ead565b005b6103f560048036038101906103f09190611e8b565b611076565b6040516104029190611b61565b60405180910390f35b610413611204565b6040516104209190611b61565b60405180910390f35b610443600480360381019061043e9190611f02565b611228565b005b6000600280549050905090565b60055481565b6002818154811061046857600080fd5b90600052602060002090600502016000915090508060000160009054906101000a900473ffffffffffffffffffffffffffffffffffffffff16908060010154908060020154908060030154908060040154905085565b60035481565b6104cc6112ae565b80156104db576104da610bde565b5b60007f0000000000000000000000000000000000000000000000000000000000000000421161052a577f000000000000000000000000000000000000000000000000000000000000000061052c565b425b905083600360008282546105409190611f5e565b9250508190555060026040518060a001604052808573ffffffffffffffffffffffffffffffffffffffff168152602001868152602001600081526020016000815260200183815250908060018154018082558091505060019003906000526020600020906005020160009091909190915060008201518160000160006101000a81548173ffffffffffffffffffffffffffffffffffffffff021916908373ffffffffffffffffffffffffffffffffffffffff16021790555060208201518160010155604082015181600201556060820151816003015560808201518160040155505050505050565b60006002828154811061063e5761063d611f92565b5b9060005260206000209060050201905060006001600084815260200190815260200160002060003373ffffffffffffffffffffffffffffffffffffffff1673ffffffffffffffffffffffffffffffffffffffff16815260200190815260200160002090506106ab82611335565b6106ee6040518060400160405280601381526020017f757365722e636865636b706f696e743a2025640000000000000000000000000081525082600201546113e5565b6ec097ce7bc90715b34b9f10000000008160000154826002015484600301546107179190611fc1565b6107219190611ff5565b61072b9190612066565b81600101600082825461073e9190611f5e565b9250508190555081600301548160020181905550600081600101549050600082600101819055506107a46040518060400160405280600b81526020017f726577617264733a202564000000000000000000000000000000000000000000815250826113e5565b61087c6040518060400160405280600b81526020017f62616c616e63653a2025640000000000000000000000000000000000000000008152507f000000000000000000000000000000000000000000000000000000000000000073ffffffffffffffffffffffffffffffffffffffff166370a08231306040518263ffffffff1660e01b81526004016108369190611e44565b602060405180830381865afa158015610853573d6000803e3d6000fd5b505050506040513d601f19601f8201168201806040525081019061087791906120ac565b6113e5565b6108c733827f000000000000000000000000000000000000000000000000000000000000000073ffffffffffffffffffffffffffffffffffffffff166114819092919063ffffffff16565b833373ffffffffffffffffffffffffffffffffffffffff167f34fcbac0073d7c3d388e51312faf357774904998eeb8fca628b9e6f65ee1cbf78360405161090e9190611b61565b60405180910390a350505050565b60007f0000000000000000000000000000000000000000000000000000000000000000421161094e57600090506109cd565b6000600454421061096157600454610963565b425b90506006547f0000000000000000000000000000000000000000000000000000000000000000826109949190611fc1565b7f00000000000000000000000000000000000000000000000000000000000000006109bf9190611ff5565b6109c99190611fc1565b9150505b90565b6000600283815481106109e6576109e5611f92565b5b9060005260206000209060050201905060006001600085815260200190815260200160002060003373ffffffffffffffffffffffffffffffffffffffff1673ffffffffffffffffffffffffffffffffffffffff16815260200190815260200160002090508281600001541015610a91576040517f08c379a0000000000000000000000000000000000000000000000000000000008152600401610a889061215c565b60405180910390fd5b610a9a82611335565b6ec097ce7bc90715b34b9f1000000000816000015482600201548460030154610ac39190611fc1565b610acd9190611ff5565b610ad79190612066565b816001016000828254610aea9190611f5e565b925050819055508160030154816002018190555082816000016000828254610b129190611fc1565b9250508190555082826002016000828254610b2d9190611fc1565b92505081905550610b8333848460000160009054906101000a900473ffffffffffffffffffffffffffffffffffffffff1673ffffffffffffffffffffffffffffffffffffffff166114819092919063ffffffff16565b833373ffffffffffffffffffffffffffffffffffffffff167ff279e6a1f5e320cca91135676d9cb6e44ca8a08c0b88342bcdb1144f6511b56885604051610bca9190611b61565b60405180910390a350505050565b60065481565b6000600280549050905060005b81811015610c2e57600060028281548110610c0957610c08611f92565b5b90600052602060002090600502019050610c2281611335565b50806001019050610beb565b5050565b610c3a6112ae565b8015610c4957610c48610bde565b5b600060028481548110610c5f57610c5e611f92565b5b90600052602060002090600502019050828160010154600354610c829190611fc1565b610c8c9190611f5e565b60038190555082816001018190555050505050565b610ca96112ae565b610cb36000611500565b565b7f000000000000000000000000000000000000000000000000000000000000000081565b60008060009054906101000a900473ffffffffffffffffffffffffffffffffffffffff16905090565b7f000000000000000000000000000000000000000000000000000000000000000081565b60007f7fe090037171b6c8b269016189ef1438c336d360d819447a441fe0686577604942604051610d579190611b61565b60405180910390a142905090565b6001602052816000526040600020602052806000526040600020600091509150508060000154908060010154908060020154905083565b60006001600084815260200190815260200160002060008373ffffffffffffffffffffffffffffffffffffffff1673ffffffffffffffffffffffffffffffffffffffff16815260200190815260200160002060000154905092915050565b60045481565b610e4d3330837f000000000000000000000000000000000000000000000000000000000000000073ffffffffffffffffffffffffffffffffffffffff166115c4909392919063ffffffff16565b7f000000000000000000000000000000000000000000000000000000000000000081610e799190612066565b60046000828254610e8a9190611f5e565b925050819055508060056000828254610ea39190611f5e565b9250508190555050565b600060028381548110610ec357610ec2611f92565b5b9060005260206000209060050201905060006001600085815260200190815260200160002060003373ffffffffffffffffffffffffffffffffffffffff1673ffffffffffffffffffffffffffffffffffffffff16815260200190815260200160002090506000839050610f3583611335565b6ec097ce7bc90715b34b9f1000000000826000015483600201548560030154610f5e9190611fc1565b610f689190611ff5565b610f729190612066565b826001016000828254610f859190611f5e565b9250508190555082600301548260020181905550610fea3330838660000160009054906101000a900473ffffffffffffffffffffffffffffffffffffffff1673ffffffffffffffffffffffffffffffffffffffff166115c4909392919063ffffffff16565b80836002016000828254610ffe9190611f5e565b92505081905550808260000160008282546110199190611f5e565b92505081905550843373ffffffffffffffffffffffffffffffffffffffff167f90890809c654f11d6e72a28fa60149770a0d11ec6c92319d6ceb2bb0a4ea1a15836040516110679190611b61565b60405180910390a35050505050565b6000806002848154811061108d5761108c611f92565b5b90600052602060002090600502016040518060a00160405290816000820160009054906101000a900473ffffffffffffffffffffffffffffffffffffffff1673ffffffffffffffffffffffffffffffffffffffff1673ffffffffffffffffffffffffffffffffffffffff168152602001600182015481526020016002820154815260200160038201548152602001600482015481525050905060006001600086815260200190815260200160002060008573ffffffffffffffffffffffffffffffffffffffff1673ffffffffffffffffffffffffffffffffffffffff1681526020019081526020016000206040518060600160405290816000820154815260200160018201548152602001600282015481525050905060006111ae83611646565b5090506ec097ce7bc90715b34b9f100000000082600001518360400151836111d69190611fc1565b6111e09190611ff5565b6111ea9190612066565b82602001516111f99190611f5e565b935050505092915050565b7f000000000000000000000000000000000000000000000000000000000000000081565b6112306112ae565b600073ffffffffffffffffffffffffffffffffffffffff168173ffffffffffffffffffffffffffffffffffffffff16036112a25760006040517f1e4fbdf70000000000000000000000000000000000000000000000000000000081526004016112999190611e44565b60405180910390fd5b6112ab81611500565b50565b6112b6611803565b73ffffffffffffffffffffffffffffffffffffffff166112d4610cd9565b73ffffffffffffffffffffffffffffffffffffffff1614611333576112f7611803565b6040517f118cdaa700000000000000000000000000000000000000000000000000000000815260040161132a9190611e44565b60405180910390fd5b565b6000806113ca836040518060a00160405290816000820160009054906101000a900473ffffffffffffffffffffffffffffffffffffffff1673ffffffffffffffffffffffffffffffffffffffff1673ffffffffffffffffffffffffffffffffffffffff168152602001600182015481526020016002820154815260200160038201548152602001600482015481525050611646565b91509150818360030181905550808360040181905550505050565b61147d82826040516024016113fb9291906121fb565b6040516020818303038152906040527fb60e72cc000000000000000000000000000000000000000000000000000000007bffffffffffffffffffffffffffffffffffffffffffffffffffffffff19166020820180517bffffffffffffffffffffffffffffffffffffffffffffffffffffffff838183161783525050505061180b565b5050565b6114fb838473ffffffffffffffffffffffffffffffffffffffff1663a9059cbb85856040516024016114b492919061222b565b604051602081830303815290604052915060e01b6020820180517bffffffffffffffffffffffffffffffffffffffffffffffffffffffff8381831617835250505050611825565b505050565b60008060009054906101000a900473ffffffffffffffffffffffffffffffffffffffff169050816000806101000a81548173ffffffffffffffffffffffffffffffffffffffff021916908373ffffffffffffffffffffffffffffffffffffffff1602179055508173ffffffffffffffffffffffffffffffffffffffff168173ffffffffffffffffffffffffffffffffffffffff167f8be0079c531659141344cd1fd0a4f28419497f9722a3daafe3b4186f6b6457e060405160405180910390a35050565b611640848573ffffffffffffffffffffffffffffffffffffffff166323b872dd8686866040516024016115f993929190612254565b604051602081830303815290604052915060e01b6020820180517bffffffffffffffffffffffffffffffffffffffffffffffffffffffff8381831617835250505050611825565b50505050565b60008082606001519150826080015190507f000000000000000000000000000000000000000000000000000000000000000042106117fe576000600454421161168f5742611693565b6004545b9050836080015181036116c8576116c26040518060800160405280604881526020016123d060489139846113e5565b506117fe565b80915060008460400151036116ff576116f960405180606001604052806037815260200161239960379139846113e5565b506117fe565b60008460800151826117119190611fc1565b90506117736040518060400160405280602081526020017f656c61707365643a2025642c207265776172645065725365636f6e643a202564815250827f00000000000000000000000000000000000000000000000000000000000000006118bc565b600085604001516003546117879190611ff5565b6ec097ce7bc90715b34b9f100000000087602001517f0000000000000000000000000000000000000000000000000000000000000000856117c89190611ff5565b6117d29190611ff5565b6117dc9190611ff5565b6117e69190612066565b86606001516117f59190611f5e565b90508094505050505b915091565b600033905090565b6118228161181a61195b61197c565b63ffffffff16565b50565b6000611850828473ffffffffffffffffffffffffffffffffffffffff1661198790919063ffffffff16565b9050600081511415801561187557508080602001905181019061187391906122a0565b155b156118b757826040517f5274afe70000000000000000000000000000000000000000000000000000000081526004016118ae9190611e44565b60405180910390fd5b505050565b6119568383836040516024016118d4939291906122cd565b6040516020818303038152906040527fca47c4eb000000000000000000000000000000000000000000000000000000007bffffffffffffffffffffffffffffffffffffffffffffffffffffffff19166020820180517bffffffffffffffffffffffffffffffffffffffffffffffffffffffff838183161783525050505061180b565b505050565b60006a636f6e736f6c652e6c6f679050600080835160208501845afa505050565b611b3e819050919050565b60606119958383600061199d565b905092915050565b6060814710156119e457306040517fcd7860590000000000000000000000000000000000000000000000000000000081526004016119db9190611e44565b60405180910390fd5b6000808573ffffffffffffffffffffffffffffffffffffffff168486604051611a0d9190612352565b60006040518083038185875af1925050503d8060008114611a4a576040519150601f19603f3d011682016040523d82523d6000602084013e611a4f565b606091505b5091509150611a5f868383611a6a565b925050509392505050565b606082611a7f57611a7a82611af9565b611af1565b60008251148015611aa7575060008473ffffffffffffffffffffffffffffffffffffffff163b145b15611ae957836040517f9996b315000000000000000000000000000000000000000000000000000000008152600401611ae09190611e44565b60405180910390fd5b819050611af2565b5b9392505050565b600081511115611b0c5780518082602001fd5b6040517f1425ea4200000000000000000000000000000000000000000000000000000000815260040160405180910390fd5b611b46612369565b565b6000819050919050565b611b5b81611b48565b82525050565b6000602082019050611b766000830184611b52565b92915050565b600080fd5b611b8a81611b48565b8114611b9557600080fd5b50565b600081359050611ba781611b81565b92915050565b600060208284031215611bc357611bc2611b7c565b5b6000611bd184828501611b98565b91505092915050565b600073ffffffffffffffffffffffffffffffffffffffff82169050919050565b6000819050919050565b6000611c1f611c1a611c1584611bda565b611bfa565b611bda565b9050919050565b6000611c3182611c04565b9050919050565b6000611c4382611c26565b9050919050565b611c5381611c38565b82525050565b600060a082019050611c6e6000830188611c4a565b611c7b6020830187611b52565b611c886040830186611b52565b611c956060830185611b52565b611ca26080830184611b52565b9695505050505050565b6000611cb782611bda565b9050919050565b6000611cc982611cac565b9050919050565b611cd981611cbe565b8114611ce457600080fd5b50565b600081359050611cf681611cd0565b92915050565b60008115159050919050565b611d1181611cfc565b8114611d1c57600080fd5b50565b600081359050611d2e81611d08565b92915050565b600080600060608486031215611d4d57611d4c611b7c565b5b6000611d5b86828701611b98565b9350506020611d6c86828701611ce7565b9250506040611d7d86828701611d1f565b9150509250925092565b60008060408385031215611d9e57611d9d611b7c565b5b6000611dac85828601611b98565b9250506020611dbd85828601611b98565b9150509250929050565b600080600060608486031215611de057611ddf611b7c565b5b6000611dee86828701611b98565b9350506020611dff86828701611b98565b9250506040611e1086828701611d1f565b9150509250925092565b6000602082019050611e2f6000830184611c4a565b92915050565b611e3e81611cac565b82525050565b6000602082019050611e596000830184611e35565b92915050565b611e6881611cac565b8114611e7357600080fd5b50565b600081359050611e8581611e5f565b92915050565b60008060408385031215611ea257611ea1611b7c565b5b6000611eb085828601611b98565b9250506020611ec185828601611e76565b9150509250929050565b6000606082019050611ee06000830186611b52565b611eed6020830185611b52565b611efa6040830184611b52565b949350505050565b600060208284031215611f1857611f17611b7c565b5b6000611f2684828501611e76565b91505092915050565b7f4e487b7100000000000000000000000000000000000000000000000000000000600052601160045260246000fd5b6000611f6982611b48565b9150611f7483611b48565b9250828201905080821115611f8c57611f8b611f2f565b5b92915050565b7f4e487b7100000000000000000000000000000000000000000000000000000000600052603260045260246000fd5b6000611fcc82611b48565b9150611fd783611b48565b9250828203905081811115611fef57611fee611f2f565b5b92915050565b600061200082611b48565b915061200b83611b48565b925082820261201981611b48565b915082820484148315176120305761202f611f2f565b5b5092915050565b7f4e487b7100000000000000000000000000000000000000000000000000000000600052601260045260246000fd5b600061207182611b48565b915061207c83611b48565b92508261208c5761208b612037565b5b828204905092915050565b6000815190506120a681611b81565b92915050565b6000602082840312156120c2576120c1611b7c565b5b60006120d084828501612097565b91505092915050565b600082825260208201905092915050565b7f77697468647261773a2063616e2774207769746864726177206d6f726520746860008201527f616e206465706f73697400000000000000000000000000000000000000000000602082015250565b6000612146602a836120d9565b9150612151826120ea565b604082019050919050565b6000602082019050818103600083015261217581612139565b9050919050565b600081519050919050565b60005b838110156121a557808201518184015260208101905061218a565b60008484015250505050565b6000601f19601f8301169050919050565b60006121cd8261217c565b6121d781856120d9565b93506121e7818560208601612187565b6121f0816121b1565b840191505092915050565b6000604082019050818103600083015261221581856121c2565b90506122246020830184611b52565b9392505050565b60006040820190506122406000830185611e35565b61224d6020830184611b52565b9392505050565b60006060820190506122696000830186611e35565b6122766020830185611e35565b6122836040830184611b52565b949350505050565b60008151905061229a81611d08565b92915050565b6000602082840312156122b6576122b5611b7c565b5b60006122c48482850161228b565b91505092915050565b600060608201905081810360008301526122e781866121c2565b90506122f66020830185611b52565b6123036040830184611b52565b949350505050565b600081519050919050565b600081905092915050565b600061232c8261230b565b6123368185612316565b9350612346818560208601612187565b80840191505092915050565b600061235e8284612321565b915081905092915050565b7f4e487b7100000000000000000000000000000000000000000000000000000000600052605160045260246000fdfe706f6f6c2e746f74616c4465706f7369747320697320302c20616363756d756c61746564506572546f6b656e526577617264733a2025646c6173745570646174656454696d657374616d70203d3d20706f6f6c2e6c617374557064617465642c20616363756d756c61746564506572546f6b656e526577617264733a202564a26469706673582212201f7fb8e65f992638cd53fa38b6f2dd9c691d9fa14f9b222676651035cd87e41f64736f6c63430008180033",
  "linkReferences": {},
  "deployedLinkReferences": {}
}