{
  "_format": "hh-sol-artifact-1",
  "contractName": "FarmingC2N",
  "sourceName": "contracts/farming/FarmingC2N.sol",
  "abi": [
    {
      "inputs": [
        {
          "internalType": "contract IERC20",
          "name": "_erc20",
          "type": "address"
        },
        {
          "internalType": "uint256",
          "name": "_rewardPerSecond",
          "type": "uint256"
        },
        {
          "internalType": "uint256",
          "name": "_startTimestamp",
          "type": "uint256"
        }
      ],
      "stateMutability": "nonpayable",
      "type": "constructor"
    },
    {
      "inputs": [
        {
          "internalType": "address",
          "name": "target",
          "type": "address"
        }
      ],
      "name": "AddressEmptyCode",
      "type": "error"
    },
    {
      "inputs": [
        {
          "internalType": "address",
          "name": "account",
          "type": "address"
        }
      ],
      "name": "AddressInsufficientBalance",
      "type": "error"
    },
    {
      "inputs": [],
      "name": "FailedInnerCall",
      "type": "error"
    },
    {
      "inputs": [
        {
          "internalType": "address",
          "name": "owner",
          "type": "address"
        }
      ],
      "name": "OwnableInvalidOwner",
      "type": "error"
    },
    {
      "inputs": [
        {
          "internalType": "address",
          "name": "account",
          "type": "address"
        }
      ],
      "name": "OwnableUnauthorizedAccount",
      "type": "error"
    },
    {
      "inputs": [
        {
          "internalType": "address",
          "name": "token",
          "type": "address"
        }
      ],
      "name": "SafeERC20FailedOperation",
      "type": "error"
    },
    {
      "anonymous": false,
      "inputs": [
        {
          "indexed": true,
          "internalType": "address",
          "name": "user",
          "type": "address"
        },
        {
          "indexed": true,
          "internalType": "uint256",
          "name": "pid",
          "type": "uint256"
        },
        {
          "indexed": false,
          "internalType": "uint256",
          "name": "rewards",
          "type": "uint256"
        }
      ],
      "name": "Claim",
      "type": "event"
    },
    {
      "anonymous": false,
      "inputs": [
        {
          "indexed": true,
          "internalType": "address",
          "name": "user",
          "type": "address"
        },
        {
          "indexed": true,
          "internalType": "uint256",
          "name": "pid",
          "type": "uint256"
        },
        {
          "indexed": false,
          "internalType": "uint256",
          "name": "amount",
          "type": "uint256"
        }
      ],
      "name": "Deposit",
      "type": "event"
    },
    {
      "anonymous": false,
      "inputs": [
        {
          "indexed": true,
          "internalType": "address",
          "name": "user",
          "type": "address"
        },
        {
          "indexed": true,
          "internalType": "uint256",
          "name": "pid",
          "type": "uint256"
        },
        {
          "indexed": false,
          "internalType": "uint256",
          "name": "amount",
          "type": "uint256"
        }
      ],
      "name": "EmergencyWithdraw",
      "type": "event"
    },
    {
      "anonymous": false,
      "inputs": [
        {
          "indexed": true,
          "internalType": "address",
          "name": "previousOwner",
          "type": "address"
        },
        {
          "indexed": true,
          "internalType": "address",
          "name": "newOwner",
          "type": "address"
        }
      ],
      "name": "OwnershipTransferred",
      "type": "event"
    },
    {
      "anonymous": false,
      "inputs": [
        {
          "indexed": true,
          "internalType": "address",
          "name": "user",
          "type": "address"
        },
        {
          "indexed": true,
          "internalType": "uint256",
          "name": "pid",
          "type": "uint256"
        },
        {
          "indexed": false,
          "internalType": "uint256",
          "name": "amount",
          "type": "uint256"
        }
      ],
      "name": "Withdraw",
      "type": "event"
    },
    {
      "inputs": [
        {
          "internalType": "uint256",
          "name": "_allocPoint",
          "type": "uint256"
        },
        {
          "internalType": "contract IERC20",
          "name": "_lpToken",
          "type": "address"
        },
        {
          "internalType": "bool",
          "name": "_withUpdate",
          "type": "bool"
        }
      ],
      "name": "add",
      "outputs": [],
      "stateMutability": "nonpayable",
      "type": "function"
    },
    {
      "inputs": [
        {
          "internalType": "uint256",
          "name": "_pid",
          "type": "uint256"
        }
      ],
      "name": "claim",
      "outputs": [],
      "stateMutability": "nonpayable",
      "type": "function"
    },
    {
      "inputs": [
        {
          "internalType": "uint256",
          "name": "_pid",
          "type": "uint256"
        },
        {
          "internalType": "uint256",
          "name": "_amount",
          "type": "uint256"
        }
      ],
      "name": "deposit",
      "outputs": [],
      "stateMutability": "nonpayable",
      "type": "function"
    },
    {
      "inputs": [
        {
          "internalType": "uint256",
          "name": "_pid",
          "type": "uint256"
        },
        {
          "internalType": "address",
          "name": "_user",
          "type": "address"
        }
      ],
      "name": "deposited",
      "outputs": [
        {
          "internalType": "uint256",
          "name": "",
          "type": "uint256"
        }
      ],
      "stateMutability": "view",
      "type": "function"
    },
    {
      "inputs": [],
      "name": "endTimestamp",
      "outputs": [
        {
          "internalType": "uint256",
          "name": "",
          "type": "uint256"
        }
      ],
      "stateMutability": "view",
      "type": "function"
    },
    {
      "inputs": [],
      "name": "erc20",
      "outputs": [
        {
          "internalType": "contract IERC20",
          "name": "",
          "type": "address"
        }
      ],
      "stateMutability": "view",
      "type": "function"
    },
    {
      "inputs": [
        {
          "internalType": "uint256",
          "name": "_amount",
          "type": "uint256"
        }
      ],
      "name": "fund",
      "outputs": [],
      "stateMutability": "nonpayable",
      "type": "function"
    },
    {
      "inputs": [],
      "name": "massUpdatePools",
      "outputs": [],
      "stateMutability": "nonpayable",
      "type": "function"
    },
    {
      "inputs": [],
      "name": "owner",
      "outputs": [
        {
          "internalType": "address",
          "name": "",
          "type": "address"
        }
      ],
      "stateMutability": "view",
      "type": "function"
    },
    {
      "inputs": [],
      "name": "paidOut",
      "outputs": [
        {
          "internalType": "uint256",
          "name": "",
          "type": "uint256"
        }
      ],
      "stateMutability": "view",
      "type": "function"
    },
    {
      "inputs": [
        {
          "internalType": "uint256",
          "name": "_pid",
          "type": "uint256"
        },
        {
          "internalType": "address",
          "name": "_user",
          "type": "address"
        }
      ],
      "name": "pending",
      "outputs": [
        {
          "internalType": "uint256",
          "name": "",
          "type": "uint256"
        }
      ],
      "stateMutability": "view",
      "type": "function"
    },
    {
      "inputs": [
        {
          "internalType": "uint256",
          "name": "",
          "type": "uint256"
        }
      ],
      "name": "poolInfo",
      "outputs": [
        {
          "internalType": "contract IERC20",
          "name": "lpToken",
          "type": "address"
        },
        {
          "internalType": "uint256",
          "name": "allocPoint",
          "type": "uint256"
        },
        {
          "internalType": "uint256",
          "name": "totalDeposits",
          "type": "uint256"
        },
        {
          "internalType": "uint256",
          "name": "accumulatedPerTokenRewards",
          "type": "uint256"
        },
        {
          "internalType": "uint256",
          "name": "lastUpdated",
          "type": "uint256"
        }
      ],
      "stateMutability": "view",
      "type": "function"
    },
    {
      "inputs": [],
      "name": "poolLength",
      "outputs": [
        {
          "internalType": "uint256",
          "name": "",
          "type": "uint256"
        }
      ],
      "stateMutability": "view",
      "type": "function"
    },
    {
      "inputs": [],
      "name": "renounceOwnership",
      "outputs": [],
      "stateMutability": "nonpayable",
      "type": "function"
    },
    {
      "inputs": [],
      "name": "rewardPerSecond",
      "outputs": [
        {
          "internalType": "uint256",
          "name": "",
          "type": "uint256"
        }
      ],
      "stateMutability": "view",
      "type": "function"
    },
    {
      "inputs": [
        {
          "internalType": "uint256",
          "name": "_pid",
          "type": "uint256"
        },
        {
          "internalType": "uint256",
          "name": "_allocPoint",
          "type": "uint256"
        },
        {
          "internalType": "bool",
          "name": "_withUpdate",
          "type": "bool"
        }
      ],
      "name": "set",
      "outputs": [],
      "stateMutability": "nonpayable",
      "type": "function"
    },
    {
      "inputs": [],
      "name": "startTimestamp",
      "outputs": [
        {
          "internalType": "uint256",
          "name": "",
          "type": "uint256"
        }
      ],
      "stateMutability": "view",
      "type": "function"
    },
    {
      "inputs": [],
      "name": "totalAllocPoint",
      "outputs": [
        {
          "internalType": "uint256",
          "name": "",
          "type": "uint256"
        }
      ],
      "stateMutability": "view",
      "type": "function"
    },
    {
      "inputs": [],
      "name": "totalPending",
      "outputs": [
        {
          "internalType": "uint256",
          "name": "",
          "type": "uint256"
        }
      ],
      "stateMutability": "view",
      "type": "function"
    },
    {
      "inputs": [],
      "name": "totalRewards",
      "outputs": [
        {
          "internalType": "uint256",
          "name": "",
          "type": "uint256"
        }
      ],
      "stateMutability": "view",
      "type": "function"
    },
    {
      "inputs": [
        {
          "internalType": "address",
          "name": "newOwner",
          "type": "address"
        }
      ],
      "name": "transferOwnership",
      "outputs": [],
      "stateMutability": "nonpayable",
      "type": "function"
    },
    {
      "inputs": [
        {
          "internalType": "uint256",
          "name": "",
          "type": "uint256"
        },
        {
          "internalType": "address",
          "name": "",
          "type": "address"
        }
      ],
      "name": "userInfo",
      "outputs": [
        {
          "internalType": "uint256",
          "name": "userStake",
          "type": "uint256"
        },
        {
          "internalType": "uint256",
          "name": "accumulated",
          "type": "uint256"
        },
        {
          "internalType": "uint256",
          "name": "checkpoint",
          "type": "uint256"
        }
      ],
      "stateMutability": "view",
      "type": "function"
    },
    {
      "inputs": [
        {
          "internalType": "uint256",
          "name": "_pid",
          "type": "uint256"
        },
        {
          "internalType": "uint256",
          "name": "_amount",
          "type": "uint256"
        }
      ],
      "name": "withdraw",
      "outputs": [],
      "stateMutability": "nonpayable",
      "type": "function"
    }
  ],
  "bytecode": "0x60e06040523480156200001157600080fd5b506040516200278338038062002783833981810160405281019062000037919062000290565b33600073ffffffffffffffffffffffffffffffffffffffff168173ffffffffffffffffffffffffffffffffffffffff1603620000ad5760006040517f1e4fbdf7000000000000000000000000000000000000000000000000000000008152600401620000a49190620002fd565b60405180910390fd5b620000be816200011360201b60201c565b508273ffffffffffffffffffffffffffffffffffffffff1660808173ffffffffffffffffffffffffffffffffffffffff16815250508160a081815250508060c08181525050806004819055505050506200031a565b60008060009054906101000a900473ffffffffffffffffffffffffffffffffffffffff169050816000806101000a81548173ffffffffffffffffffffffffffffffffffffffff021916908373ffffffffffffffffffffffffffffffffffffffff1602179055508173ffffffffffffffffffffffffffffffffffffffff168173ffffffffffffffffffffffffffffffffffffffff167f8be0079c531659141344cd1fd0a4f28419497f9722a3daafe3b4186f6b6457e060405160405180910390a35050565b600080fd5b600073ffffffffffffffffffffffffffffffffffffffff82169050919050565b60006200020982620001dc565b9050919050565b60006200021d82620001fc565b9050919050565b6200022f8162000210565b81146200023b57600080fd5b50565b6000815190506200024f8162000224565b92915050565b6000819050919050565b6200026a8162000255565b81146200027657600080fd5b50565b6000815190506200028a816200025f565b92915050565b600080600060608486031215620002ac57620002ab620001d7565b5b6000620002bc868287016200023e565b9350506020620002cf8682870162000279565b9250506040620002e28682870162000279565b9150509250925092565b620002f781620001fc565b82525050565b6000602082019050620003146000830184620002ec565b92915050565b60805160a05160c0516123e56200039e600039600081816104b6015281816104dd015281816108f7015281816109410152818161119e01526115f101526000818161096d01528181610cdb01528181610de7015281816116e701526117360152600081816107b60152818161085a01528181610c8e0152610da001526123e56000f3fe608060405234801561001057600080fd5b506004361061014d5760003560e01c8063715018a6116100c3578063a85adeab1161007c578063a85adeab1461035c578063ca1d209d1461037a578063e2bbb15814610396578063e4c75c27146103b2578063e6fd48bc146103e2578063f2fde38b146104005761014d565b8063715018a614610296578063785e9e86146102a05780638da5cb5b146102be5780638f10369a146102dc57806393f1a40b146102fa578063a23831061461032c5761014d565b8063379607f511610115578063379607f5146101fc5780633f90916a14610218578063441a3e70146102365780635c76ca2d14610252578063630b5ba11461027057806364482f791461027a5761014d565b8063081e3eda146101525780630e15561a146101705780631526fe271461018e57806317caf6f1146101c25780631eaaa045146101e0575b600080fd5b61015a61041c565b6040516101679190611af9565b60405180910390f35b610178610429565b6040516101859190611af9565b60405180910390f35b6101a860048036038101906101a39190611b45565b61042f565b6040516101b9959493929190611bf1565b60405180910390f35b6101ca610495565b6040516101d79190611af9565b60405180910390f35b6101fa60048036038101906101f59190611ccc565b61049b565b005b61021660048036038101906102119190611b45565b6105ff565b005b6102206108f3565b60405161022d9190611af9565b60405180910390f35b610250600480360381019061024b9190611d1f565b6109a7565b005b61025a610baf565b6040516102679190611af9565b60405180910390f35b610278610bb5565b005b610294600480360381019061028f9190611d5f565b610c09565b005b61029e610c78565b005b6102a8610c8c565b6040516102b59190611db2565b60405180910390f35b6102c6610cb0565b6040516102d39190611ddc565b60405180910390f35b6102e4610cd9565b6040516102f19190611af9565b60405180910390f35b610314600480360381019061030f9190611e23565b610cfd565b60405161032393929190611e63565b60405180910390f35b61034660048036038101906103419190611e23565b610d34565b6040516103539190611af9565b60405180910390f35b610364610d92565b6040516103719190611af9565b60405180910390f35b610394600480360381019061038f9190611b45565b610d98565b005b6103b060048036038101906103ab9190611d1f565b610e45565b005b6103cc60048036038101906103c79190611e23565b61100e565b6040516103d99190611af9565b60405180910390f35b6103ea61119c565b6040516103f79190611af9565b60405180910390f35b61041a60048036038101906104159190611e9a565b6111c0565b005b6000600280549050905090565b60055481565b6002818154811061043f57600080fd5b90600052602060002090600502016000915090508060000160009054906101000a900473ffffffffffffffffffffffffffffffffffffffff16908060010154908060020154908060030154908060040154905085565b60035481565b6104a3611246565b80156104b2576104b1610bb5565b5b60007f00000000000000000000000000000000000000000000000000000000000000004211610501577f0000000000000000000000000000000000000000000000000000000000000000610503565b425b905083600360008282546105179190611ef6565b9250508190555060026040518060a001604052808573ffffffffffffffffffffffffffffffffffffffff168152602001868152602001600081526020016000815260200183815250908060018154018082558091505060019003906000526020600020906005020160009091909190915060008201518160000160006101000a81548173ffffffffffffffffffffffffffffffffffffffff021916908373ffffffffffffffffffffffffffffffffffffffff16021790555060208201518160010155604082015181600201556060820151816003015560808201518160040155505050505050565b60006002828154811061061557610614611f2a565b5b9060005260206000209060050201905060006001600084815260200190815260200160002060003373ffffffffffffffffffffffffffffffffffffffff1673ffffffffffffffffffffffffffffffffffffffff1681526020019081526020016000209050610682826112cd565b6106c56040518060400160405280601381526020017f757365722e636865636b706f696e743a20256400000000000000000000000000815250826002015461137d565b6ec097ce7bc90715b34b9f10000000008160000154826002015484600301546106ee9190611f59565b6106f89190611f8d565b6107029190611ffe565b8160010160008282546107159190611ef6565b92505081905550816003015481600201819055506000816001015490506000826001018190555061077b6040518060400160405280600b81526020017f726577617264733a2025640000000000000000000000000000000000000000008152508261137d565b6108536040518060400160405280600b81526020017f62616c616e63653a2025640000000000000000000000000000000000000000008152507f000000000000000000000000000000000000000000000000000000000000000073ffffffffffffffffffffffffffffffffffffffff166370a08231306040518263ffffffff1660e01b815260040161080d9190611ddc565b602060405180830381865afa15801561082a573d6000803e3d6000fd5b505050506040513d601f19601f8201168201806040525081019061084e9190612044565b61137d565b61089e33827f000000000000000000000000000000000000000000000000000000000000000073ffffffffffffffffffffffffffffffffffffffff166114199092919063ffffffff16565b833373ffffffffffffffffffffffffffffffffffffffff167f34fcbac0073d7c3d388e51312faf357774904998eeb8fca628b9e6f65ee1cbf7836040516108e59190611af9565b60405180910390a350505050565b60007f0000000000000000000000000000000000000000000000000000000000000000421161092557600090506109a4565b600060045442106109385760045461093a565b425b90506006547f00000000000000000000000000000000000000000000000000000000000000008261096b9190611f59565b7f00000000000000000000000000000000000000000000000000000000000000006109969190611f8d565b6109a09190611f59565b9150505b90565b6000600283815481106109bd576109bc611f2a565b5b9060005260206000209060050201905060006001600085815260200190815260200160002060003373ffffffffffffffffffffffffffffffffffffffff1673ffffffffffffffffffffffffffffffffffffffff16815260200190815260200160002090508281600001541015610a68576040517f08c379a0000000000000000000000000000000000000000000000000000000008152600401610a5f906120f4565b60405180910390fd5b610a71826112cd565b6ec097ce7bc90715b34b9f1000000000816000015482600201548460030154610a9a9190611f59565b610aa49190611f8d565b610aae9190611ffe565b816001016000828254610ac19190611ef6565b925050819055508160030154816002018190555082816000016000828254610ae99190611f59565b9250508190555082826002016000828254610b049190611f59565b92505081905550610b5a33848460000160009054906101000a900473ffffffffffffffffffffffffffffffffffffffff1673ffffffffffffffffffffffffffffffffffffffff166114199092919063ffffffff16565b833373ffffffffffffffffffffffffffffffffffffffff167ff279e6a1f5e320cca91135676d9cb6e44ca8a08c0b88342bcdb1144f6511b56885604051610ba19190611af9565b60405180910390a350505050565b60065481565b6000600280549050905060005b81811015610c0557600060028281548110610be057610bdf611f2a565b5b90600052602060002090600502019050610bf9816112cd565b50806001019050610bc2565b5050565b610c11611246565b8015610c2057610c1f610bb5565b5b600060028481548110610c3657610c35611f2a565b5b90600052602060002090600502019050828160010154600354610c599190611f59565b610c639190611ef6565b60038190555082816001018190555050505050565b610c80611246565b610c8a6000611498565b565b7f000000000000000000000000000000000000000000000000000000000000000081565b60008060009054906101000a900473ffffffffffffffffffffffffffffffffffffffff16905090565b7f000000000000000000000000000000000000000000000000000000000000000081565b6001602052816000526040600020602052806000526040600020600091509150508060000154908060010154908060020154905083565b60006001600084815260200190815260200160002060008373ffffffffffffffffffffffffffffffffffffffff1673ffffffffffffffffffffffffffffffffffffffff16815260200190815260200160002060000154905092915050565b60045481565b610de53330837f000000000000000000000000000000000000000000000000000000000000000073ffffffffffffffffffffffffffffffffffffffff1661155c909392919063ffffffff16565b7f000000000000000000000000000000000000000000000000000000000000000081610e119190611ffe565b60046000828254610e229190611ef6565b925050819055508060056000828254610e3b9190611ef6565b9250508190555050565b600060028381548110610e5b57610e5a611f2a565b5b9060005260206000209060050201905060006001600085815260200190815260200160002060003373ffffffffffffffffffffffffffffffffffffffff1673ffffffffffffffffffffffffffffffffffffffff16815260200190815260200160002090506000839050610ecd836112cd565b6ec097ce7bc90715b34b9f1000000000826000015483600201548560030154610ef69190611f59565b610f009190611f8d565b610f0a9190611ffe565b826001016000828254610f1d9190611ef6565b9250508190555082600301548260020181905550610f823330838660000160009054906101000a900473ffffffffffffffffffffffffffffffffffffffff1673ffffffffffffffffffffffffffffffffffffffff1661155c909392919063ffffffff16565b80836002016000828254610f969190611ef6565b9250508190555080826000016000828254610fb19190611ef6565b92505081905550843373ffffffffffffffffffffffffffffffffffffffff167f90890809c654f11d6e72a28fa60149770a0d11ec6c92319d6ceb2bb0a4ea1a1583604051610fff9190611af9565b60405180910390a35050505050565b6000806002848154811061102557611024611f2a565b5b90600052602060002090600502016040518060a00160405290816000820160009054906101000a900473ffffffffffffffffffffffffffffffffffffffff1673ffffffffffffffffffffffffffffffffffffffff1673ffffffffffffffffffffffffffffffffffffffff168152602001600182015481526020016002820154815260200160038201548152602001600482015481525050905060006001600086815260200190815260200160002060008573ffffffffffffffffffffffffffffffffffffffff1673ffffffffffffffffffffffffffffffffffffffff168152602001908152602001600020604051806060016040529081600082015481526020016001820154815260200160028201548152505090506000611146836115de565b5090506ec097ce7bc90715b34b9f1000000000826000015183604001518361116e9190611f59565b6111789190611f8d565b6111829190611ffe565b82602001516111919190611ef6565b935050505092915050565b7f000000000000000000000000000000000000000000000000000000000000000081565b6111c8611246565b600073ffffffffffffffffffffffffffffffffffffffff168173ffffffffffffffffffffffffffffffffffffffff160361123a5760006040517f1e4fbdf70000000000000000000000000000000000000000000000000000000081526004016112319190611ddc565b60405180910390fd5b61124381611498565b50565b61124e61179b565b73ffffffffffffffffffffffffffffffffffffffff1661126c610cb0565b73ffffffffffffffffffffffffffffffffffffffff16146112cb5761128f61179b565b6040517f118cdaa70000000000000000000000000000000000000000000000000000000081526004016112c29190611ddc565b60405180910390fd5b565b600080611362836040518060a00160405290816000820160009054906101000a900473ffffffffffffffffffffffffffffffffffffffff1673ffffffffffffffffffffffffffffffffffffffff1673ffffffffffffffffffffffffffffffffffffffff1681526020016001820154815260200160028201548152602001600382015481526020016004820154815250506115de565b91509150818360030181905550808360040181905550505050565b6114158282604051602401611393929190612193565b6040516020818303038152906040527fb60e72cc000000000000000000000000000000000000000000000000000000007bffffffffffffffffffffffffffffffffffffffffffffffffffffffff19166020820180517bffffffffffffffffffffffffffffffffffffffffffffffffffffffff83818316178352505050506117a3565b5050565b611493838473ffffffffffffffffffffffffffffffffffffffff1663a9059cbb858560405160240161144c9291906121c3565b604051602081830303815290604052915060e01b6020820180517bffffffffffffffffffffffffffffffffffffffffffffffffffffffff83818316178352505050506117bd565b505050565b60008060009054906101000a900473ffffffffffffffffffffffffffffffffffffffff169050816000806101000a81548173ffffffffffffffffffffffffffffffffffffffff021916908373ffffffffffffffffffffffffffffffffffffffff1602179055508173ffffffffffffffffffffffffffffffffffffffff168173ffffffffffffffffffffffffffffffffffffffff167f8be0079c531659141344cd1fd0a4f28419497f9722a3daafe3b4186f6b6457e060405160405180910390a35050565b6115d8848573ffffffffffffffffffffffffffffffffffffffff166323b872dd868686604051602401611591939291906121ec565b604051602081830303815290604052915060e01b6020820180517bffffffffffffffffffffffffffffffffffffffffffffffffffffffff83818316178352505050506117bd565b50505050565b60008082606001519150826080015190507f000000000000000000000000000000000000000000000000000000000000000042106117965760006004544211611627574261162b565b6004545b9050836080015181036116605761165a604051806080016040528060488152602001612368604891398461137d565b50611796565b809150600084604001510361169757611691604051806060016040528060378152602001612331603791398461137d565b50611796565b60008460800151826116a99190611f59565b905061170b6040518060400160405280602081526020017f656c61707365643a2025642c207265776172645065725365636f6e643a202564815250827f0000000000000000000000000000000000000000000000000000000000000000611854565b6000856040015160035461171f9190611f8d565b6ec097ce7bc90715b34b9f100000000087602001517f0000000000000000000000000000000000000000000000000000000000000000856117609190611f8d565b61176a9190611f8d565b6117749190611f8d565b61177e9190611ffe565b866060015161178d9190611ef6565b90508094505050505b915091565b600033905090565b6117ba816117b26118f3611914565b63ffffffff16565b50565b60006117e8828473ffffffffffffffffffffffffffffffffffffffff1661191f90919063ffffffff16565b9050600081511415801561180d57508080602001905181019061180b9190612238565b155b1561184f57826040517f5274afe70000000000000000000000000000000000000000000000000000000081526004016118469190611ddc565b60405180910390fd5b505050565b6118ee83838360405160240161186c93929190612265565b6040516020818303038152906040527fca47c4eb000000000000000000000000000000000000000000000000000000007bffffffffffffffffffffffffffffffffffffffffffffffffffffffff19166020820180517bffffffffffffffffffffffffffffffffffffffffffffffffffffffff83818316178352505050506117a3565b505050565b60006a636f6e736f6c652e6c6f679050600080835160208501845afa505050565b611ad6819050919050565b606061192d83836000611935565b905092915050565b60608147101561197c57306040517fcd7860590000000000000000000000000000000000000000000000000000000081526004016119739190611ddc565b60405180910390fd5b6000808573ffffffffffffffffffffffffffffffffffffffff1684866040516119a591906122ea565b60006040518083038185875af1925050503d80600081146119e2576040519150601f19603f3d011682016040523d82523d6000602084013e6119e7565b606091505b50915091506119f7868383611a02565b925050509392505050565b606082611a1757611a1282611a91565b611a89565b60008251148015611a3f575060008473ffffffffffffffffffffffffffffffffffffffff163b145b15611a8157836040517f9996b315000000000000000000000000000000000000000000000000000000008152600401611a789190611ddc565b60405180910390fd5b819050611a8a565b5b9392505050565b600081511115611aa45780518082602001fd5b6040517f1425ea4200000000000000000000000000000000000000000000000000000000815260040160405180910390fd5b611ade612301565b565b6000819050919050565b611af381611ae0565b82525050565b6000602082019050611b0e6000830184611aea565b92915050565b600080fd5b611b2281611ae0565b8114611b2d57600080fd5b50565b600081359050611b3f81611b19565b92915050565b600060208284031215611b5b57611b5a611b14565b5b6000611b6984828501611b30565b91505092915050565b600073ffffffffffffffffffffffffffffffffffffffff82169050919050565b6000819050919050565b6000611bb7611bb2611bad84611b72565b611b92565b611b72565b9050919050565b6000611bc982611b9c565b9050919050565b6000611bdb82611bbe565b9050919050565b611beb81611bd0565b82525050565b600060a082019050611c066000830188611be2565b611c136020830187611aea565b611c206040830186611aea565b611c2d6060830185611aea565b611c3a6080830184611aea565b9695505050505050565b6000611c4f82611b72565b9050919050565b6000611c6182611c44565b9050919050565b611c7181611c56565b8114611c7c57600080fd5b50565b600081359050611c8e81611c68565b92915050565b60008115159050919050565b611ca981611c94565b8114611cb457600080fd5b50565b600081359050611cc681611ca0565b92915050565b600080600060608486031215611ce557611ce4611b14565b5b6000611cf386828701611b30565b9350506020611d0486828701611c7f565b9250506040611d1586828701611cb7565b9150509250925092565b60008060408385031215611d3657611d35611b14565b5b6000611d4485828601611b30565b9250506020611d5585828601611b30565b9150509250929050565b600080600060608486031215611d7857611d77611b14565b5b6000611d8686828701611b30565b9350506020611d9786828701611b30565b9250506040611da886828701611cb7565b9150509250925092565b6000602082019050611dc76000830184611be2565b92915050565b611dd681611c44565b82525050565b6000602082019050611df16000830184611dcd565b92915050565b611e0081611c44565b8114611e0b57600080fd5b50565b600081359050611e1d81611df7565b92915050565b60008060408385031215611e3a57611e39611b14565b5b6000611e4885828601611b30565b9250506020611e5985828601611e0e565b9150509250929050565b6000606082019050611e786000830186611aea565b611e856020830185611aea565b611e926040830184611aea565b949350505050565b600060208284031215611eb057611eaf611b14565b5b6000611ebe84828501611e0e565b91505092915050565b7f4e487b7100000000000000000000000000000000000000000000000000000000600052601160045260246000fd5b6000611f0182611ae0565b9150611f0c83611ae0565b9250828201905080821115611f2457611f23611ec7565b5b92915050565b7f4e487b7100000000000000000000000000000000000000000000000000000000600052603260045260246000fd5b6000611f6482611ae0565b9150611f6f83611ae0565b9250828203905081811115611f8757611f86611ec7565b5b92915050565b6000611f9882611ae0565b9150611fa383611ae0565b9250828202611fb181611ae0565b91508282048414831517611fc857611fc7611ec7565b5b5092915050565b7f4e487b7100000000000000000000000000000000000000000000000000000000600052601260045260246000fd5b600061200982611ae0565b915061201483611ae0565b92508261202457612023611fcf565b5b828204905092915050565b60008151905061203e81611b19565b92915050565b60006020828403121561205a57612059611b14565b5b60006120688482850161202f565b91505092915050565b600082825260208201905092915050565b7f77697468647261773a2063616e2774207769746864726177206d6f726520746860008201527f616e206465706f73697400000000000000000000000000000000000000000000602082015250565b60006120de602a83612071565b91506120e982612082565b604082019050919050565b6000602082019050818103600083015261210d816120d1565b9050919050565b600081519050919050565b60005b8381101561213d578082015181840152602081019050612122565b60008484015250505050565b6000601f19601f8301169050919050565b600061216582612114565b61216f8185612071565b935061217f81856020860161211f565b61218881612149565b840191505092915050565b600060408201905081810360008301526121ad818561215a565b90506121bc6020830184611aea565b9392505050565b60006040820190506121d86000830185611dcd565b6121e56020830184611aea565b9392505050565b60006060820190506122016000830186611dcd565b61220e6020830185611dcd565b61221b6040830184611aea565b949350505050565b60008151905061223281611ca0565b92915050565b60006020828403121561224e5761224d611b14565b5b600061225c84828501612223565b91505092915050565b6000606082019050818103600083015261227f818661215a565b905061228e6020830185611aea565b61229b6040830184611aea565b949350505050565b600081519050919050565b600081905092915050565b60006122c4826122a3565b6122ce81856122ae565b93506122de81856020860161211f565b80840191505092915050565b60006122f682846122b9565b915081905092915050565b7f4e487b7100000000000000000000000000000000000000000000000000000000600052605160045260246000fdfe706f6f6c2e746f74616c4465706f7369747320697320302c20616363756d756c61746564506572546f6b656e526577617264733a2025646c6173745570646174656454696d657374616d70203d3d20706f6f6c2e6c617374557064617465642c20616363756d756c61746564506572546f6b656e526577617264733a202564a264697066735822122082804d4ad8e2792c7b2c14670e27a45eef305edf98ea3b001b3d6e1eb7e0752c64736f6c63430008180033",
  "linkReferences": {},
  "deployedLinkReferences": {}
}