{
  "_format": "hh-sol-artifact-1",
  "contractName": "FarmingC2N",
  "sourceName": "contracts/farming/FarmingC2N.sol",
  "abi": [
    {
      "inputs": [
        {
          "internalType": "contract IERC20",
          "name": "_erc20",
          "type": "address"
        },
        {
          "internalType": "uint256",
          "name": "_rewardPerSecond",
          "type": "uint256"
        },
        {
          "internalType": "uint256",
          "name": "_startTimestamp",
          "type": "uint256"
        }
      ],
      "stateMutability": "nonpayable",
      "type": "constructor"
    },
    {
      "inputs": [
        {
          "internalType": "address",
          "name": "target",
          "type": "address"
        }
      ],
      "name": "AddressEmptyCode",
      "type": "error"
    },
    {
      "inputs": [
        {
          "internalType": "address",
          "name": "account",
          "type": "address"
        }
      ],
      "name": "AddressInsufficientBalance",
      "type": "error"
    },
    {
      "inputs": [],
      "name": "FailedInnerCall",
      "type": "error"
    },
    {
      "inputs": [
        {
          "internalType": "address",
          "name": "owner",
          "type": "address"
        }
      ],
      "name": "OwnableInvalidOwner",
      "type": "error"
    },
    {
      "inputs": [
        {
          "internalType": "address",
          "name": "account",
          "type": "address"
        }
      ],
      "name": "OwnableUnauthorizedAccount",
      "type": "error"
    },
    {
      "inputs": [
        {
          "internalType": "address",
          "name": "token",
          "type": "address"
        }
      ],
      "name": "SafeERC20FailedOperation",
      "type": "error"
    },
    {
      "anonymous": false,
      "inputs": [
        {
          "indexed": true,
          "internalType": "address",
          "name": "user",
          "type": "address"
        },
        {
          "indexed": true,
          "internalType": "uint256",
          "name": "pid",
          "type": "uint256"
        },
        {
          "indexed": false,
          "internalType": "uint256",
          "name": "rewards",
          "type": "uint256"
        }
      ],
      "name": "Claim",
      "type": "event"
    },
    {
      "anonymous": false,
      "inputs": [
        {
          "indexed": true,
          "internalType": "address",
          "name": "user",
          "type": "address"
        },
        {
          "indexed": true,
          "internalType": "uint256",
          "name": "pid",
          "type": "uint256"
        },
        {
          "indexed": false,
          "internalType": "uint256",
          "name": "amount",
          "type": "uint256"
        }
      ],
      "name": "Deposit",
      "type": "event"
    },
    {
      "anonymous": false,
      "inputs": [
        {
          "indexed": true,
          "internalType": "address",
          "name": "user",
          "type": "address"
        },
        {
          "indexed": true,
          "internalType": "uint256",
          "name": "pid",
          "type": "uint256"
        },
        {
          "indexed": false,
          "internalType": "uint256",
          "name": "amount",
          "type": "uint256"
        }
      ],
      "name": "EmergencyWithdraw",
      "type": "event"
    },
    {
      "anonymous": false,
      "inputs": [
        {
          "indexed": true,
          "internalType": "address",
          "name": "previousOwner",
          "type": "address"
        },
        {
          "indexed": true,
          "internalType": "address",
          "name": "newOwner",
          "type": "address"
        }
      ],
      "name": "OwnershipTransferred",
      "type": "event"
    },
    {
      "anonymous": false,
      "inputs": [
        {
          "indexed": true,
          "internalType": "address",
          "name": "user",
          "type": "address"
        },
        {
          "indexed": true,
          "internalType": "uint256",
          "name": "pid",
          "type": "uint256"
        },
        {
          "indexed": false,
          "internalType": "uint256",
          "name": "amount",
          "type": "uint256"
        }
      ],
      "name": "Withdraw",
      "type": "event"
    },
    {
      "inputs": [
        {
          "internalType": "uint256",
          "name": "_allocPoint",
          "type": "uint256"
        },
        {
          "internalType": "contract IERC20",
          "name": "_lpToken",
          "type": "address"
        },
        {
          "internalType": "bool",
          "name": "_withUpdate",
          "type": "bool"
        }
      ],
      "name": "add",
      "outputs": [],
      "stateMutability": "nonpayable",
      "type": "function"
    },
    {
      "inputs": [
        {
          "internalType": "uint256",
          "name": "_pid",
          "type": "uint256"
        }
      ],
      "name": "claim",
      "outputs": [],
      "stateMutability": "nonpayable",
      "type": "function"
    },
    {
      "inputs": [
        {
          "internalType": "uint256",
          "name": "_pid",
          "type": "uint256"
        },
        {
          "internalType": "uint256",
          "name": "_amount",
          "type": "uint256"
        }
      ],
      "name": "deposit",
      "outputs": [],
      "stateMutability": "nonpayable",
      "type": "function"
    },
    {
      "inputs": [
        {
          "internalType": "uint256",
          "name": "_pid",
          "type": "uint256"
        },
        {
          "internalType": "address",
          "name": "_user",
          "type": "address"
        }
      ],
      "name": "deposited",
      "outputs": [
        {
          "internalType": "uint256",
          "name": "",
          "type": "uint256"
        }
      ],
      "stateMutability": "view",
      "type": "function"
    },
    {
      "inputs": [],
      "name": "endTimestamp",
      "outputs": [
        {
          "internalType": "uint256",
          "name": "",
          "type": "uint256"
        }
      ],
      "stateMutability": "view",
      "type": "function"
    },
    {
      "inputs": [],
      "name": "erc20",
      "outputs": [
        {
          "internalType": "contract IERC20",
          "name": "",
          "type": "address"
        }
      ],
      "stateMutability": "view",
      "type": "function"
    },
    {
      "inputs": [
        {
          "internalType": "uint256",
          "name": "_amount",
          "type": "uint256"
        }
      ],
      "name": "fund",
      "outputs": [],
      "stateMutability": "nonpayable",
      "type": "function"
    },
    {
      "inputs": [],
      "name": "massUpdatePools",
      "outputs": [],
      "stateMutability": "nonpayable",
      "type": "function"
    },
    {
      "inputs": [],
      "name": "owner",
      "outputs": [
        {
          "internalType": "address",
          "name": "",
          "type": "address"
        }
      ],
      "stateMutability": "view",
      "type": "function"
    },
    {
      "inputs": [],
      "name": "paidOut",
      "outputs": [
        {
          "internalType": "uint256",
          "name": "",
          "type": "uint256"
        }
      ],
      "stateMutability": "view",
      "type": "function"
    },
    {
      "inputs": [
        {
          "internalType": "uint256",
          "name": "_pid",
          "type": "uint256"
        },
        {
          "internalType": "address",
          "name": "_user",
          "type": "address"
        }
      ],
      "name": "pending",
      "outputs": [
        {
          "internalType": "uint256",
          "name": "",
          "type": "uint256"
        }
      ],
      "stateMutability": "view",
      "type": "function"
    },
    {
      "inputs": [
        {
          "internalType": "uint256",
          "name": "",
          "type": "uint256"
        }
      ],
      "name": "poolInfo",
      "outputs": [
        {
          "internalType": "contract IERC20",
          "name": "lpToken",
          "type": "address"
        },
        {
          "internalType": "uint256",
          "name": "allocPoint",
          "type": "uint256"
        },
        {
          "internalType": "uint256",
          "name": "totalDeposits",
          "type": "uint256"
        },
        {
          "internalType": "uint256",
          "name": "accumulated",
          "type": "uint256"
        },
        {
          "internalType": "uint256",
          "name": "lastUpdated",
          "type": "uint256"
        }
      ],
      "stateMutability": "view",
      "type": "function"
    },
    {
      "inputs": [],
      "name": "poolLength",
      "outputs": [
        {
          "internalType": "uint256",
          "name": "",
          "type": "uint256"
        }
      ],
      "stateMutability": "view",
      "type": "function"
    },
    {
      "inputs": [],
      "name": "renounceOwnership",
      "outputs": [],
      "stateMutability": "nonpayable",
      "type": "function"
    },
    {
      "inputs": [],
      "name": "rewardPerSecond",
      "outputs": [
        {
          "internalType": "uint256",
          "name": "",
          "type": "uint256"
        }
      ],
      "stateMutability": "view",
      "type": "function"
    },
    {
      "inputs": [
        {
          "internalType": "uint256",
          "name": "_pid",
          "type": "uint256"
        },
        {
          "internalType": "uint256",
          "name": "_allocPoint",
          "type": "uint256"
        },
        {
          "internalType": "bool",
          "name": "_withUpdate",
          "type": "bool"
        }
      ],
      "name": "set",
      "outputs": [],
      "stateMutability": "nonpayable",
      "type": "function"
    },
    {
      "inputs": [],
      "name": "startTimestamp",
      "outputs": [
        {
          "internalType": "uint256",
          "name": "",
          "type": "uint256"
        }
      ],
      "stateMutability": "view",
      "type": "function"
    },
    {
      "inputs": [],
      "name": "totalAllocPoint",
      "outputs": [
        {
          "internalType": "uint256",
          "name": "",
          "type": "uint256"
        }
      ],
      "stateMutability": "view",
      "type": "function"
    },
    {
      "inputs": [],
      "name": "totalPending",
      "outputs": [
        {
          "internalType": "uint256",
          "name": "",
          "type": "uint256"
        }
      ],
      "stateMutability": "view",
      "type": "function"
    },
    {
      "inputs": [],
      "name": "totalRewards",
      "outputs": [
        {
          "internalType": "uint256",
          "name": "",
          "type": "uint256"
        }
      ],
      "stateMutability": "view",
      "type": "function"
    },
    {
      "inputs": [
        {
          "internalType": "address",
          "name": "newOwner",
          "type": "address"
        }
      ],
      "name": "transferOwnership",
      "outputs": [],
      "stateMutability": "nonpayable",
      "type": "function"
    },
    {
      "inputs": [
        {
          "internalType": "uint256",
          "name": "",
          "type": "uint256"
        },
        {
          "internalType": "address",
          "name": "",
          "type": "address"
        }
      ],
      "name": "userInfo",
      "outputs": [
        {
          "internalType": "uint256",
          "name": "userStake",
          "type": "uint256"
        },
        {
          "internalType": "uint256",
          "name": "accumulated",
          "type": "uint256"
        },
        {
          "internalType": "uint256",
          "name": "checkpoint",
          "type": "uint256"
        }
      ],
      "stateMutability": "view",
      "type": "function"
    },
    {
      "inputs": [
        {
          "internalType": "uint256",
          "name": "_pid",
          "type": "uint256"
        },
        {
          "internalType": "uint256",
          "name": "_amount",
          "type": "uint256"
        }
      ],
      "name": "withdraw",
      "outputs": [],
      "stateMutability": "nonpayable",
      "type": "function"
    }
  ],
  "bytecode": "0x60e06040523480156200001157600080fd5b50604051620026c0380380620026c0833981810160405281019062000037919062000290565b33600073ffffffffffffffffffffffffffffffffffffffff168173ffffffffffffffffffffffffffffffffffffffff1603620000ad5760006040517f1e4fbdf7000000000000000000000000000000000000000000000000000000008152600401620000a49190620002fd565b60405180910390fd5b620000be816200011360201b60201c565b508273ffffffffffffffffffffffffffffffffffffffff1660808173ffffffffffffffffffffffffffffffffffffffff16815250508160a081815250508060c08181525050806004819055505050506200031a565b60008060009054906101000a900473ffffffffffffffffffffffffffffffffffffffff169050816000806101000a81548173ffffffffffffffffffffffffffffffffffffffff021916908373ffffffffffffffffffffffffffffffffffffffff1602179055508173ffffffffffffffffffffffffffffffffffffffff168173ffffffffffffffffffffffffffffffffffffffff167f8be0079c531659141344cd1fd0a4f28419497f9722a3daafe3b4186f6b6457e060405160405180910390a35050565b600080fd5b600073ffffffffffffffffffffffffffffffffffffffff82169050919050565b60006200020982620001dc565b9050919050565b60006200021d82620001fc565b9050919050565b6200022f8162000210565b81146200023b57600080fd5b50565b6000815190506200024f8162000224565b92915050565b6000819050919050565b6200026a8162000255565b81146200027657600080fd5b50565b6000815190506200028a816200025f565b92915050565b600080600060608486031215620002ac57620002ab620001d7565b5b6000620002bc868287016200023e565b9350506020620002cf8682870162000279565b9250506040620002e28682870162000279565b9150509250925092565b620002f781620001fc565b82525050565b6000602082019050620003146000830184620002ec565b92915050565b60805160a05160c0516123226200039e600039600081816104b6015281816104dd015281816108f7015281816109410152818161119e01526115f101526000818161096d01528181610cdb01528181610de7015281816116a301526116f20152600081816107b60152818161085a01528181610c8e0152610da001526123226000f3fe608060405234801561001057600080fd5b506004361061014d5760003560e01c8063715018a6116100c3578063a85adeab1161007c578063a85adeab1461035c578063ca1d209d1461037a578063e2bbb15814610396578063e4c75c27146103b2578063e6fd48bc146103e2578063f2fde38b146104005761014d565b8063715018a614610296578063785e9e86146102a05780638da5cb5b146102be5780638f10369a146102dc57806393f1a40b146102fa578063a23831061461032c5761014d565b8063379607f511610115578063379607f5146101fc5780633f90916a14610218578063441a3e70146102365780635c76ca2d14610252578063630b5ba11461027057806364482f791461027a5761014d565b8063081e3eda146101525780630e15561a146101705780631526fe271461018e57806317caf6f1146101c25780631eaaa045146101e0575b600080fd5b61015a61041c565b6040516101679190611ab5565b60405180910390f35b610178610429565b6040516101859190611ab5565b60405180910390f35b6101a860048036038101906101a39190611b01565b61042f565b6040516101b9959493929190611bad565b60405180910390f35b6101ca610495565b6040516101d79190611ab5565b60405180910390f35b6101fa60048036038101906101f59190611c88565b61049b565b005b61021660048036038101906102119190611b01565b6105ff565b005b6102206108f3565b60405161022d9190611ab5565b60405180910390f35b610250600480360381019061024b9190611cdb565b6109a7565b005b61025a610baf565b6040516102679190611ab5565b60405180910390f35b610278610bb5565b005b610294600480360381019061028f9190611d1b565b610c09565b005b61029e610c78565b005b6102a8610c8c565b6040516102b59190611d6e565b60405180910390f35b6102c6610cb0565b6040516102d39190611d98565b60405180910390f35b6102e4610cd9565b6040516102f19190611ab5565b60405180910390f35b610314600480360381019061030f9190611ddf565b610cfd565b60405161032393929190611e1f565b60405180910390f35b61034660048036038101906103419190611ddf565b610d34565b6040516103539190611ab5565b60405180910390f35b610364610d92565b6040516103719190611ab5565b60405180910390f35b610394600480360381019061038f9190611b01565b610d98565b005b6103b060048036038101906103ab9190611cdb565b610e45565b005b6103cc60048036038101906103c79190611ddf565b61100e565b6040516103d99190611ab5565b60405180910390f35b6103ea61119c565b6040516103f79190611ab5565b60405180910390f35b61041a60048036038101906104159190611e56565b6111c0565b005b6000600280549050905090565b60055481565b6002818154811061043f57600080fd5b90600052602060002090600502016000915090508060000160009054906101000a900473ffffffffffffffffffffffffffffffffffffffff16908060010154908060020154908060030154908060040154905085565b60035481565b6104a3611246565b80156104b2576104b1610bb5565b5b60007f00000000000000000000000000000000000000000000000000000000000000004211610501577f0000000000000000000000000000000000000000000000000000000000000000610503565b425b905083600360008282546105179190611eb2565b9250508190555060026040518060a001604052808573ffffffffffffffffffffffffffffffffffffffff168152602001868152602001600081526020016000815260200183815250908060018154018082558091505060019003906000526020600020906005020160009091909190915060008201518160000160006101000a81548173ffffffffffffffffffffffffffffffffffffffff021916908373ffffffffffffffffffffffffffffffffffffffff16021790555060208201518160010155604082015181600201556060820151816003015560808201518160040155505050505050565b60006002828154811061061557610614611ee6565b5b9060005260206000209060050201905060006001600084815260200190815260200160002060003373ffffffffffffffffffffffffffffffffffffffff1673ffffffffffffffffffffffffffffffffffffffff1681526020019081526020016000209050610682826112cd565b6106c56040518060400160405280601381526020017f757365722e636865636b706f696e743a20256400000000000000000000000000815250826002015461137d565b6ec097ce7bc90715b34b9f10000000008160000154826002015484600301546106ee9190611f15565b6106f89190611f49565b6107029190611fba565b8160010160008282546107159190611eb2565b92505081905550816003015481600201819055506000816001015490506000826001018190555061077b6040518060400160405280600b81526020017f726577617264733a2025640000000000000000000000000000000000000000008152508261137d565b6108536040518060400160405280600b81526020017f62616c616e63653a2025640000000000000000000000000000000000000000008152507f000000000000000000000000000000000000000000000000000000000000000073ffffffffffffffffffffffffffffffffffffffff166370a08231306040518263ffffffff1660e01b815260040161080d9190611d98565b602060405180830381865afa15801561082a573d6000803e3d6000fd5b505050506040513d601f19601f8201168201806040525081019061084e9190612000565b61137d565b61089e33827f000000000000000000000000000000000000000000000000000000000000000073ffffffffffffffffffffffffffffffffffffffff166114199092919063ffffffff16565b833373ffffffffffffffffffffffffffffffffffffffff167f34fcbac0073d7c3d388e51312faf357774904998eeb8fca628b9e6f65ee1cbf7836040516108e59190611ab5565b60405180910390a350505050565b60007f0000000000000000000000000000000000000000000000000000000000000000421161092557600090506109a4565b600060045442106109385760045461093a565b425b90506006547f00000000000000000000000000000000000000000000000000000000000000008261096b9190611f15565b7f00000000000000000000000000000000000000000000000000000000000000006109969190611f49565b6109a09190611f15565b9150505b90565b6000600283815481106109bd576109bc611ee6565b5b9060005260206000209060050201905060006001600085815260200190815260200160002060003373ffffffffffffffffffffffffffffffffffffffff1673ffffffffffffffffffffffffffffffffffffffff16815260200190815260200160002090508281600001541015610a68576040517f08c379a0000000000000000000000000000000000000000000000000000000008152600401610a5f906120b0565b60405180910390fd5b610a71826112cd565b6ec097ce7bc90715b34b9f1000000000816000015482600201548460030154610a9a9190611f15565b610aa49190611f49565b610aae9190611fba565b816001016000828254610ac19190611eb2565b925050819055508160030154816002018190555082816000016000828254610ae99190611f15565b9250508190555082826002016000828254610b049190611f15565b92505081905550610b5a33848460000160009054906101000a900473ffffffffffffffffffffffffffffffffffffffff1673ffffffffffffffffffffffffffffffffffffffff166114199092919063ffffffff16565b833373ffffffffffffffffffffffffffffffffffffffff167ff279e6a1f5e320cca91135676d9cb6e44ca8a08c0b88342bcdb1144f6511b56885604051610ba19190611ab5565b60405180910390a350505050565b60065481565b6000600280549050905060005b81811015610c0557600060028281548110610be057610bdf611ee6565b5b90600052602060002090600502019050610bf9816112cd565b50806001019050610bc2565b5050565b610c11611246565b8015610c2057610c1f610bb5565b5b600060028481548110610c3657610c35611ee6565b5b90600052602060002090600502019050828160010154600354610c599190611f15565b610c639190611eb2565b60038190555082816001018190555050505050565b610c80611246565b610c8a6000611498565b565b7f000000000000000000000000000000000000000000000000000000000000000081565b60008060009054906101000a900473ffffffffffffffffffffffffffffffffffffffff16905090565b7f000000000000000000000000000000000000000000000000000000000000000081565b6001602052816000526040600020602052806000526040600020600091509150508060000154908060010154908060020154905083565b60006001600084815260200190815260200160002060008373ffffffffffffffffffffffffffffffffffffffff1673ffffffffffffffffffffffffffffffffffffffff16815260200190815260200160002060000154905092915050565b60045481565b610de53330837f000000000000000000000000000000000000000000000000000000000000000073ffffffffffffffffffffffffffffffffffffffff1661155c909392919063ffffffff16565b7f000000000000000000000000000000000000000000000000000000000000000081610e119190611fba565b60046000828254610e229190611eb2565b925050819055508060056000828254610e3b9190611eb2565b9250508190555050565b600060028381548110610e5b57610e5a611ee6565b5b9060005260206000209060050201905060006001600085815260200190815260200160002060003373ffffffffffffffffffffffffffffffffffffffff1673ffffffffffffffffffffffffffffffffffffffff16815260200190815260200160002090506000839050610ecd836112cd565b6ec097ce7bc90715b34b9f1000000000826000015483600201548560030154610ef69190611f15565b610f009190611f49565b610f0a9190611fba565b826001016000828254610f1d9190611eb2565b9250508190555082600301548260020181905550610f823330838660000160009054906101000a900473ffffffffffffffffffffffffffffffffffffffff1673ffffffffffffffffffffffffffffffffffffffff1661155c909392919063ffffffff16565b80836002016000828254610f969190611eb2565b9250508190555080826000016000828254610fb19190611eb2565b92505081905550843373ffffffffffffffffffffffffffffffffffffffff167f90890809c654f11d6e72a28fa60149770a0d11ec6c92319d6ceb2bb0a4ea1a1583604051610fff9190611ab5565b60405180910390a35050505050565b6000806002848154811061102557611024611ee6565b5b90600052602060002090600502016040518060a00160405290816000820160009054906101000a900473ffffffffffffffffffffffffffffffffffffffff1673ffffffffffffffffffffffffffffffffffffffff1673ffffffffffffffffffffffffffffffffffffffff168152602001600182015481526020016002820154815260200160038201548152602001600482015481525050905060006001600086815260200190815260200160002060008573ffffffffffffffffffffffffffffffffffffffff1673ffffffffffffffffffffffffffffffffffffffff168152602001908152602001600020604051806060016040529081600082015481526020016001820154815260200160028201548152505090506000611146836115de565b5090506ec097ce7bc90715b34b9f1000000000826000015183604001518361116e9190611f15565b6111789190611f49565b6111829190611fba565b82602001516111919190611eb2565b935050505092915050565b7f000000000000000000000000000000000000000000000000000000000000000081565b6111c8611246565b600073ffffffffffffffffffffffffffffffffffffffff168173ffffffffffffffffffffffffffffffffffffffff160361123a5760006040517f1e4fbdf70000000000000000000000000000000000000000000000000000000081526004016112319190611d98565b60405180910390fd5b61124381611498565b50565b61124e611757565b73ffffffffffffffffffffffffffffffffffffffff1661126c610cb0565b73ffffffffffffffffffffffffffffffffffffffff16146112cb5761128f611757565b6040517f118cdaa70000000000000000000000000000000000000000000000000000000081526004016112c29190611d98565b60405180910390fd5b565b600080611362836040518060a00160405290816000820160009054906101000a900473ffffffffffffffffffffffffffffffffffffffff1673ffffffffffffffffffffffffffffffffffffffff1673ffffffffffffffffffffffffffffffffffffffff1681526020016001820154815260200160028201548152602001600382015481526020016004820154815250506115de565b91509150818360030181905550808360040181905550505050565b611415828260405160240161139392919061214f565b6040516020818303038152906040527fb60e72cc000000000000000000000000000000000000000000000000000000007bffffffffffffffffffffffffffffffffffffffffffffffffffffffff19166020820180517bffffffffffffffffffffffffffffffffffffffffffffffffffffffff838183161783525050505061175f565b5050565b611493838473ffffffffffffffffffffffffffffffffffffffff1663a9059cbb858560405160240161144c92919061217f565b604051602081830303815290604052915060e01b6020820180517bffffffffffffffffffffffffffffffffffffffffffffffffffffffff8381831617835250505050611779565b505050565b60008060009054906101000a900473ffffffffffffffffffffffffffffffffffffffff169050816000806101000a81548173ffffffffffffffffffffffffffffffffffffffff021916908373ffffffffffffffffffffffffffffffffffffffff1602179055508173ffffffffffffffffffffffffffffffffffffffff168173ffffffffffffffffffffffffffffffffffffffff167f8be0079c531659141344cd1fd0a4f28419497f9722a3daafe3b4186f6b6457e060405160405180910390a35050565b6115d8848573ffffffffffffffffffffffffffffffffffffffff166323b872dd868686604051602401611591939291906121a8565b604051602081830303815290604052915060e01b6020820180517bffffffffffffffffffffffffffffffffffffffffffffffffffffffff8381831617835250505050611779565b50505050565b60008082606001519150826080015190507f000000000000000000000000000000000000000000000000000000000000000042106117525760006004544211611627574261162b565b6004545b90508360800151810361163e5750611752565b80915060008460400151036116535750611752565b60008460800151826116659190611f15565b90506116c76040518060400160405280602081526020017f656c61707365643a2025642c207265776172645065725365636f6e643a202564815250827f0000000000000000000000000000000000000000000000000000000000000000611810565b600085604001516003546116db9190611f49565b6ec097ce7bc90715b34b9f100000000087602001517f00000000000000000000000000000000000000000000000000000000000000008561171c9190611f49565b6117269190611f49565b6117309190611f49565b61173a9190611fba565b86606001516117499190611eb2565b90508094505050505b915091565b600033905090565b6117768161176e6118af6118d0565b63ffffffff16565b50565b60006117a4828473ffffffffffffffffffffffffffffffffffffffff166118db90919063ffffffff16565b905060008151141580156117c95750808060200190518101906117c791906121f4565b155b1561180b57826040517f5274afe70000000000000000000000000000000000000000000000000000000081526004016118029190611d98565b60405180910390fd5b505050565b6118aa83838360405160240161182893929190612221565b6040516020818303038152906040527fca47c4eb000000000000000000000000000000000000000000000000000000007bffffffffffffffffffffffffffffffffffffffffffffffffffffffff19166020820180517bffffffffffffffffffffffffffffffffffffffffffffffffffffffff838183161783525050505061175f565b505050565b60006a636f6e736f6c652e6c6f679050600080835160208501845afa505050565b611a92819050919050565b60606118e9838360006118f1565b905092915050565b60608147101561193857306040517fcd78605900000000000000000000000000000000000000000000000000000000815260040161192f9190611d98565b60405180910390fd5b6000808573ffffffffffffffffffffffffffffffffffffffff16848660405161196191906122a6565b60006040518083038185875af1925050503d806000811461199e576040519150601f19603f3d011682016040523d82523d6000602084013e6119a3565b606091505b50915091506119b38683836119be565b925050509392505050565b6060826119d3576119ce82611a4d565b611a45565b600082511480156119fb575060008473ffffffffffffffffffffffffffffffffffffffff163b145b15611a3d57836040517f9996b315000000000000000000000000000000000000000000000000000000008152600401611a349190611d98565b60405180910390fd5b819050611a46565b5b9392505050565b600081511115611a605780518082602001fd5b6040517f1425ea4200000000000000000000000000000000000000000000000000000000815260040160405180910390fd5b611a9a6122bd565b565b6000819050919050565b611aaf81611a9c565b82525050565b6000602082019050611aca6000830184611aa6565b92915050565b600080fd5b611ade81611a9c565b8114611ae957600080fd5b50565b600081359050611afb81611ad5565b92915050565b600060208284031215611b1757611b16611ad0565b5b6000611b2584828501611aec565b91505092915050565b600073ffffffffffffffffffffffffffffffffffffffff82169050919050565b6000819050919050565b6000611b73611b6e611b6984611b2e565b611b4e565b611b2e565b9050919050565b6000611b8582611b58565b9050919050565b6000611b9782611b7a565b9050919050565b611ba781611b8c565b82525050565b600060a082019050611bc26000830188611b9e565b611bcf6020830187611aa6565b611bdc6040830186611aa6565b611be96060830185611aa6565b611bf66080830184611aa6565b9695505050505050565b6000611c0b82611b2e565b9050919050565b6000611c1d82611c00565b9050919050565b611c2d81611c12565b8114611c3857600080fd5b50565b600081359050611c4a81611c24565b92915050565b60008115159050919050565b611c6581611c50565b8114611c7057600080fd5b50565b600081359050611c8281611c5c565b92915050565b600080600060608486031215611ca157611ca0611ad0565b5b6000611caf86828701611aec565b9350506020611cc086828701611c3b565b9250506040611cd186828701611c73565b9150509250925092565b60008060408385031215611cf257611cf1611ad0565b5b6000611d0085828601611aec565b9250506020611d1185828601611aec565b9150509250929050565b600080600060608486031215611d3457611d33611ad0565b5b6000611d4286828701611aec565b9350506020611d5386828701611aec565b9250506040611d6486828701611c73565b9150509250925092565b6000602082019050611d836000830184611b9e565b92915050565b611d9281611c00565b82525050565b6000602082019050611dad6000830184611d89565b92915050565b611dbc81611c00565b8114611dc757600080fd5b50565b600081359050611dd981611db3565b92915050565b60008060408385031215611df657611df5611ad0565b5b6000611e0485828601611aec565b9250506020611e1585828601611dca565b9150509250929050565b6000606082019050611e346000830186611aa6565b611e416020830185611aa6565b611e4e6040830184611aa6565b949350505050565b600060208284031215611e6c57611e6b611ad0565b5b6000611e7a84828501611dca565b91505092915050565b7f4e487b7100000000000000000000000000000000000000000000000000000000600052601160045260246000fd5b6000611ebd82611a9c565b9150611ec883611a9c565b9250828201905080821115611ee057611edf611e83565b5b92915050565b7f4e487b7100000000000000000000000000000000000000000000000000000000600052603260045260246000fd5b6000611f2082611a9c565b9150611f2b83611a9c565b9250828203905081811115611f4357611f42611e83565b5b92915050565b6000611f5482611a9c565b9150611f5f83611a9c565b9250828202611f6d81611a9c565b91508282048414831517611f8457611f83611e83565b5b5092915050565b7f4e487b7100000000000000000000000000000000000000000000000000000000600052601260045260246000fd5b6000611fc582611a9c565b9150611fd083611a9c565b925082611fe057611fdf611f8b565b5b828204905092915050565b600081519050611ffa81611ad5565b92915050565b60006020828403121561201657612015611ad0565b5b600061202484828501611feb565b91505092915050565b600082825260208201905092915050565b7f77697468647261773a2063616e2774207769746864726177206d6f726520746860008201527f616e206465706f73697400000000000000000000000000000000000000000000602082015250565b600061209a602a8361202d565b91506120a58261203e565b604082019050919050565b600060208201905081810360008301526120c98161208d565b9050919050565b600081519050919050565b60005b838110156120f95780820151818401526020810190506120de565b60008484015250505050565b6000601f19601f8301169050919050565b6000612121826120d0565b61212b818561202d565b935061213b8185602086016120db565b61214481612105565b840191505092915050565b600060408201905081810360008301526121698185612116565b90506121786020830184611aa6565b9392505050565b60006040820190506121946000830185611d89565b6121a16020830184611aa6565b9392505050565b60006060820190506121bd6000830186611d89565b6121ca6020830185611d89565b6121d76040830184611aa6565b949350505050565b6000815190506121ee81611c5c565b92915050565b60006020828403121561220a57612209611ad0565b5b6000612218848285016121df565b91505092915050565b6000606082019050818103600083015261223b8186612116565b905061224a6020830185611aa6565b6122576040830184611aa6565b949350505050565b600081519050919050565b600081905092915050565b60006122808261225f565b61228a818561226a565b935061229a8185602086016120db565b80840191505092915050565b60006122b28284612275565b915081905092915050565b7f4e487b7100000000000000000000000000000000000000000000000000000000600052605160045260246000fdfea2646970667358221220d825ebc6d08c2f82c7778dbc2d9ae4355c9a74d34db879fdcf288b8949c3be6664736f6c63430008180033",
  "linkReferences": {},
  "deployedLinkReferences": {}
}